{
	"data": {
		"bytecode": {
			"linkReferences": {},
			"object": "60806040526001600f553480156200001657600080fd5b506040518060400160405280601481526020017f5461695368616e674d617047656e657261746f720000000000000000000000008152506040518060400160405280600481526020017f54534d470000000000000000000000000000000000000000000000000000000081525081600090805190602001906200009b929190620001b3565b508060019080519060200190620000b4929190620001b3565b5050506001600a81905550620000df620000d3620000e560201b60201c565b620000ed60201b60201c565b620002c8565b600033905090565b6000600b60009054906101000a900473ffffffffffffffffffffffffffffffffffffffff16905081600b60006101000a81548173ffffffffffffffffffffffffffffffffffffffff021916908373ffffffffffffffffffffffffffffffffffffffff1602179055508173ffffffffffffffffffffffffffffffffffffffff168173ffffffffffffffffffffffffffffffffffffffff167f8be0079c531659141344cd1fd0a4f28419497f9722a3daafe3b4186f6b6457e060405160405180910390a35050565b828054620001c19062000263565b90600052602060002090601f016020900481019282620001e5576000855562000231565b82601f106200020057805160ff191683800117855562000231565b8280016001018555821562000231579182015b828111156200023057825182559160200191906001019062000213565b5b50905062000240919062000244565b5090565b5b808211156200025f57600081600090555060010162000245565b5090565b600060028204905060018216806200027c57607f821691505b6020821081141562000293576200029262000299565b5b50919050565b7f4e487b7100000000000000000000000000000000000000000000000000000000600052602260045260246000fd5b614cf880620002d86000396000f3fe608060405234801561001057600080fd5b50600436106101a95760003560e01c8063626ab3b8116100f9578063b88d4fde11610097578063d523c64711610071578063d523c647146104ce578063e985e9c5146104fe578063e9b3c3e51461052e578063f2fde38b1461055e576101a9565b8063b88d4fde14610452578063c87b56dd1461046e578063cc33c8751461049e576101a9565b8063715018a6116100d3578063715018a6146103f05780638da5cb5b146103fa57806395d89b4114610418578063a22cb46514610436576101a9565b8063626ab3b8146103745780636352211e1461039057806370a08231146103c0576101a9565b806325e3d5221161016657806340c84b0e1161014057806340c84b0e146102ee57806342842e0e1461030c5780634f6ccce7146103285780635f2a9e8714610358576101a9565b806325e3d522146102825780632f745c59146102a05780633f07d813146102d0576101a9565b806301ffc9a7146101ae57806306fdde03146101de578063081812fc146101fc578063095ea7b31461022c57806318160ddd1461024857806323b872dd14610266575b600080fd5b6101c860048036038101906101c39190613399565b61057a565b6040516101d59190613c51565b60405180910390f35b6101e66105f4565b6040516101f39190613c6c565b60405180910390f35b6102166004803603810190610211919061343c565b610686565b6040516102239190613bea565b60405180910390f35b61024660048036038101906102419190613359565b61070b565b005b610250610823565b60405161025d9190613eee565b60405180910390f35b610280600480360381019061027b9190613243565b610830565b005b61028a610890565b6040516102979190613c6c565b60405180910390f35b6102ba60048036038101906102b59190613359565b61091e565b6040516102c79190613eee565b60405180910390f35b6102d86109c3565b6040516102e59190613c6c565b60405180910390f35b6102f6610a51565b6040516103039190613c6c565b60405180910390f35b61032660048036038101906103219190613243565b610adf565b005b610342600480360381019061033d919061343c565b610aff565b60405161034f9190613eee565b60405180910390f35b610372600480360381019061036d9190613469565b610b70565b005b61038e600480360381019061038991906133f3565b610c64565b005b6103aa60048036038101906103a5919061343c565b610d4b565b6040516103b79190613bea565b60405180910390f35b6103da60048036038101906103d591906131d6565b610dfd565b6040516103e79190613eee565b60405180910390f35b6103f8610eb5565b005b610402610f3d565b60405161040f9190613bea565b60405180910390f35b610420610f67565b60405161042d9190613c6c565b60405180910390f35b610450600480360381019061044b9190613319565b610ff9565b005b61046c60048036038101906104679190613296565b61117a565b005b6104886004803603810190610483919061343c565b6111dc565b6040516104959190613c6c565b60405180910390f35b6104b860048036038101906104b3919061343c565b611b00565b6040516104c59190613c6c565b60405180910390f35b6104e860048036038101906104e3919061343c565b611ba0565b6040516104f59190613c6c565b60405180910390f35b61051860048036038101906105139190613203565b611c40565b6040516105259190613c51565b60405180910390f35b6105486004803603810190610543919061343c565b611cd4565b6040516105559190613eee565b60405180910390f35b610578600480360381019061057391906131d6565b611cec565b005b60007f780e9d63000000000000000000000000000000000000000000000000000000007bffffffffffffffffffffffffffffffffffffffffffffffffffffffff1916827bffffffffffffffffffffffffffffffffffffffffffffffffffffffff191614806105ed57506105ec82611de4565b5b9050919050565b606060008054610603906141b3565b80601f016020809104026020016040519081016040528092919081815260200182805461062f906141b3565b801561067c5780601f106106515761010080835404028352916020019161067c565b820191906000526020600020905b81548152906001019060200180831161065f57829003601f168201915b5050505050905090565b600061069182611ec6565b6106d0576040517f08c379a00000000000000000000000000000000000000000000000000000000081526004016106c790613e0e565b60405180910390fd5b6004600083815260200190815260200160002060009054906101000a900473ffffffffffffffffffffffffffffffffffffffff169050919050565b600061071682610d4b565b90508073ffffffffffffffffffffffffffffffffffffffff168373ffffffffffffffffffffffffffffffffffffffff161415610787576040517f08c379a000000000000000000000000000000000000000000000000000000000815260040161077e90613e6e565b60405180910390fd5b8073ffffffffffffffffffffffffffffffffffffffff166107a6611f32565b73ffffffffffffffffffffffffffffffffffffffff1614806107d557506107d4816107cf611f32565b611c40565b5b610814576040517f08c379a000000000000000000000000000000000000000000000000000000000815260040161080b90613d6e565b60405180910390fd5b61081e8383611f3a565b505050565b6000600880549050905090565b61084161083b611f32565b82611ff3565b610880576040517f08c379a000000000000000000000000000000000000000000000000000000000815260040161087790613e8e565b60405180910390fd5b61088b8383836120d1565b505050565b600c805461089d906141b3565b80601f01602080910402602001604051908101604052809291908181526020018280546108c9906141b3565b80156109165780601f106108eb57610100808354040283529160200191610916565b820191906000526020600020905b8154815290600101906020018083116108f957829003601f168201915b505050505081565b600061092983610dfd565b821061096a576040517f08c379a000000000000000000000000000000000000000000000000000000000815260040161096190613c8e565b60405180910390fd5b600660008473ffffffffffffffffffffffffffffffffffffffff1673ffffffffffffffffffffffffffffffffffffffff168152602001908152602001600020600083815260200190815260200160002054905092915050565b600e80546109d0906141b3565b80601f01602080910402602001604051908101604052809291908181526020018280546109fc906141b3565b8015610a495780601f10610a1e57610100808354040283529160200191610a49565b820191906000526020600020905b815481529060010190602001808311610a2c57829003601f168201915b505050505081565b600d8054610a5e906141b3565b80601f0160208091040260200160405190810160405280929190818152602001828054610a8a906141b3565b8015610ad75780601f10610aac57610100808354040283529160200191610ad7565b820191906000526020600020905b815481529060010190602001808311610aba57829003601f168201915b505050505081565b610afa8383836040518060200160405280600081525061117a565b505050565b6000610b09610823565b8210610b4a576040517f08c379a0000000000000000000000000000000000000000000000000000000008152600401610b4190613eae565b60405180910390fd5b60088281548110610b5e57610b5d61434c565b5b90600052602060002001549050919050565b6002600a541415610bb6576040517f08c379a0000000000000000000000000000000000000000000000000000000008152600401610bad90613ece565b60405180910390fd5b6002600a81905550610bd1610bc9611f32565b600f5461232d565b8260106000600f548152602001908152602001600020819055508160116000600f5481526020019081526020016000209080519060200190610c14929190612fc2565b508060126000600f5481526020019081526020016000209080519060200190610c3e929190612fc2565b50600f6000815480929190610c5290614216565b91905055506001600a81905550505050565b610c6c611f32565b73ffffffffffffffffffffffffffffffffffffffff16610c8a610f3d565b73ffffffffffffffffffffffffffffffffffffffff1614610ce0576040517f08c379a0000000000000000000000000000000000000000000000000000000008152600401610cd790613e2e565b60405180910390fd5b6000600d8054610cef906141b3565b905014610d31576040517f08c379a0000000000000000000000000000000000000000000000000000000008152600401610d2890613dee565b60405180910390fd5b80600d9080519060200190610d47929190612fc2565b5050565b6000806002600084815260200190815260200160002060009054906101000a900473ffffffffffffffffffffffffffffffffffffffff169050600073ffffffffffffffffffffffffffffffffffffffff168173ffffffffffffffffffffffffffffffffffffffff161415610df4576040517f08c379a0000000000000000000000000000000000000000000000000000000008152600401610deb90613dae565b60405180910390fd5b80915050919050565b60008073ffffffffffffffffffffffffffffffffffffffff168273ffffffffffffffffffffffffffffffffffffffff161415610e6e576040517f08c379a0000000000000000000000000000000000000000000000000000000008152600401610e6590613d8e565b60405180910390fd5b600360008373ffffffffffffffffffffffffffffffffffffffff1673ffffffffffffffffffffffffffffffffffffffff168152602001908152602001600020549050919050565b610ebd611f32565b73ffffffffffffffffffffffffffffffffffffffff16610edb610f3d565b73ffffffffffffffffffffffffffffffffffffffff1614610f31576040517f08c379a0000000000000000000000000000000000000000000000000000000008152600401610f2890613e2e565b60405180910390fd5b610f3b600061234b565b565b6000600b60009054906101000a900473ffffffffffffffffffffffffffffffffffffffff16905090565b606060018054610f76906141b3565b80601f0160208091040260200160405190810160405280929190818152602001828054610fa2906141b3565b8015610fef5780601f10610fc457610100808354040283529160200191610fef565b820191906000526020600020905b815481529060010190602001808311610fd257829003601f168201915b5050505050905090565b611001611f32565b73ffffffffffffffffffffffffffffffffffffffff168273ffffffffffffffffffffffffffffffffffffffff16141561106f576040517f08c379a000000000000000000000000000000000000000000000000000000000815260040161106690613d2e565b60405180910390fd5b806005600061107c611f32565b73ffffffffffffffffffffffffffffffffffffffff1673ffffffffffffffffffffffffffffffffffffffff16815260200190815260200160002060008473ffffffffffffffffffffffffffffffffffffffff1673ffffffffffffffffffffffffffffffffffffffff16815260200190815260200160002060006101000a81548160ff0219169083151502179055508173ffffffffffffffffffffffffffffffffffffffff16611129611f32565b73ffffffffffffffffffffffffffffffffffffffff167f17307eab39ab6107e8899845ad3d59bd9653f200f220920489ca2b5937696c318360405161116e9190613c51565b60405180910390a35050565b61118b611185611f32565b83611ff3565b6111ca576040517f08c379a00000000000000000000000000000000000000000000000000000000081526004016111c190613e8e565b60405180910390fd5b6111d684848484612411565b50505050565b60606111e6613048565b60405180610120016040528060fd8152602001614b3560fd9139816000601381106112145761121361434c565b5b60200201819052506040518060400160405280601f81526020017f64617461207265736f75726365206261736564206f6e3a20506f6c79676f6e00815250816001601381106112665761126561434c565b5b6020020181905250604051806060016040528060288152602001614c9b602891398160026013811061129b5761129a61434c565b5b60200201819052506040518060400160405280600a81526020017f6d617020747970653a2000000000000000000000000000000000000000000000815250816003601381106112ed576112ec61434c565b5b6020020181905250601260008481526020019081526020016000208054611313906141b3565b80601f016020809104026020016040519081016040528092919081815260200182805461133f906141b3565b801561138c5780601f106113615761010080835404028352916020019161138c565b820191906000526020600020905b81548152906001019060200180831161136f57829003601f168201915b5050505050816004601381106113a5576113a461434c565b5b6020020181905250604051806060016040528060288152602001614a9360289139816005601381106113da576113d961434c565b5b60200201819052506040518060400160405280600e81526020017f626c6f636b206865696768743a200000000000000000000000000000000000008152508160066013811061142c5761142b61434c565b5b6020020181905250611450601060008581526020019081526020016000205461246d565b816007601381106114645761146361434c565b5b6020020181905250604051806060016040528060288152602001614ae460289139816008601381106114995761149861434c565b5b60200201819052506040518060400160405280600c81526020017f736565206d617020696e3a200000000000000000000000000000000000000000815250816009601381106114eb576114ea61434c565b5b6020020181905250604051806060016040528060298152602001614b0c6029913981600a601381106115205761151f61434c565b5b6020020181905250600d8054611535906141b3565b80601f0160208091040260200160405190810160405280929190818152602001828054611561906141b3565b80156115ae5780601f10611583576101008083540402835291602001916115ae565b820191906000526020600020905b81548152906001019060200180831161159157829003601f168201915b505050505081600b601381106115c7576115c661434c565b5b60200201819052506040518060400160405280600a81526020017f26616d703b745f69643d0000000000000000000000000000000000000000000081525081600c601381106116195761161861434c565b5b602002018190525061162a8361246d565b81600d6013811061163e5761163d61434c565b5b6020020181905250604051806060016040528060298152602001614abb6029913981600e601381106116735761167261434c565b5b60200201819052506040518060400160405280600d81526020017f6465736372697074696f6e3a200000000000000000000000000000000000000081525081600f601381106116c5576116c461434c565b5b6020020181905250604051806060016040528060298152602001614c3260299139816010601381106116fa576116f961434c565b5b6020020181905250601160008481526020019081526020016000208054611720906141b3565b80601f016020809104026020016040519081016040528092919081815260200182805461174c906141b3565b80156117995780601f1061176e57610100808354040283529160200191611799565b820191906000526020600020905b81548152906001019060200180831161177c57829003601f168201915b5050505050816011601381106117b2576117b161434c565b5b60200201819052506040518060400160405280600d81526020017f3c2f746578743e3c2f7376673e00000000000000000000000000000000000000815250816012601381106118045761180361434c565b5b60200201819052506000816000601381106118225761182161434c565b5b60200201518260016013811061183b5761183a61434c565b5b6020020151836002601381106118545761185361434c565b5b60200201518460036013811061186d5761186c61434c565b5b6020020151856004601381106118865761188561434c565b5b60200201518660056013811061189f5761189e61434c565b5b6020020151876006601381106118b8576118b761434c565b5b6020020151886007601381106118d1576118d061434c565b5b60200201516040516020016118ed989796959493929190613a32565b604051602081830303815290604052905080826008601381106119135761191261434c565b5b60200201518360096013811061192c5761192b61434c565b5b602002015184600a601381106119455761194461434c565b5b602002015185600b6013811061195e5761195d61434c565b5b602002015186600c601381106119775761197661434c565b5b602002015187600d601381106119905761198f61434c565b5b602002015188600e601381106119a9576119a861434c565b5b602002015189600f601381106119c2576119c161434c565b5b60200201516040516020016119df99989796959493929190613aa4565b60405160208183030381529060405290508082601060138110611a0557611a0461434c565b5b602002015183601160138110611a1e57611a1d61434c565b5b602002015184601260138110611a3757611a3661434c565b5b6020020151604051602001611a4f94939291906139f4565b60405160208183030381529060405290506000611ad1611a6e8661246d565b600d611a798861246d565b601260008a8152602001908152602001600020601160008b8152602001908152602001600020611aa8886125ce565b604051602001611abd96959493929190613b23565b6040516020818303038152906040526125ce565b905080604051602001611ae49190613bc8565b6040516020818303038152906040529150819350505050919050565b60116020528060005260406000206000915090508054611b1f906141b3565b80601f0160208091040260200160405190810160405280929190818152602001828054611b4b906141b3565b8015611b985780601f10611b6d57610100808354040283529160200191611b98565b820191906000526020600020905b815481529060010190602001808311611b7b57829003601f168201915b505050505081565b60126020528060005260406000206000915090508054611bbf906141b3565b80601f0160208091040260200160405190810160405280929190818152602001828054611beb906141b3565b8015611c385780601f10611c0d57610100808354040283529160200191611c38565b820191906000526020600020905b815481529060010190602001808311611c1b57829003601f168201915b505050505081565b6000600560008473ffffffffffffffffffffffffffffffffffffffff1673ffffffffffffffffffffffffffffffffffffffff16815260200190815260200160002060008373ffffffffffffffffffffffffffffffffffffffff1673ffffffffffffffffffffffffffffffffffffffff16815260200190815260200160002060009054906101000a900460ff16905092915050565b60106020528060005260406000206000915090505481565b611cf4611f32565b73ffffffffffffffffffffffffffffffffffffffff16611d12610f3d565b73ffffffffffffffffffffffffffffffffffffffff1614611d68576040517f08c379a0000000000000000000000000000000000000000000000000000000008152600401611d5f90613e2e565b60405180910390fd5b600073ffffffffffffffffffffffffffffffffffffffff168173ffffffffffffffffffffffffffffffffffffffff161415611dd8576040517f08c379a0000000000000000000000000000000000000000000000000000000008152600401611dcf90613cce565b60405180910390fd5b611de18161234b565b50565b60007f80ac58cd000000000000000000000000000000000000000000000000000000007bffffffffffffffffffffffffffffffffffffffffffffffffffffffff1916827bffffffffffffffffffffffffffffffffffffffffffffffffffffffff19161480611eaf57507f5b5e139f000000000000000000000000000000000000000000000000000000007bffffffffffffffffffffffffffffffffffffffffffffffffffffffff1916827bffffffffffffffffffffffffffffffffffffffffffffffffffffffff1916145b80611ebf5750611ebe82612766565b5b9050919050565b60008073ffffffffffffffffffffffffffffffffffffffff166002600084815260200190815260200160002060009054906101000a900473ffffffffffffffffffffffffffffffffffffffff1673ffffffffffffffffffffffffffffffffffffffff1614159050919050565b600033905090565b816004600083815260200190815260200160002060006101000a81548173ffffffffffffffffffffffffffffffffffffffff021916908373ffffffffffffffffffffffffffffffffffffffff160217905550808273ffffffffffffffffffffffffffffffffffffffff16611fad83610d4b565b73ffffffffffffffffffffffffffffffffffffffff167f8c5be1e5ebec7d5bd14f71427d1e84f3dd0314c0f7b2291e5b200ac8c7c3b92560405160405180910390a45050565b6000611ffe82611ec6565b61203d576040517f08c379a000000000000000000000000000000000000000000000000000000000815260040161203490613d4e565b60405180910390fd5b600061204883610d4b565b90508073ffffffffffffffffffffffffffffffffffffffff168473ffffffffffffffffffffffffffffffffffffffff1614806120b757508373ffffffffffffffffffffffffffffffffffffffff1661209f84610686565b73ffffffffffffffffffffffffffffffffffffffff16145b806120c857506120c78185611c40565b5b91505092915050565b8273ffffffffffffffffffffffffffffffffffffffff166120f182610d4b565b73ffffffffffffffffffffffffffffffffffffffff1614612147576040517f08c379a000000000000000000000000000000000000000000000000000000000815260040161213e90613e4e565b60405180910390fd5b600073ffffffffffffffffffffffffffffffffffffffff168273ffffffffffffffffffffffffffffffffffffffff1614156121b7576040517f08c379a00000000000000000000000000000000000000000000000000000000081526004016121ae90613d0e565b60405180910390fd5b6121c28383836127d0565b6121cd600082611f3a565b6001600360008573ffffffffffffffffffffffffffffffffffffffff1673ffffffffffffffffffffffffffffffffffffffff168152602001908152602001600020600082825461221d91906140c9565b925050819055506001600360008473ffffffffffffffffffffffffffffffffffffffff1673ffffffffffffffffffffffffffffffffffffffff16815260200190815260200160002060008282546122749190613fe8565b92505081905550816002600083815260200190815260200160002060006101000a81548173ffffffffffffffffffffffffffffffffffffffff021916908373ffffffffffffffffffffffffffffffffffffffff160217905550808273ffffffffffffffffffffffffffffffffffffffff168473ffffffffffffffffffffffffffffffffffffffff167fddf252ad1be2c89b69c2b068fc378daa952ba7f163c4a11628f55a4df523b3ef60405160405180910390a4505050565b6123478282604051806020016040528060008152506128e4565b5050565b6000600b60009054906101000a900473ffffffffffffffffffffffffffffffffffffffff16905081600b60006101000a81548173ffffffffffffffffffffffffffffffffffffffff021916908373ffffffffffffffffffffffffffffffffffffffff1602179055508173ffffffffffffffffffffffffffffffffffffffff168173ffffffffffffffffffffffffffffffffffffffff167f8be0079c531659141344cd1fd0a4f28419497f9722a3daafe3b4186f6b6457e060405160405180910390a35050565b61241c8484846120d1565b6124288484848461293f565b612467576040517f08c379a000000000000000000000000000000000000000000000000000000000815260040161245e90613cae565b60405180910390fd5b50505050565b606060008214156124b5576040518060400160405280600181526020017f300000000000000000000000000000000000000000000000000000000000000081525090506125c9565b600082905060005b600082146124e75780806124d090614216565b915050600a826124e0919061403e565b91506124bd565b60008167ffffffffffffffff8111156125035761250261437b565b5b6040519080825280601f01601f1916602001820160405280156125355781602001600182028036833780820191505090505b5090505b600085146125c25760018261254e91906140c9565b9150600a8561255d919061425f565b60306125699190613fe8565b60f81b81838151811061257f5761257e61434c565b5b60200101907effffffffffffffffffffffffffffffffffffffffffffffffffffffffffffff1916908160001a905350600a856125bb919061403e565b9450612539565b8093505050505b919050565b606060008251905060008114156125f75760405180602001604052806000815250915050612761565b600060036002836126089190613fe8565b612612919061403e565b600461261e919061406f565b9050600060208261262f9190613fe8565b67ffffffffffffffff8111156126485761264761437b565b5b6040519080825280601f01601f19166020018201604052801561267a5781602001600182028036833780820191505090505b5090506000604051806060016040528060408152602001614c5b604091399050600181016020830160005b8681101561271e5760038101905062ffffff818a015116603f8160121c168401518060081b905060ff603f83600c1c1686015116810190508060081b905060ff603f8360061c1686015116810190508060081b905060ff603f831686015116810190508060e01b905080845260048401935050506126a5565b506003860660018114612738576002811461274857612753565b613d3d60f01b6002830352612753565b603d60f81b60018303525b508484525050819450505050505b919050565b60007f01ffc9a7000000000000000000000000000000000000000000000000000000007bffffffffffffffffffffffffffffffffffffffffffffffffffffffff1916827bffffffffffffffffffffffffffffffffffffffffffffffffffffffff1916149050919050565b6127db838383612ad6565b600073ffffffffffffffffffffffffffffffffffffffff168373ffffffffffffffffffffffffffffffffffffffff16141561281e5761281981612adb565b61285d565b8173ffffffffffffffffffffffffffffffffffffffff168373ffffffffffffffffffffffffffffffffffffffff161461285c5761285b8382612b24565b5b5b600073ffffffffffffffffffffffffffffffffffffffff168273ffffffffffffffffffffffffffffffffffffffff1614156128a05761289b81612c91565b6128df565b8273ffffffffffffffffffffffffffffffffffffffff168273ffffffffffffffffffffffffffffffffffffffff16146128de576128dd8282612d62565b5b5b505050565b6128ee8383612de1565b6128fb600084848461293f565b61293a576040517f08c379a000000000000000000000000000000000000000000000000000000000815260040161293190613cae565b60405180910390fd5b505050565b60006129608473ffffffffffffffffffffffffffffffffffffffff16612faf565b15612ac9578373ffffffffffffffffffffffffffffffffffffffff1663150b7a02612989611f32565b8786866040518563ffffffff1660e01b81526004016129ab9493929190613c05565b602060405180830381600087803b1580156129c557600080fd5b505af19250505080156129f657506040513d601f19601f820116820180604052508101906129f391906133c6565b60015b612a79573d8060008114612a26576040519150601f19603f3d011682016040523d82523d6000602084013e612a2b565b606091505b50600081511415612a71576040517f08c379a0000000000000000000000000000000000000000000000000000000008152600401612a6890613cae565b60405180910390fd5b805181602001fd5b63150b7a0260e01b7bffffffffffffffffffffffffffffffffffffffffffffffffffffffff1916817bffffffffffffffffffffffffffffffffffffffffffffffffffffffff191614915050612ace565b600190505b949350505050565b505050565b6008805490506009600083815260200190815260200160002081905550600881908060018154018082558091505060019003906000526020600020016000909190919091505550565b60006001612b3184610dfd565b612b3b91906140c9565b9050600060076000848152602001908152602001600020549050818114612c20576000600660008673ffffffffffffffffffffffffffffffffffffffff1673ffffffffffffffffffffffffffffffffffffffff168152602001908152602001600020600084815260200190815260200160002054905080600660008773ffffffffffffffffffffffffffffffffffffffff1673ffffffffffffffffffffffffffffffffffffffff168152602001908152602001600020600084815260200190815260200160002081905550816007600083815260200190815260200160002081905550505b6007600084815260200190815260200160002060009055600660008573ffffffffffffffffffffffffffffffffffffffff1673ffffffffffffffffffffffffffffffffffffffff16815260200190815260200160002060008381526020019081526020016000206000905550505050565b60006001600880549050612ca591906140c9565b9050600060096000848152602001908152602001600020549050600060088381548110612cd557612cd461434c565b5b906000526020600020015490508060088381548110612cf757612cf661434c565b5b906000526020600020018190555081600960008381526020019081526020016000208190555060096000858152602001908152602001600020600090556008805480612d4657612d4561431d565b5b6001900381819060005260206000200160009055905550505050565b6000612d6d83610dfd565b905081600660008573ffffffffffffffffffffffffffffffffffffffff1673ffffffffffffffffffffffffffffffffffffffff168152602001908152602001600020600083815260200190815260200160002081905550806007600084815260200190815260200160002081905550505050565b600073ffffffffffffffffffffffffffffffffffffffff168273ffffffffffffffffffffffffffffffffffffffff161415612e51576040517f08c379a0000000000000000000000000000000000000000000000000000000008152600401612e4890613dce565b60405180910390fd5b612e5a81611ec6565b15612e9a576040517f08c379a0000000000000000000000000000000000000000000000000000000008152600401612e9190613cee565b60405180910390fd5b612ea6600083836127d0565b6001600360008473ffffffffffffffffffffffffffffffffffffffff1673ffffffffffffffffffffffffffffffffffffffff1681526020019081526020016000206000828254612ef69190613fe8565b92505081905550816002600083815260200190815260200160002060006101000a81548173ffffffffffffffffffffffffffffffffffffffff021916908373ffffffffffffffffffffffffffffffffffffffff160217905550808273ffffffffffffffffffffffffffffffffffffffff16600073ffffffffffffffffffffffffffffffffffffffff167fddf252ad1be2c89b69c2b068fc378daa952ba7f163c4a11628f55a4df523b3ef60405160405180910390a45050565b600080823b905060008111915050919050565b828054612fce906141b3565b90600052602060002090601f016020900481019282612ff05760008555613037565b82601f1061300957805160ff1916838001178555613037565b82800160010185558215613037579182015b8281111561303657825182559160200191906001019061301b565b5b5090506130449190613070565b5090565b6040518061026001604052806013905b60608152602001906001900390816130585790505090565b5b80821115613089576000816000905550600101613071565b5090565b60006130a061309b84613f2e565b613f09565b9050828152602081018484840111156130bc576130bb6143af565b5b6130c7848285614171565b509392505050565b60006130e26130dd84613f5f565b613f09565b9050828152602081018484840111156130fe576130fd6143af565b5b613109848285614171565b509392505050565b60008135905061312081614a36565b92915050565b60008135905061313581614a4d565b92915050565b60008135905061314a81614a64565b92915050565b60008151905061315f81614a64565b92915050565b600082601f83011261317a576131796143aa565b5b813561318a84826020860161308d565b91505092915050565b600082601f8301126131a8576131a76143aa565b5b81356131b88482602086016130cf565b91505092915050565b6000813590506131d081614a7b565b92915050565b6000602082840312156131ec576131eb6143b9565b5b60006131fa84828501613111565b91505092915050565b6000806040838503121561321a576132196143b9565b5b600061322885828601613111565b925050602061323985828601613111565b9150509250929050565b60008060006060848603121561325c5761325b6143b9565b5b600061326a86828701613111565b935050602061327b86828701613111565b925050604061328c868287016131c1565b9150509250925092565b600080600080608085870312156132b0576132af6143b9565b5b60006132be87828801613111565b94505060206132cf87828801613111565b93505060406132e0878288016131c1565b925050606085013567ffffffffffffffff811115613301576133006143b4565b5b61330d87828801613165565b91505092959194509250565b600080604083850312156133305761332f6143b9565b5b600061333e85828601613111565b925050602061334f85828601613126565b9150509250929050565b600080604083850312156133705761336f6143b9565b5b600061337e85828601613111565b925050602061338f858286016131c1565b9150509250929050565b6000602082840312156133af576133ae6143b9565b5b60006133bd8482850161313b565b91505092915050565b6000602082840312156133dc576133db6143b9565b5b60006133ea84828501613150565b91505092915050565b600060208284031215613409576134086143b9565b5b600082013567ffffffffffffffff811115613427576134266143b4565b5b61343384828501613193565b91505092915050565b600060208284031215613452576134516143b9565b5b6000613460848285016131c1565b91505092915050565b600080600060608486031215613482576134816143b9565b5b6000613490868287016131c1565b935050602084013567ffffffffffffffff8111156134b1576134b06143b4565b5b6134bd86828701613193565b925050604084013567ffffffffffffffff8111156134de576134dd6143b4565b5b6134ea86828701613193565b9150509250925092565b6134fd816140fd565b82525050565b61350c8161410f565b82525050565b600061351d82613fa5565b6135278185613fbb565b9350613537818560208601614180565b613540816143be565b840191505092915050565b600061355682613fb0565b6135608185613fcc565b9350613570818560208601614180565b613579816143be565b840191505092915050565b600061358f82613fb0565b6135998185613fdd565b93506135a9818560208601614180565b80840191505092915050565b600081546135c2816141b3565b6135cc8186613fdd565b945060018216600081146135e757600181146135f85761362b565b60ff1983168652818601935061362b565b61360185613f90565b60005b8381101561362357815481890152600182019150602081019050613604565b838801955050505b50505092915050565b6000613641600683613fdd565b915061364c826143cf565b600682019050919050565b6000613664601383613fdd565b915061366f826143f8565b601382019050919050565b6000613687602b83613fcc565b915061369282614421565b604082019050919050565b60006136aa603283613fcc565b91506136b582614470565b604082019050919050565b60006136cd600c83613fdd565b91506136d8826144bf565b600c82019050919050565b60006136f0602683613fcc565b91506136fb826144e8565b604082019050919050565b6000613713601c83613fcc565b915061371e82614537565b602082019050919050565b6000613736601183613fdd565b915061374182614560565b601182019050919050565b6000613759602483613fcc565b915061376482614589565b604082019050919050565b600061377c601983613fcc565b9150613787826145d8565b602082019050919050565b600061379f601883613fdd565b91506137aa82614601565b601882019050919050565b60006137c2602683613fdd565b91506137cd8261462a565b602682019050919050565b60006137e5602c83613fcc565b91506137f082614679565b604082019050919050565b6000613808603883613fcc565b9150613813826146c8565b604082019050919050565b600061382b602a83613fcc565b915061383682614717565b604082019050919050565b600061384e602983613fcc565b915061385982614766565b604082019050919050565b6000613871600283613fdd565b915061387c826147b5565b600282019050919050565b6000613894602083613fcc565b915061389f826147de565b602082019050919050565b60006138b7601783613fcc565b91506138c282614807565b602082019050919050565b60006138da602c83613fcc565b91506138e582614830565b604082019050919050565b60006138fd602083613fcc565b91506139088261487f565b602082019050919050565b6000613920602983613fcc565b915061392b826148a8565b604082019050919050565b6000613943602183613fcc565b915061394e826148f7565b604082019050919050565b6000613966601d83613fdd565b915061397182614946565b601d82019050919050565b6000613989603183613fcc565b91506139948261496f565b604082019050919050565b60006139ac602c83613fcc565b91506139b7826149be565b604082019050919050565b60006139cf601f83613fcc565b91506139da82614a0d565b602082019050919050565b6139ee81614167565b82525050565b6000613a008287613584565b9150613a0c8286613584565b9150613a188285613584565b9150613a248284613584565b915081905095945050505050565b6000613a3e828b613584565b9150613a4a828a613584565b9150613a568289613584565b9150613a628288613584565b9150613a6e8287613584565b9150613a7a8286613584565b9150613a868285613584565b9150613a928284613584565b91508190509998505050505050505050565b6000613ab0828c613584565b9150613abc828b613584565b9150613ac8828a613584565b9150613ad48289613584565b9150613ae08288613584565b9150613aec8287613584565b9150613af88286613584565b9150613b048285613584565b9150613b108284613584565b91508190509a9950505050505050505050565b6000613b2e82613792565b9150613b3a8289613584565b9150613b4582613657565b9150613b5182886135b5565b9150613b5c82613634565b9150613b688287613584565b9150613b73826136c0565b9150613b7f82866135b5565b9150613b8a82613729565b9150613b9682856135b5565b9150613ba1826137b5565b9150613bad8284613584565b9150613bb882613864565b9150819050979650505050505050565b6000613bd382613959565b9150613bdf8284613584565b915081905092915050565b6000602082019050613bff60008301846134f4565b92915050565b6000608082019050613c1a60008301876134f4565b613c2760208301866134f4565b613c3460408301856139e5565b8181036060830152613c468184613512565b905095945050505050565b6000602082019050613c666000830184613503565b92915050565b60006020820190508181036000830152613c86818461354b565b905092915050565b60006020820190508181036000830152613ca78161367a565b9050919050565b60006020820190508181036000830152613cc78161369d565b9050919050565b60006020820190508181036000830152613ce7816136e3565b9050919050565b60006020820190508181036000830152613d0781613706565b9050919050565b60006020820190508181036000830152613d278161374c565b9050919050565b60006020820190508181036000830152613d478161376f565b9050919050565b60006020820190508181036000830152613d67816137d8565b9050919050565b60006020820190508181036000830152613d87816137fb565b9050919050565b60006020820190508181036000830152613da78161381e565b9050919050565b60006020820190508181036000830152613dc781613841565b9050919050565b60006020820190508181036000830152613de781613887565b9050919050565b60006020820190508181036000830152613e07816138aa565b9050919050565b60006020820190508181036000830152613e27816138cd565b9050919050565b60006020820190508181036000830152613e47816138f0565b9050919050565b60006020820190508181036000830152613e6781613913565b9050919050565b60006020820190508181036000830152613e8781613936565b9050919050565b60006020820190508181036000830152613ea78161397c565b9050919050565b60006020820190508181036000830152613ec78161399f565b9050919050565b60006020820190508181036000830152613ee7816139c2565b9050919050565b6000602082019050613f0360008301846139e5565b92915050565b6000613f13613f24565b9050613f1f82826141e5565b919050565b6000604051905090565b600067ffffffffffffffff821115613f4957613f4861437b565b5b613f52826143be565b9050602081019050919050565b600067ffffffffffffffff821115613f7a57613f7961437b565b5b613f83826143be565b9050602081019050919050565b60008190508160005260206000209050919050565b600081519050919050565b600081519050919050565b600082825260208201905092915050565b600082825260208201905092915050565b600081905092915050565b6000613ff382614167565b9150613ffe83614167565b9250827fffffffffffffffffffffffffffffffffffffffffffffffffffffffffffffffff0382111561403357614032614290565b5b828201905092915050565b600061404982614167565b915061405483614167565b925082614064576140636142bf565b5b828204905092915050565b600061407a82614167565b915061408583614167565b9250817fffffffffffffffffffffffffffffffffffffffffffffffffffffffffffffffff04831182151516156140be576140bd614290565b5b828202905092915050565b60006140d482614167565b91506140df83614167565b9250828210156140f2576140f1614290565b5b828203905092915050565b600061410882614147565b9050919050565b60008115159050919050565b60007fffffffff0000000000000000000000000000000000000000000000000000000082169050919050565b600073ffffffffffffffffffffffffffffffffffffffff82169050919050565b6000819050919050565b82818337600083830152505050565b60005b8381101561419e578082015181840152602081019050614183565b838111156141ad576000848401525b50505050565b600060028204905060018216806141cb57607f821691505b602082108114156141df576141de6142ee565b5b50919050565b6141ee826143be565b810181811067ffffffffffffffff8211171561420d5761420c61437b565b5b80604052505050565b600061422182614167565b91507fffffffffffffffffffffffffffffffffffffffffffffffffffffffffffffffff82141561425457614253614290565b5b600182019050919050565b600061426a82614167565b915061427583614167565b925082614285576142846142bf565b5b828206905092915050565b7f4e487b7100000000000000000000000000000000000000000000000000000000600052601160045260246000fd5b7f4e487b7100000000000000000000000000000000000000000000000000000000600052601260045260246000fd5b7f4e487b7100000000000000000000000000000000000000000000000000000000600052602260045260246000fd5b7f4e487b7100000000000000000000000000000000000000000000000000000000600052603160045260246000fd5b7f4e487b7100000000000000000000000000000000000000000000000000000000600052603260045260246000fd5b7f4e487b7100000000000000000000000000000000000000000000000000000000600052604160045260246000fd5b600080fd5b600080fd5b600080fd5b600080fd5b6000601f19601f8301169050919050565b7f26745f69643d0000000000000000000000000000000000000000000000000000600082015250565b7f222c20226465736372697074696f6e223a202200000000000000000000000000600082015250565b7f455243373231456e756d657261626c653a206f776e657220696e646578206f7560008201527f74206f6620626f756e6473000000000000000000000000000000000000000000602082015250565b7f4552433732313a207472616e7366657220746f206e6f6e20455243373231526560008201527f63656976657220696d706c656d656e7465720000000000000000000000000000602082015250565b7f222c202274797065223a20220000000000000000000000000000000000000000600082015250565b7f4f776e61626c653a206e6577206f776e657220697320746865207a65726f206160008201527f6464726573730000000000000000000000000000000000000000000000000000602082015250565b7f4552433732313a20746f6b656e20616c7265616479206d696e74656400000000600082015250565b7f222c2022746f6b656e496e666f223a2022000000000000000000000000000000600082015250565b7f4552433732313a207472616e7366657220746f20746865207a65726f2061646460008201527f7265737300000000000000000000000000000000000000000000000000000000602082015250565b7f4552433732313a20617070726f766520746f2063616c6c657200000000000000600082015250565b7f7b226e616d65223a20225461695368616e67204d617020230000000000000000600082015250565b7f222c22696d616765223a2022646174613a696d6167652f7376672b786d6c3b6260008201527f61736536342c0000000000000000000000000000000000000000000000000000602082015250565b7f4552433732313a206f70657261746f7220717565727920666f72206e6f6e657860008201527f697374656e7420746f6b656e0000000000000000000000000000000000000000602082015250565b7f4552433732313a20617070726f76652063616c6c6572206973206e6f74206f7760008201527f6e6572206e6f7220617070726f76656420666f7220616c6c0000000000000000602082015250565b7f4552433732313a2062616c616e636520717565727920666f7220746865207a6560008201527f726f206164647265737300000000000000000000000000000000000000000000602082015250565b7f4552433732313a206f776e657220717565727920666f72206e6f6e657869737460008201527f656e7420746f6b656e0000000000000000000000000000000000000000000000602082015250565b7f227d000000000000000000000000000000000000000000000000000000000000600082015250565b7f4552433732313a206d696e7420746f20746865207a65726f2061646472657373600082015250565b7f6261736555524c20697320616c72656164792073657421000000000000000000600082015250565b7f4552433732313a20617070726f76656420717565727920666f72206e6f6e657860008201527f697374656e7420746f6b656e0000000000000000000000000000000000000000602082015250565b7f4f776e61626c653a2063616c6c6572206973206e6f7420746865206f776e6572600082015250565b7f4552433732313a207472616e73666572206f6620746f6b656e2074686174206960008201527f73206e6f74206f776e0000000000000000000000000000000000000000000000602082015250565b7f4552433732313a20617070726f76616c20746f2063757272656e74206f776e6560008201527f7200000000000000000000000000000000000000000000000000000000000000602082015250565b7f646174613a6170706c69636174696f6e2f6a736f6e3b6261736536342c000000600082015250565b7f4552433732313a207472616e736665722063616c6c6572206973206e6f74206f60008201527f776e6572206e6f7220617070726f766564000000000000000000000000000000602082015250565b7f455243373231456e756d657261626c653a20676c6f62616c20696e646578206f60008201527f7574206f6620626f756e64730000000000000000000000000000000000000000602082015250565b7f5265656e7472616e637947756172643a207265656e7472616e742063616c6c00600082015250565b614a3f816140fd565b8114614a4a57600080fd5b50565b614a568161410f565b8114614a6157600080fd5b50565b614a6d8161411b565b8114614a7857600080fd5b50565b614a8481614167565b8114614a8f57600080fd5b5056fe3c2f746578743e3c7465787420783d2231302220793d2236302220636c6173733d2262617365223e3c2f746578743e3c7465787420783d2231302220793d223132302220636c6173733d2262617365223e3c2f746578743e3c7465787420783d2231302220793d2238302220636c6173733d2262617365223e3c2f746578743e3c7465787420783d2231302220793d223130302220636c6173733d2262617365223e3c73766720786d6c6e733d22687474703a2f2f7777772e77332e6f72672f323030302f73766722207072657365727665417370656374526174696f3d22784d696e594d696e206d656574222076696577426f783d223020302033353020333530223e3c7374796c653e2e62617365207b2066696c6c3a2077686974653b20666f6e742d66616d696c793a2073657269663b20666f6e742d73697a653a20313470783b207d3c2f7374796c653e3c726563742077696474683d223130302522206865696768743d2231303025222066696c6c3d22626c61636b22202f3e3c7465787420783d2231302220793d2232302220636c6173733d2262617365223e3c2f746578743e3c7465787420783d2231302220793d223134302220636c6173733d2262617365223e4142434445464748494a4b4c4d4e4f505152535455565758595a6162636465666768696a6b6c6d6e6f707172737475767778797a303132333435363738392b2f3c2f746578743e3c7465787420783d2231302220793d2234302220636c6173733d2262617365223ea2646970667358221220f346fb8b9f18f1077b9096bfb3f6a1f2a39f3121cde643916f63aab26eb0e42564736f6c63430008070033",
			"opcodes": "PUSH1 0x80 PUSH1 0x40 MSTORE PUSH1 0x1 PUSH1 0xF SSTORE CALLVALUE DUP1 ISZERO PUSH3 0x16 JUMPI PUSH1 0x0 DUP1 REVERT JUMPDEST POP PUSH1 0x40 MLOAD DUP1 PUSH1 0x40 ADD PUSH1 0x40 MSTORE DUP1 PUSH1 0x14 DUP2 MSTORE PUSH1 0x20 ADD PUSH32 0x5461695368616E674D617047656E657261746F72000000000000000000000000 DUP2 MSTORE POP PUSH1 0x40 MLOAD DUP1 PUSH1 0x40 ADD PUSH1 0x40 MSTORE DUP1 PUSH1 0x4 DUP2 MSTORE PUSH1 0x20 ADD PUSH32 0x54534D4700000000000000000000000000000000000000000000000000000000 DUP2 MSTORE POP DUP2 PUSH1 0x0 SWAP1 DUP1 MLOAD SWAP1 PUSH1 0x20 ADD SWAP1 PUSH3 0x9B SWAP3 SWAP2 SWAP1 PUSH3 0x1B3 JUMP JUMPDEST POP DUP1 PUSH1 0x1 SWAP1 DUP1 MLOAD SWAP1 PUSH1 0x20 ADD SWAP1 PUSH3 0xB4 SWAP3 SWAP2 SWAP1 PUSH3 0x1B3 JUMP JUMPDEST POP POP POP PUSH1 0x1 PUSH1 0xA DUP2 SWAP1 SSTORE POP PUSH3 0xDF PUSH3 0xD3 PUSH3 0xE5 PUSH1 0x20 SHL PUSH1 0x20 SHR JUMP JUMPDEST PUSH3 0xED PUSH1 0x20 SHL PUSH1 0x20 SHR JUMP JUMPDEST PUSH3 0x2C8 JUMP JUMPDEST PUSH1 0x0 CALLER SWAP1 POP SWAP1 JUMP JUMPDEST PUSH1 0x0 PUSH1 0xB PUSH1 0x0 SWAP1 SLOAD SWAP1 PUSH2 0x100 EXP SWAP1 DIV PUSH20 0xFFFFFFFFFFFFFFFFFFFFFFFFFFFFFFFFFFFFFFFF AND SWAP1 POP DUP2 PUSH1 0xB PUSH1 0x0 PUSH2 0x100 EXP DUP2 SLOAD DUP2 PUSH20 0xFFFFFFFFFFFFFFFFFFFFFFFFFFFFFFFFFFFFFFFF MUL NOT AND SWAP1 DUP4 PUSH20 0xFFFFFFFFFFFFFFFFFFFFFFFFFFFFFFFFFFFFFFFF AND MUL OR SWAP1 SSTORE POP DUP2 PUSH20 0xFFFFFFFFFFFFFFFFFFFFFFFFFFFFFFFFFFFFFFFF AND DUP2 PUSH20 0xFFFFFFFFFFFFFFFFFFFFFFFFFFFFFFFFFFFFFFFF AND PUSH32 0x8BE0079C531659141344CD1FD0A4F28419497F9722A3DAAFE3B4186F6B6457E0 PUSH1 0x40 MLOAD PUSH1 0x40 MLOAD DUP1 SWAP2 SUB SWAP1 LOG3 POP POP JUMP JUMPDEST DUP3 DUP1 SLOAD PUSH3 0x1C1 SWAP1 PUSH3 0x263 JUMP JUMPDEST SWAP1 PUSH1 0x0 MSTORE PUSH1 0x20 PUSH1 0x0 KECCAK256 SWAP1 PUSH1 0x1F ADD PUSH1 0x20 SWAP1 DIV DUP2 ADD SWAP3 DUP3 PUSH3 0x1E5 JUMPI PUSH1 0x0 DUP6 SSTORE PUSH3 0x231 JUMP JUMPDEST DUP3 PUSH1 0x1F LT PUSH3 0x200 JUMPI DUP1 MLOAD PUSH1 0xFF NOT AND DUP4 DUP1 ADD OR DUP6 SSTORE PUSH3 0x231 JUMP JUMPDEST DUP3 DUP1 ADD PUSH1 0x1 ADD DUP6 SSTORE DUP3 ISZERO PUSH3 0x231 JUMPI SWAP2 DUP3 ADD JUMPDEST DUP3 DUP2 GT ISZERO PUSH3 0x230 JUMPI DUP3 MLOAD DUP3 SSTORE SWAP2 PUSH1 0x20 ADD SWAP2 SWAP1 PUSH1 0x1 ADD SWAP1 PUSH3 0x213 JUMP JUMPDEST JUMPDEST POP SWAP1 POP PUSH3 0x240 SWAP2 SWAP1 PUSH3 0x244 JUMP JUMPDEST POP SWAP1 JUMP JUMPDEST JUMPDEST DUP1 DUP3 GT ISZERO PUSH3 0x25F JUMPI PUSH1 0x0 DUP2 PUSH1 0x0 SWAP1 SSTORE POP PUSH1 0x1 ADD PUSH3 0x245 JUMP JUMPDEST POP SWAP1 JUMP JUMPDEST PUSH1 0x0 PUSH1 0x2 DUP3 DIV SWAP1 POP PUSH1 0x1 DUP3 AND DUP1 PUSH3 0x27C JUMPI PUSH1 0x7F DUP3 AND SWAP2 POP JUMPDEST PUSH1 0x20 DUP3 LT DUP2 EQ ISZERO PUSH3 0x293 JUMPI PUSH3 0x292 PUSH3 0x299 JUMP JUMPDEST JUMPDEST POP SWAP2 SWAP1 POP JUMP JUMPDEST PUSH32 0x4E487B7100000000000000000000000000000000000000000000000000000000 PUSH1 0x0 MSTORE PUSH1 0x22 PUSH1 0x4 MSTORE PUSH1 0x24 PUSH1 0x0 REVERT JUMPDEST PUSH2 0x4CF8 DUP1 PUSH3 0x2D8 PUSH1 0x0 CODECOPY PUSH1 0x0 RETURN INVALID PUSH1 0x80 PUSH1 0x40 MSTORE CALLVALUE DUP1 ISZERO PUSH2 0x10 JUMPI PUSH1 0x0 DUP1 REVERT JUMPDEST POP PUSH1 0x4 CALLDATASIZE LT PUSH2 0x1A9 JUMPI PUSH1 0x0 CALLDATALOAD PUSH1 0xE0 SHR DUP1 PUSH4 0x626AB3B8 GT PUSH2 0xF9 JUMPI DUP1 PUSH4 0xB88D4FDE GT PUSH2 0x97 JUMPI DUP1 PUSH4 0xD523C647 GT PUSH2 0x71 JUMPI DUP1 PUSH4 0xD523C647 EQ PUSH2 0x4CE JUMPI DUP1 PUSH4 0xE985E9C5 EQ PUSH2 0x4FE JUMPI DUP1 PUSH4 0xE9B3C3E5 EQ PUSH2 0x52E JUMPI DUP1 PUSH4 0xF2FDE38B EQ PUSH2 0x55E JUMPI PUSH2 0x1A9 JUMP JUMPDEST DUP1 PUSH4 0xB88D4FDE EQ PUSH2 0x452 JUMPI DUP1 PUSH4 0xC87B56DD EQ PUSH2 0x46E JUMPI DUP1 PUSH4 0xCC33C875 EQ PUSH2 0x49E JUMPI PUSH2 0x1A9 JUMP JUMPDEST DUP1 PUSH4 0x715018A6 GT PUSH2 0xD3 JUMPI DUP1 PUSH4 0x715018A6 EQ PUSH2 0x3F0 JUMPI DUP1 PUSH4 0x8DA5CB5B EQ PUSH2 0x3FA JUMPI DUP1 PUSH4 0x95D89B41 EQ PUSH2 0x418 JUMPI DUP1 PUSH4 0xA22CB465 EQ PUSH2 0x436 JUMPI PUSH2 0x1A9 JUMP JUMPDEST DUP1 PUSH4 0x626AB3B8 EQ PUSH2 0x374 JUMPI DUP1 PUSH4 0x6352211E EQ PUSH2 0x390 JUMPI DUP1 PUSH4 0x70A08231 EQ PUSH2 0x3C0 JUMPI PUSH2 0x1A9 JUMP JUMPDEST DUP1 PUSH4 0x25E3D522 GT PUSH2 0x166 JUMPI DUP1 PUSH4 0x40C84B0E GT PUSH2 0x140 JUMPI DUP1 PUSH4 0x40C84B0E EQ PUSH2 0x2EE JUMPI DUP1 PUSH4 0x42842E0E EQ PUSH2 0x30C JUMPI DUP1 PUSH4 0x4F6CCCE7 EQ PUSH2 0x328 JUMPI DUP1 PUSH4 0x5F2A9E87 EQ PUSH2 0x358 JUMPI PUSH2 0x1A9 JUMP JUMPDEST DUP1 PUSH4 0x25E3D522 EQ PUSH2 0x282 JUMPI DUP1 PUSH4 0x2F745C59 EQ PUSH2 0x2A0 JUMPI DUP1 PUSH4 0x3F07D813 EQ PUSH2 0x2D0 JUMPI PUSH2 0x1A9 JUMP JUMPDEST DUP1 PUSH4 0x1FFC9A7 EQ PUSH2 0x1AE JUMPI DUP1 PUSH4 0x6FDDE03 EQ PUSH2 0x1DE JUMPI DUP1 PUSH4 0x81812FC EQ PUSH2 0x1FC JUMPI DUP1 PUSH4 0x95EA7B3 EQ PUSH2 0x22C JUMPI DUP1 PUSH4 0x18160DDD EQ PUSH2 0x248 JUMPI DUP1 PUSH4 0x23B872DD EQ PUSH2 0x266 JUMPI JUMPDEST PUSH1 0x0 DUP1 REVERT JUMPDEST PUSH2 0x1C8 PUSH1 0x4 DUP1 CALLDATASIZE SUB DUP2 ADD SWAP1 PUSH2 0x1C3 SWAP2 SWAP1 PUSH2 0x3399 JUMP JUMPDEST PUSH2 0x57A JUMP JUMPDEST PUSH1 0x40 MLOAD PUSH2 0x1D5 SWAP2 SWAP1 PUSH2 0x3C51 JUMP JUMPDEST PUSH1 0x40 MLOAD DUP1 SWAP2 SUB SWAP1 RETURN JUMPDEST PUSH2 0x1E6 PUSH2 0x5F4 JUMP JUMPDEST PUSH1 0x40 MLOAD PUSH2 0x1F3 SWAP2 SWAP1 PUSH2 0x3C6C JUMP JUMPDEST PUSH1 0x40 MLOAD DUP1 SWAP2 SUB SWAP1 RETURN JUMPDEST PUSH2 0x216 PUSH1 0x4 DUP1 CALLDATASIZE SUB DUP2 ADD SWAP1 PUSH2 0x211 SWAP2 SWAP1 PUSH2 0x343C JUMP JUMPDEST PUSH2 0x686 JUMP JUMPDEST PUSH1 0x40 MLOAD PUSH2 0x223 SWAP2 SWAP1 PUSH2 0x3BEA JUMP JUMPDEST PUSH1 0x40 MLOAD DUP1 SWAP2 SUB SWAP1 RETURN JUMPDEST PUSH2 0x246 PUSH1 0x4 DUP1 CALLDATASIZE SUB DUP2 ADD SWAP1 PUSH2 0x241 SWAP2 SWAP1 PUSH2 0x3359 JUMP JUMPDEST PUSH2 0x70B JUMP JUMPDEST STOP JUMPDEST PUSH2 0x250 PUSH2 0x823 JUMP JUMPDEST PUSH1 0x40 MLOAD PUSH2 0x25D SWAP2 SWAP1 PUSH2 0x3EEE JUMP JUMPDEST PUSH1 0x40 MLOAD DUP1 SWAP2 SUB SWAP1 RETURN JUMPDEST PUSH2 0x280 PUSH1 0x4 DUP1 CALLDATASIZE SUB DUP2 ADD SWAP1 PUSH2 0x27B SWAP2 SWAP1 PUSH2 0x3243 JUMP JUMPDEST PUSH2 0x830 JUMP JUMPDEST STOP JUMPDEST PUSH2 0x28A PUSH2 0x890 JUMP JUMPDEST PUSH1 0x40 MLOAD PUSH2 0x297 SWAP2 SWAP1 PUSH2 0x3C6C JUMP JUMPDEST PUSH1 0x40 MLOAD DUP1 SWAP2 SUB SWAP1 RETURN JUMPDEST PUSH2 0x2BA PUSH1 0x4 DUP1 CALLDATASIZE SUB DUP2 ADD SWAP1 PUSH2 0x2B5 SWAP2 SWAP1 PUSH2 0x3359 JUMP JUMPDEST PUSH2 0x91E JUMP JUMPDEST PUSH1 0x40 MLOAD PUSH2 0x2C7 SWAP2 SWAP1 PUSH2 0x3EEE JUMP JUMPDEST PUSH1 0x40 MLOAD DUP1 SWAP2 SUB SWAP1 RETURN JUMPDEST PUSH2 0x2D8 PUSH2 0x9C3 JUMP JUMPDEST PUSH1 0x40 MLOAD PUSH2 0x2E5 SWAP2 SWAP1 PUSH2 0x3C6C JUMP JUMPDEST PUSH1 0x40 MLOAD DUP1 SWAP2 SUB SWAP1 RETURN JUMPDEST PUSH2 0x2F6 PUSH2 0xA51 JUMP JUMPDEST PUSH1 0x40 MLOAD PUSH2 0x303 SWAP2 SWAP1 PUSH2 0x3C6C JUMP JUMPDEST PUSH1 0x40 MLOAD DUP1 SWAP2 SUB SWAP1 RETURN JUMPDEST PUSH2 0x326 PUSH1 0x4 DUP1 CALLDATASIZE SUB DUP2 ADD SWAP1 PUSH2 0x321 SWAP2 SWAP1 PUSH2 0x3243 JUMP JUMPDEST PUSH2 0xADF JUMP JUMPDEST STOP JUMPDEST PUSH2 0x342 PUSH1 0x4 DUP1 CALLDATASIZE SUB DUP2 ADD SWAP1 PUSH2 0x33D SWAP2 SWAP1 PUSH2 0x343C JUMP JUMPDEST PUSH2 0xAFF JUMP JUMPDEST PUSH1 0x40 MLOAD PUSH2 0x34F SWAP2 SWAP1 PUSH2 0x3EEE JUMP JUMPDEST PUSH1 0x40 MLOAD DUP1 SWAP2 SUB SWAP1 RETURN JUMPDEST PUSH2 0x372 PUSH1 0x4 DUP1 CALLDATASIZE SUB DUP2 ADD SWAP1 PUSH2 0x36D SWAP2 SWAP1 PUSH2 0x3469 JUMP JUMPDEST PUSH2 0xB70 JUMP JUMPDEST STOP JUMPDEST PUSH2 0x38E PUSH1 0x4 DUP1 CALLDATASIZE SUB DUP2 ADD SWAP1 PUSH2 0x389 SWAP2 SWAP1 PUSH2 0x33F3 JUMP JUMPDEST PUSH2 0xC64 JUMP JUMPDEST STOP JUMPDEST PUSH2 0x3AA PUSH1 0x4 DUP1 CALLDATASIZE SUB DUP2 ADD SWAP1 PUSH2 0x3A5 SWAP2 SWAP1 PUSH2 0x343C JUMP JUMPDEST PUSH2 0xD4B JUMP JUMPDEST PUSH1 0x40 MLOAD PUSH2 0x3B7 SWAP2 SWAP1 PUSH2 0x3BEA JUMP JUMPDEST PUSH1 0x40 MLOAD DUP1 SWAP2 SUB SWAP1 RETURN JUMPDEST PUSH2 0x3DA PUSH1 0x4 DUP1 CALLDATASIZE SUB DUP2 ADD SWAP1 PUSH2 0x3D5 SWAP2 SWAP1 PUSH2 0x31D6 JUMP JUMPDEST PUSH2 0xDFD JUMP JUMPDEST PUSH1 0x40 MLOAD PUSH2 0x3E7 SWAP2 SWAP1 PUSH2 0x3EEE JUMP JUMPDEST PUSH1 0x40 MLOAD DUP1 SWAP2 SUB SWAP1 RETURN JUMPDEST PUSH2 0x3F8 PUSH2 0xEB5 JUMP JUMPDEST STOP JUMPDEST PUSH2 0x402 PUSH2 0xF3D JUMP JUMPDEST PUSH1 0x40 MLOAD PUSH2 0x40F SWAP2 SWAP1 PUSH2 0x3BEA JUMP JUMPDEST PUSH1 0x40 MLOAD DUP1 SWAP2 SUB SWAP1 RETURN JUMPDEST PUSH2 0x420 PUSH2 0xF67 JUMP JUMPDEST PUSH1 0x40 MLOAD PUSH2 0x42D SWAP2 SWAP1 PUSH2 0x3C6C JUMP JUMPDEST PUSH1 0x40 MLOAD DUP1 SWAP2 SUB SWAP1 RETURN JUMPDEST PUSH2 0x450 PUSH1 0x4 DUP1 CALLDATASIZE SUB DUP2 ADD SWAP1 PUSH2 0x44B SWAP2 SWAP1 PUSH2 0x3319 JUMP JUMPDEST PUSH2 0xFF9 JUMP JUMPDEST STOP JUMPDEST PUSH2 0x46C PUSH1 0x4 DUP1 CALLDATASIZE SUB DUP2 ADD SWAP1 PUSH2 0x467 SWAP2 SWAP1 PUSH2 0x3296 JUMP JUMPDEST PUSH2 0x117A JUMP JUMPDEST STOP JUMPDEST PUSH2 0x488 PUSH1 0x4 DUP1 CALLDATASIZE SUB DUP2 ADD SWAP1 PUSH2 0x483 SWAP2 SWAP1 PUSH2 0x343C JUMP JUMPDEST PUSH2 0x11DC JUMP JUMPDEST PUSH1 0x40 MLOAD PUSH2 0x495 SWAP2 SWAP1 PUSH2 0x3C6C JUMP JUMPDEST PUSH1 0x40 MLOAD DUP1 SWAP2 SUB SWAP1 RETURN JUMPDEST PUSH2 0x4B8 PUSH1 0x4 DUP1 CALLDATASIZE SUB DUP2 ADD SWAP1 PUSH2 0x4B3 SWAP2 SWAP1 PUSH2 0x343C JUMP JUMPDEST PUSH2 0x1B00 JUMP JUMPDEST PUSH1 0x40 MLOAD PUSH2 0x4C5 SWAP2 SWAP1 PUSH2 0x3C6C JUMP JUMPDEST PUSH1 0x40 MLOAD DUP1 SWAP2 SUB SWAP1 RETURN JUMPDEST PUSH2 0x4E8 PUSH1 0x4 DUP1 CALLDATASIZE SUB DUP2 ADD SWAP1 PUSH2 0x4E3 SWAP2 SWAP1 PUSH2 0x343C JUMP JUMPDEST PUSH2 0x1BA0 JUMP JUMPDEST PUSH1 0x40 MLOAD PUSH2 0x4F5 SWAP2 SWAP1 PUSH2 0x3C6C JUMP JUMPDEST PUSH1 0x40 MLOAD DUP1 SWAP2 SUB SWAP1 RETURN JUMPDEST PUSH2 0x518 PUSH1 0x4 DUP1 CALLDATASIZE SUB DUP2 ADD SWAP1 PUSH2 0x513 SWAP2 SWAP1 PUSH2 0x3203 JUMP JUMPDEST PUSH2 0x1C40 JUMP JUMPDEST PUSH1 0x40 MLOAD PUSH2 0x525 SWAP2 SWAP1 PUSH2 0x3C51 JUMP JUMPDEST PUSH1 0x40 MLOAD DUP1 SWAP2 SUB SWAP1 RETURN JUMPDEST PUSH2 0x548 PUSH1 0x4 DUP1 CALLDATASIZE SUB DUP2 ADD SWAP1 PUSH2 0x543 SWAP2 SWAP1 PUSH2 0x343C JUMP JUMPDEST PUSH2 0x1CD4 JUMP JUMPDEST PUSH1 0x40 MLOAD PUSH2 0x555 SWAP2 SWAP1 PUSH2 0x3EEE JUMP JUMPDEST PUSH1 0x40 MLOAD DUP1 SWAP2 SUB SWAP1 RETURN JUMPDEST PUSH2 0x578 PUSH1 0x4 DUP1 CALLDATASIZE SUB DUP2 ADD SWAP1 PUSH2 0x573 SWAP2 SWAP1 PUSH2 0x31D6 JUMP JUMPDEST PUSH2 0x1CEC JUMP JUMPDEST STOP JUMPDEST PUSH1 0x0 PUSH32 0x780E9D6300000000000000000000000000000000000000000000000000000000 PUSH28 0xFFFFFFFFFFFFFFFFFFFFFFFFFFFFFFFFFFFFFFFFFFFFFFFFFFFFFFFF NOT AND DUP3 PUSH28 0xFFFFFFFFFFFFFFFFFFFFFFFFFFFFFFFFFFFFFFFFFFFFFFFFFFFFFFFF NOT AND EQ DUP1 PUSH2 0x5ED JUMPI POP PUSH2 0x5EC DUP3 PUSH2 0x1DE4 JUMP JUMPDEST JUMPDEST SWAP1 POP SWAP2 SWAP1 POP JUMP JUMPDEST PUSH1 0x60 PUSH1 0x0 DUP1 SLOAD PUSH2 0x603 SWAP1 PUSH2 0x41B3 JUMP JUMPDEST DUP1 PUSH1 0x1F ADD PUSH1 0x20 DUP1 SWAP2 DIV MUL PUSH1 0x20 ADD PUSH1 0x40 MLOAD SWAP1 DUP2 ADD PUSH1 0x40 MSTORE DUP1 SWAP3 SWAP2 SWAP1 DUP2 DUP2 MSTORE PUSH1 0x20 ADD DUP3 DUP1 SLOAD PUSH2 0x62F SWAP1 PUSH2 0x41B3 JUMP JUMPDEST DUP1 ISZERO PUSH2 0x67C JUMPI DUP1 PUSH1 0x1F LT PUSH2 0x651 JUMPI PUSH2 0x100 DUP1 DUP4 SLOAD DIV MUL DUP4 MSTORE SWAP2 PUSH1 0x20 ADD SWAP2 PUSH2 0x67C JUMP JUMPDEST DUP3 ADD SWAP2 SWAP1 PUSH1 0x0 MSTORE PUSH1 0x20 PUSH1 0x0 KECCAK256 SWAP1 JUMPDEST DUP2 SLOAD DUP2 MSTORE SWAP1 PUSH1 0x1 ADD SWAP1 PUSH1 0x20 ADD DUP1 DUP4 GT PUSH2 0x65F JUMPI DUP3 SWAP1 SUB PUSH1 0x1F AND DUP3 ADD SWAP2 JUMPDEST POP POP POP POP POP SWAP1 POP SWAP1 JUMP JUMPDEST PUSH1 0x0 PUSH2 0x691 DUP3 PUSH2 0x1EC6 JUMP JUMPDEST PUSH2 0x6D0 JUMPI PUSH1 0x40 MLOAD PUSH32 0x8C379A000000000000000000000000000000000000000000000000000000000 DUP2 MSTORE PUSH1 0x4 ADD PUSH2 0x6C7 SWAP1 PUSH2 0x3E0E JUMP JUMPDEST PUSH1 0x40 MLOAD DUP1 SWAP2 SUB SWAP1 REVERT JUMPDEST PUSH1 0x4 PUSH1 0x0 DUP4 DUP2 MSTORE PUSH1 0x20 ADD SWAP1 DUP2 MSTORE PUSH1 0x20 ADD PUSH1 0x0 KECCAK256 PUSH1 0x0 SWAP1 SLOAD SWAP1 PUSH2 0x100 EXP SWAP1 DIV PUSH20 0xFFFFFFFFFFFFFFFFFFFFFFFFFFFFFFFFFFFFFFFF AND SWAP1 POP SWAP2 SWAP1 POP JUMP JUMPDEST PUSH1 0x0 PUSH2 0x716 DUP3 PUSH2 0xD4B JUMP JUMPDEST SWAP1 POP DUP1 PUSH20 0xFFFFFFFFFFFFFFFFFFFFFFFFFFFFFFFFFFFFFFFF AND DUP4 PUSH20 0xFFFFFFFFFFFFFFFFFFFFFFFFFFFFFFFFFFFFFFFF AND EQ ISZERO PUSH2 0x787 JUMPI PUSH1 0x40 MLOAD PUSH32 0x8C379A000000000000000000000000000000000000000000000000000000000 DUP2 MSTORE PUSH1 0x4 ADD PUSH2 0x77E SWAP1 PUSH2 0x3E6E JUMP JUMPDEST PUSH1 0x40 MLOAD DUP1 SWAP2 SUB SWAP1 REVERT JUMPDEST DUP1 PUSH20 0xFFFFFFFFFFFFFFFFFFFFFFFFFFFFFFFFFFFFFFFF AND PUSH2 0x7A6 PUSH2 0x1F32 JUMP JUMPDEST PUSH20 0xFFFFFFFFFFFFFFFFFFFFFFFFFFFFFFFFFFFFFFFF AND EQ DUP1 PUSH2 0x7D5 JUMPI POP PUSH2 0x7D4 DUP2 PUSH2 0x7CF PUSH2 0x1F32 JUMP JUMPDEST PUSH2 0x1C40 JUMP JUMPDEST JUMPDEST PUSH2 0x814 JUMPI PUSH1 0x40 MLOAD PUSH32 0x8C379A000000000000000000000000000000000000000000000000000000000 DUP2 MSTORE PUSH1 0x4 ADD PUSH2 0x80B SWAP1 PUSH2 0x3D6E JUMP JUMPDEST PUSH1 0x40 MLOAD DUP1 SWAP2 SUB SWAP1 REVERT JUMPDEST PUSH2 0x81E DUP4 DUP4 PUSH2 0x1F3A JUMP JUMPDEST POP POP POP JUMP JUMPDEST PUSH1 0x0 PUSH1 0x8 DUP1 SLOAD SWAP1 POP SWAP1 POP SWAP1 JUMP JUMPDEST PUSH2 0x841 PUSH2 0x83B PUSH2 0x1F32 JUMP JUMPDEST DUP3 PUSH2 0x1FF3 JUMP JUMPDEST PUSH2 0x880 JUMPI PUSH1 0x40 MLOAD PUSH32 0x8C379A000000000000000000000000000000000000000000000000000000000 DUP2 MSTORE PUSH1 0x4 ADD PUSH2 0x877 SWAP1 PUSH2 0x3E8E JUMP JUMPDEST PUSH1 0x40 MLOAD DUP1 SWAP2 SUB SWAP1 REVERT JUMPDEST PUSH2 0x88B DUP4 DUP4 DUP4 PUSH2 0x20D1 JUMP JUMPDEST POP POP POP JUMP JUMPDEST PUSH1 0xC DUP1 SLOAD PUSH2 0x89D SWAP1 PUSH2 0x41B3 JUMP JUMPDEST DUP1 PUSH1 0x1F ADD PUSH1 0x20 DUP1 SWAP2 DIV MUL PUSH1 0x20 ADD PUSH1 0x40 MLOAD SWAP1 DUP2 ADD PUSH1 0x40 MSTORE DUP1 SWAP3 SWAP2 SWAP1 DUP2 DUP2 MSTORE PUSH1 0x20 ADD DUP3 DUP1 SLOAD PUSH2 0x8C9 SWAP1 PUSH2 0x41B3 JUMP JUMPDEST DUP1 ISZERO PUSH2 0x916 JUMPI DUP1 PUSH1 0x1F LT PUSH2 0x8EB JUMPI PUSH2 0x100 DUP1 DUP4 SLOAD DIV MUL DUP4 MSTORE SWAP2 PUSH1 0x20 ADD SWAP2 PUSH2 0x916 JUMP JUMPDEST DUP3 ADD SWAP2 SWAP1 PUSH1 0x0 MSTORE PUSH1 0x20 PUSH1 0x0 KECCAK256 SWAP1 JUMPDEST DUP2 SLOAD DUP2 MSTORE SWAP1 PUSH1 0x1 ADD SWAP1 PUSH1 0x20 ADD DUP1 DUP4 GT PUSH2 0x8F9 JUMPI DUP3 SWAP1 SUB PUSH1 0x1F AND DUP3 ADD SWAP2 JUMPDEST POP POP POP POP POP DUP2 JUMP JUMPDEST PUSH1 0x0 PUSH2 0x929 DUP4 PUSH2 0xDFD JUMP JUMPDEST DUP3 LT PUSH2 0x96A JUMPI PUSH1 0x40 MLOAD PUSH32 0x8C379A000000000000000000000000000000000000000000000000000000000 DUP2 MSTORE PUSH1 0x4 ADD PUSH2 0x961 SWAP1 PUSH2 0x3C8E JUMP JUMPDEST PUSH1 0x40 MLOAD DUP1 SWAP2 SUB SWAP1 REVERT JUMPDEST PUSH1 0x6 PUSH1 0x0 DUP5 PUSH20 0xFFFFFFFFFFFFFFFFFFFFFFFFFFFFFFFFFFFFFFFF AND PUSH20 0xFFFFFFFFFFFFFFFFFFFFFFFFFFFFFFFFFFFFFFFF AND DUP2 MSTORE PUSH1 0x20 ADD SWAP1 DUP2 MSTORE PUSH1 0x20 ADD PUSH1 0x0 KECCAK256 PUSH1 0x0 DUP4 DUP2 MSTORE PUSH1 0x20 ADD SWAP1 DUP2 MSTORE PUSH1 0x20 ADD PUSH1 0x0 KECCAK256 SLOAD SWAP1 POP SWAP3 SWAP2 POP POP JUMP JUMPDEST PUSH1 0xE DUP1 SLOAD PUSH2 0x9D0 SWAP1 PUSH2 0x41B3 JUMP JUMPDEST DUP1 PUSH1 0x1F ADD PUSH1 0x20 DUP1 SWAP2 DIV MUL PUSH1 0x20 ADD PUSH1 0x40 MLOAD SWAP1 DUP2 ADD PUSH1 0x40 MSTORE DUP1 SWAP3 SWAP2 SWAP1 DUP2 DUP2 MSTORE PUSH1 0x20 ADD DUP3 DUP1 SLOAD PUSH2 0x9FC SWAP1 PUSH2 0x41B3 JUMP JUMPDEST DUP1 ISZERO PUSH2 0xA49 JUMPI DUP1 PUSH1 0x1F LT PUSH2 0xA1E JUMPI PUSH2 0x100 DUP1 DUP4 SLOAD DIV MUL DUP4 MSTORE SWAP2 PUSH1 0x20 ADD SWAP2 PUSH2 0xA49 JUMP JUMPDEST DUP3 ADD SWAP2 SWAP1 PUSH1 0x0 MSTORE PUSH1 0x20 PUSH1 0x0 KECCAK256 SWAP1 JUMPDEST DUP2 SLOAD DUP2 MSTORE SWAP1 PUSH1 0x1 ADD SWAP1 PUSH1 0x20 ADD DUP1 DUP4 GT PUSH2 0xA2C JUMPI DUP3 SWAP1 SUB PUSH1 0x1F AND DUP3 ADD SWAP2 JUMPDEST POP POP POP POP POP DUP2 JUMP JUMPDEST PUSH1 0xD DUP1 SLOAD PUSH2 0xA5E SWAP1 PUSH2 0x41B3 JUMP JUMPDEST DUP1 PUSH1 0x1F ADD PUSH1 0x20 DUP1 SWAP2 DIV MUL PUSH1 0x20 ADD PUSH1 0x40 MLOAD SWAP1 DUP2 ADD PUSH1 0x40 MSTORE DUP1 SWAP3 SWAP2 SWAP1 DUP2 DUP2 MSTORE PUSH1 0x20 ADD DUP3 DUP1 SLOAD PUSH2 0xA8A SWAP1 PUSH2 0x41B3 JUMP JUMPDEST DUP1 ISZERO PUSH2 0xAD7 JUMPI DUP1 PUSH1 0x1F LT PUSH2 0xAAC JUMPI PUSH2 0x100 DUP1 DUP4 SLOAD DIV MUL DUP4 MSTORE SWAP2 PUSH1 0x20 ADD SWAP2 PUSH2 0xAD7 JUMP JUMPDEST DUP3 ADD SWAP2 SWAP1 PUSH1 0x0 MSTORE PUSH1 0x20 PUSH1 0x0 KECCAK256 SWAP1 JUMPDEST DUP2 SLOAD DUP2 MSTORE SWAP1 PUSH1 0x1 ADD SWAP1 PUSH1 0x20 ADD DUP1 DUP4 GT PUSH2 0xABA JUMPI DUP3 SWAP1 SUB PUSH1 0x1F AND DUP3 ADD SWAP2 JUMPDEST POP POP POP POP POP DUP2 JUMP JUMPDEST PUSH2 0xAFA DUP4 DUP4 DUP4 PUSH1 0x40 MLOAD DUP1 PUSH1 0x20 ADD PUSH1 0x40 MSTORE DUP1 PUSH1 0x0 DUP2 MSTORE POP PUSH2 0x117A JUMP JUMPDEST POP POP POP JUMP JUMPDEST PUSH1 0x0 PUSH2 0xB09 PUSH2 0x823 JUMP JUMPDEST DUP3 LT PUSH2 0xB4A JUMPI PUSH1 0x40 MLOAD PUSH32 0x8C379A000000000000000000000000000000000000000000000000000000000 DUP2 MSTORE PUSH1 0x4 ADD PUSH2 0xB41 SWAP1 PUSH2 0x3EAE JUMP JUMPDEST PUSH1 0x40 MLOAD DUP1 SWAP2 SUB SWAP1 REVERT JUMPDEST PUSH1 0x8 DUP3 DUP2 SLOAD DUP2 LT PUSH2 0xB5E JUMPI PUSH2 0xB5D PUSH2 0x434C JUMP JUMPDEST JUMPDEST SWAP1 PUSH1 0x0 MSTORE PUSH1 0x20 PUSH1 0x0 KECCAK256 ADD SLOAD SWAP1 POP SWAP2 SWAP1 POP JUMP JUMPDEST PUSH1 0x2 PUSH1 0xA SLOAD EQ ISZERO PUSH2 0xBB6 JUMPI PUSH1 0x40 MLOAD PUSH32 0x8C379A000000000000000000000000000000000000000000000000000000000 DUP2 MSTORE PUSH1 0x4 ADD PUSH2 0xBAD SWAP1 PUSH2 0x3ECE JUMP JUMPDEST PUSH1 0x40 MLOAD DUP1 SWAP2 SUB SWAP1 REVERT JUMPDEST PUSH1 0x2 PUSH1 0xA DUP2 SWAP1 SSTORE POP PUSH2 0xBD1 PUSH2 0xBC9 PUSH2 0x1F32 JUMP JUMPDEST PUSH1 0xF SLOAD PUSH2 0x232D JUMP JUMPDEST DUP3 PUSH1 0x10 PUSH1 0x0 PUSH1 0xF SLOAD DUP2 MSTORE PUSH1 0x20 ADD SWAP1 DUP2 MSTORE PUSH1 0x20 ADD PUSH1 0x0 KECCAK256 DUP2 SWAP1 SSTORE POP DUP2 PUSH1 0x11 PUSH1 0x0 PUSH1 0xF SLOAD DUP2 MSTORE PUSH1 0x20 ADD SWAP1 DUP2 MSTORE PUSH1 0x20 ADD PUSH1 0x0 KECCAK256 SWAP1 DUP1 MLOAD SWAP1 PUSH1 0x20 ADD SWAP1 PUSH2 0xC14 SWAP3 SWAP2 SWAP1 PUSH2 0x2FC2 JUMP JUMPDEST POP DUP1 PUSH1 0x12 PUSH1 0x0 PUSH1 0xF SLOAD DUP2 MSTORE PUSH1 0x20 ADD SWAP1 DUP2 MSTORE PUSH1 0x20 ADD PUSH1 0x0 KECCAK256 SWAP1 DUP1 MLOAD SWAP1 PUSH1 0x20 ADD SWAP1 PUSH2 0xC3E SWAP3 SWAP2 SWAP1 PUSH2 0x2FC2 JUMP JUMPDEST POP PUSH1 0xF PUSH1 0x0 DUP2 SLOAD DUP1 SWAP3 SWAP2 SWAP1 PUSH2 0xC52 SWAP1 PUSH2 0x4216 JUMP JUMPDEST SWAP2 SWAP1 POP SSTORE POP PUSH1 0x1 PUSH1 0xA DUP2 SWAP1 SSTORE POP POP POP POP JUMP JUMPDEST PUSH2 0xC6C PUSH2 0x1F32 JUMP JUMPDEST PUSH20 0xFFFFFFFFFFFFFFFFFFFFFFFFFFFFFFFFFFFFFFFF AND PUSH2 0xC8A PUSH2 0xF3D JUMP JUMPDEST PUSH20 0xFFFFFFFFFFFFFFFFFFFFFFFFFFFFFFFFFFFFFFFF AND EQ PUSH2 0xCE0 JUMPI PUSH1 0x40 MLOAD PUSH32 0x8C379A000000000000000000000000000000000000000000000000000000000 DUP2 MSTORE PUSH1 0x4 ADD PUSH2 0xCD7 SWAP1 PUSH2 0x3E2E JUMP JUMPDEST PUSH1 0x40 MLOAD DUP1 SWAP2 SUB SWAP1 REVERT JUMPDEST PUSH1 0x0 PUSH1 0xD DUP1 SLOAD PUSH2 0xCEF SWAP1 PUSH2 0x41B3 JUMP JUMPDEST SWAP1 POP EQ PUSH2 0xD31 JUMPI PUSH1 0x40 MLOAD PUSH32 0x8C379A000000000000000000000000000000000000000000000000000000000 DUP2 MSTORE PUSH1 0x4 ADD PUSH2 0xD28 SWAP1 PUSH2 0x3DEE JUMP JUMPDEST PUSH1 0x40 MLOAD DUP1 SWAP2 SUB SWAP1 REVERT JUMPDEST DUP1 PUSH1 0xD SWAP1 DUP1 MLOAD SWAP1 PUSH1 0x20 ADD SWAP1 PUSH2 0xD47 SWAP3 SWAP2 SWAP1 PUSH2 0x2FC2 JUMP JUMPDEST POP POP JUMP JUMPDEST PUSH1 0x0 DUP1 PUSH1 0x2 PUSH1 0x0 DUP5 DUP2 MSTORE PUSH1 0x20 ADD SWAP1 DUP2 MSTORE PUSH1 0x20 ADD PUSH1 0x0 KECCAK256 PUSH1 0x0 SWAP1 SLOAD SWAP1 PUSH2 0x100 EXP SWAP1 DIV PUSH20 0xFFFFFFFFFFFFFFFFFFFFFFFFFFFFFFFFFFFFFFFF AND SWAP1 POP PUSH1 0x0 PUSH20 0xFFFFFFFFFFFFFFFFFFFFFFFFFFFFFFFFFFFFFFFF AND DUP2 PUSH20 0xFFFFFFFFFFFFFFFFFFFFFFFFFFFFFFFFFFFFFFFF AND EQ ISZERO PUSH2 0xDF4 JUMPI PUSH1 0x40 MLOAD PUSH32 0x8C379A000000000000000000000000000000000000000000000000000000000 DUP2 MSTORE PUSH1 0x4 ADD PUSH2 0xDEB SWAP1 PUSH2 0x3DAE JUMP JUMPDEST PUSH1 0x40 MLOAD DUP1 SWAP2 SUB SWAP1 REVERT JUMPDEST DUP1 SWAP2 POP POP SWAP2 SWAP1 POP JUMP JUMPDEST PUSH1 0x0 DUP1 PUSH20 0xFFFFFFFFFFFFFFFFFFFFFFFFFFFFFFFFFFFFFFFF AND DUP3 PUSH20 0xFFFFFFFFFFFFFFFFFFFFFFFFFFFFFFFFFFFFFFFF AND EQ ISZERO PUSH2 0xE6E JUMPI PUSH1 0x40 MLOAD PUSH32 0x8C379A000000000000000000000000000000000000000000000000000000000 DUP2 MSTORE PUSH1 0x4 ADD PUSH2 0xE65 SWAP1 PUSH2 0x3D8E JUMP JUMPDEST PUSH1 0x40 MLOAD DUP1 SWAP2 SUB SWAP1 REVERT JUMPDEST PUSH1 0x3 PUSH1 0x0 DUP4 PUSH20 0xFFFFFFFFFFFFFFFFFFFFFFFFFFFFFFFFFFFFFFFF AND PUSH20 0xFFFFFFFFFFFFFFFFFFFFFFFFFFFFFFFFFFFFFFFF AND DUP2 MSTORE PUSH1 0x20 ADD SWAP1 DUP2 MSTORE PUSH1 0x20 ADD PUSH1 0x0 KECCAK256 SLOAD SWAP1 POP SWAP2 SWAP1 POP JUMP JUMPDEST PUSH2 0xEBD PUSH2 0x1F32 JUMP JUMPDEST PUSH20 0xFFFFFFFFFFFFFFFFFFFFFFFFFFFFFFFFFFFFFFFF AND PUSH2 0xEDB PUSH2 0xF3D JUMP JUMPDEST PUSH20 0xFFFFFFFFFFFFFFFFFFFFFFFFFFFFFFFFFFFFFFFF AND EQ PUSH2 0xF31 JUMPI PUSH1 0x40 MLOAD PUSH32 0x8C379A000000000000000000000000000000000000000000000000000000000 DUP2 MSTORE PUSH1 0x4 ADD PUSH2 0xF28 SWAP1 PUSH2 0x3E2E JUMP JUMPDEST PUSH1 0x40 MLOAD DUP1 SWAP2 SUB SWAP1 REVERT JUMPDEST PUSH2 0xF3B PUSH1 0x0 PUSH2 0x234B JUMP JUMPDEST JUMP JUMPDEST PUSH1 0x0 PUSH1 0xB PUSH1 0x0 SWAP1 SLOAD SWAP1 PUSH2 0x100 EXP SWAP1 DIV PUSH20 0xFFFFFFFFFFFFFFFFFFFFFFFFFFFFFFFFFFFFFFFF AND SWAP1 POP SWAP1 JUMP JUMPDEST PUSH1 0x60 PUSH1 0x1 DUP1 SLOAD PUSH2 0xF76 SWAP1 PUSH2 0x41B3 JUMP JUMPDEST DUP1 PUSH1 0x1F ADD PUSH1 0x20 DUP1 SWAP2 DIV MUL PUSH1 0x20 ADD PUSH1 0x40 MLOAD SWAP1 DUP2 ADD PUSH1 0x40 MSTORE DUP1 SWAP3 SWAP2 SWAP1 DUP2 DUP2 MSTORE PUSH1 0x20 ADD DUP3 DUP1 SLOAD PUSH2 0xFA2 SWAP1 PUSH2 0x41B3 JUMP JUMPDEST DUP1 ISZERO PUSH2 0xFEF JUMPI DUP1 PUSH1 0x1F LT PUSH2 0xFC4 JUMPI PUSH2 0x100 DUP1 DUP4 SLOAD DIV MUL DUP4 MSTORE SWAP2 PUSH1 0x20 ADD SWAP2 PUSH2 0xFEF JUMP JUMPDEST DUP3 ADD SWAP2 SWAP1 PUSH1 0x0 MSTORE PUSH1 0x20 PUSH1 0x0 KECCAK256 SWAP1 JUMPDEST DUP2 SLOAD DUP2 MSTORE SWAP1 PUSH1 0x1 ADD SWAP1 PUSH1 0x20 ADD DUP1 DUP4 GT PUSH2 0xFD2 JUMPI DUP3 SWAP1 SUB PUSH1 0x1F AND DUP3 ADD SWAP2 JUMPDEST POP POP POP POP POP SWAP1 POP SWAP1 JUMP JUMPDEST PUSH2 0x1001 PUSH2 0x1F32 JUMP JUMPDEST PUSH20 0xFFFFFFFFFFFFFFFFFFFFFFFFFFFFFFFFFFFFFFFF AND DUP3 PUSH20 0xFFFFFFFFFFFFFFFFFFFFFFFFFFFFFFFFFFFFFFFF AND EQ ISZERO PUSH2 0x106F JUMPI PUSH1 0x40 MLOAD PUSH32 0x8C379A000000000000000000000000000000000000000000000000000000000 DUP2 MSTORE PUSH1 0x4 ADD PUSH2 0x1066 SWAP1 PUSH2 0x3D2E JUMP JUMPDEST PUSH1 0x40 MLOAD DUP1 SWAP2 SUB SWAP1 REVERT JUMPDEST DUP1 PUSH1 0x5 PUSH1 0x0 PUSH2 0x107C PUSH2 0x1F32 JUMP JUMPDEST PUSH20 0xFFFFFFFFFFFFFFFFFFFFFFFFFFFFFFFFFFFFFFFF AND PUSH20 0xFFFFFFFFFFFFFFFFFFFFFFFFFFFFFFFFFFFFFFFF AND DUP2 MSTORE PUSH1 0x20 ADD SWAP1 DUP2 MSTORE PUSH1 0x20 ADD PUSH1 0x0 KECCAK256 PUSH1 0x0 DUP5 PUSH20 0xFFFFFFFFFFFFFFFFFFFFFFFFFFFFFFFFFFFFFFFF AND PUSH20 0xFFFFFFFFFFFFFFFFFFFFFFFFFFFFFFFFFFFFFFFF AND DUP2 MSTORE PUSH1 0x20 ADD SWAP1 DUP2 MSTORE PUSH1 0x20 ADD PUSH1 0x0 KECCAK256 PUSH1 0x0 PUSH2 0x100 EXP DUP2 SLOAD DUP2 PUSH1 0xFF MUL NOT AND SWAP1 DUP4 ISZERO ISZERO MUL OR SWAP1 SSTORE POP DUP2 PUSH20 0xFFFFFFFFFFFFFFFFFFFFFFFFFFFFFFFFFFFFFFFF AND PUSH2 0x1129 PUSH2 0x1F32 JUMP JUMPDEST PUSH20 0xFFFFFFFFFFFFFFFFFFFFFFFFFFFFFFFFFFFFFFFF AND PUSH32 0x17307EAB39AB6107E8899845AD3D59BD9653F200F220920489CA2B5937696C31 DUP4 PUSH1 0x40 MLOAD PUSH2 0x116E SWAP2 SWAP1 PUSH2 0x3C51 JUMP JUMPDEST PUSH1 0x40 MLOAD DUP1 SWAP2 SUB SWAP1 LOG3 POP POP JUMP JUMPDEST PUSH2 0x118B PUSH2 0x1185 PUSH2 0x1F32 JUMP JUMPDEST DUP4 PUSH2 0x1FF3 JUMP JUMPDEST PUSH2 0x11CA JUMPI PUSH1 0x40 MLOAD PUSH32 0x8C379A000000000000000000000000000000000000000000000000000000000 DUP2 MSTORE PUSH1 0x4 ADD PUSH2 0x11C1 SWAP1 PUSH2 0x3E8E JUMP JUMPDEST PUSH1 0x40 MLOAD DUP1 SWAP2 SUB SWAP1 REVERT JUMPDEST PUSH2 0x11D6 DUP5 DUP5 DUP5 DUP5 PUSH2 0x2411 JUMP JUMPDEST POP POP POP POP JUMP JUMPDEST PUSH1 0x60 PUSH2 0x11E6 PUSH2 0x3048 JUMP JUMPDEST PUSH1 0x40 MLOAD DUP1 PUSH2 0x120 ADD PUSH1 0x40 MSTORE DUP1 PUSH1 0xFD DUP2 MSTORE PUSH1 0x20 ADD PUSH2 0x4B35 PUSH1 0xFD SWAP2 CODECOPY DUP2 PUSH1 0x0 PUSH1 0x13 DUP2 LT PUSH2 0x1214 JUMPI PUSH2 0x1213 PUSH2 0x434C JUMP JUMPDEST JUMPDEST PUSH1 0x20 MUL ADD DUP2 SWAP1 MSTORE POP PUSH1 0x40 MLOAD DUP1 PUSH1 0x40 ADD PUSH1 0x40 MSTORE DUP1 PUSH1 0x1F DUP2 MSTORE PUSH1 0x20 ADD PUSH32 0x64617461207265736F75726365206261736564206F6E3A20506F6C79676F6E00 DUP2 MSTORE POP DUP2 PUSH1 0x1 PUSH1 0x13 DUP2 LT PUSH2 0x1266 JUMPI PUSH2 0x1265 PUSH2 0x434C JUMP JUMPDEST JUMPDEST PUSH1 0x20 MUL ADD DUP2 SWAP1 MSTORE POP PUSH1 0x40 MLOAD DUP1 PUSH1 0x60 ADD PUSH1 0x40 MSTORE DUP1 PUSH1 0x28 DUP2 MSTORE PUSH1 0x20 ADD PUSH2 0x4C9B PUSH1 0x28 SWAP2 CODECOPY DUP2 PUSH1 0x2 PUSH1 0x13 DUP2 LT PUSH2 0x129B JUMPI PUSH2 0x129A PUSH2 0x434C JUMP JUMPDEST JUMPDEST PUSH1 0x20 MUL ADD DUP2 SWAP1 MSTORE POP PUSH1 0x40 MLOAD DUP1 PUSH1 0x40 ADD PUSH1 0x40 MSTORE DUP1 PUSH1 0xA DUP2 MSTORE PUSH1 0x20 ADD PUSH32 0x6D617020747970653A2000000000000000000000000000000000000000000000 DUP2 MSTORE POP DUP2 PUSH1 0x3 PUSH1 0x13 DUP2 LT PUSH2 0x12ED JUMPI PUSH2 0x12EC PUSH2 0x434C JUMP JUMPDEST JUMPDEST PUSH1 0x20 MUL ADD DUP2 SWAP1 MSTORE POP PUSH1 0x12 PUSH1 0x0 DUP5 DUP2 MSTORE PUSH1 0x20 ADD SWAP1 DUP2 MSTORE PUSH1 0x20 ADD PUSH1 0x0 KECCAK256 DUP1 SLOAD PUSH2 0x1313 SWAP1 PUSH2 0x41B3 JUMP JUMPDEST DUP1 PUSH1 0x1F ADD PUSH1 0x20 DUP1 SWAP2 DIV MUL PUSH1 0x20 ADD PUSH1 0x40 MLOAD SWAP1 DUP2 ADD PUSH1 0x40 MSTORE DUP1 SWAP3 SWAP2 SWAP1 DUP2 DUP2 MSTORE PUSH1 0x20 ADD DUP3 DUP1 SLOAD PUSH2 0x133F SWAP1 PUSH2 0x41B3 JUMP JUMPDEST DUP1 ISZERO PUSH2 0x138C JUMPI DUP1 PUSH1 0x1F LT PUSH2 0x1361 JUMPI PUSH2 0x100 DUP1 DUP4 SLOAD DIV MUL DUP4 MSTORE SWAP2 PUSH1 0x20 ADD SWAP2 PUSH2 0x138C JUMP JUMPDEST DUP3 ADD SWAP2 SWAP1 PUSH1 0x0 MSTORE PUSH1 0x20 PUSH1 0x0 KECCAK256 SWAP1 JUMPDEST DUP2 SLOAD DUP2 MSTORE SWAP1 PUSH1 0x1 ADD SWAP1 PUSH1 0x20 ADD DUP1 DUP4 GT PUSH2 0x136F JUMPI DUP3 SWAP1 SUB PUSH1 0x1F AND DUP3 ADD SWAP2 JUMPDEST POP POP POP POP POP DUP2 PUSH1 0x4 PUSH1 0x13 DUP2 LT PUSH2 0x13A5 JUMPI PUSH2 0x13A4 PUSH2 0x434C JUMP JUMPDEST JUMPDEST PUSH1 0x20 MUL ADD DUP2 SWAP1 MSTORE POP PUSH1 0x40 MLOAD DUP1 PUSH1 0x60 ADD PUSH1 0x40 MSTORE DUP1 PUSH1 0x28 DUP2 MSTORE PUSH1 0x20 ADD PUSH2 0x4A93 PUSH1 0x28 SWAP2 CODECOPY DUP2 PUSH1 0x5 PUSH1 0x13 DUP2 LT PUSH2 0x13DA JUMPI PUSH2 0x13D9 PUSH2 0x434C JUMP JUMPDEST JUMPDEST PUSH1 0x20 MUL ADD DUP2 SWAP1 MSTORE POP PUSH1 0x40 MLOAD DUP1 PUSH1 0x40 ADD PUSH1 0x40 MSTORE DUP1 PUSH1 0xE DUP2 MSTORE PUSH1 0x20 ADD PUSH32 0x626C6F636B206865696768743A20000000000000000000000000000000000000 DUP2 MSTORE POP DUP2 PUSH1 0x6 PUSH1 0x13 DUP2 LT PUSH2 0x142C JUMPI PUSH2 0x142B PUSH2 0x434C JUMP JUMPDEST JUMPDEST PUSH1 0x20 MUL ADD DUP2 SWAP1 MSTORE POP PUSH2 0x1450 PUSH1 0x10 PUSH1 0x0 DUP6 DUP2 MSTORE PUSH1 0x20 ADD SWAP1 DUP2 MSTORE PUSH1 0x20 ADD PUSH1 0x0 KECCAK256 SLOAD PUSH2 0x246D JUMP JUMPDEST DUP2 PUSH1 0x7 PUSH1 0x13 DUP2 LT PUSH2 0x1464 JUMPI PUSH2 0x1463 PUSH2 0x434C JUMP JUMPDEST JUMPDEST PUSH1 0x20 MUL ADD DUP2 SWAP1 MSTORE POP PUSH1 0x40 MLOAD DUP1 PUSH1 0x60 ADD PUSH1 0x40 MSTORE DUP1 PUSH1 0x28 DUP2 MSTORE PUSH1 0x20 ADD PUSH2 0x4AE4 PUSH1 0x28 SWAP2 CODECOPY DUP2 PUSH1 0x8 PUSH1 0x13 DUP2 LT PUSH2 0x1499 JUMPI PUSH2 0x1498 PUSH2 0x434C JUMP JUMPDEST JUMPDEST PUSH1 0x20 MUL ADD DUP2 SWAP1 MSTORE POP PUSH1 0x40 MLOAD DUP1 PUSH1 0x40 ADD PUSH1 0x40 MSTORE DUP1 PUSH1 0xC DUP2 MSTORE PUSH1 0x20 ADD PUSH32 0x736565206D617020696E3A200000000000000000000000000000000000000000 DUP2 MSTORE POP DUP2 PUSH1 0x9 PUSH1 0x13 DUP2 LT PUSH2 0x14EB JUMPI PUSH2 0x14EA PUSH2 0x434C JUMP JUMPDEST JUMPDEST PUSH1 0x20 MUL ADD DUP2 SWAP1 MSTORE POP PUSH1 0x40 MLOAD DUP1 PUSH1 0x60 ADD PUSH1 0x40 MSTORE DUP1 PUSH1 0x29 DUP2 MSTORE PUSH1 0x20 ADD PUSH2 0x4B0C PUSH1 0x29 SWAP2 CODECOPY DUP2 PUSH1 0xA PUSH1 0x13 DUP2 LT PUSH2 0x1520 JUMPI PUSH2 0x151F PUSH2 0x434C JUMP JUMPDEST JUMPDEST PUSH1 0x20 MUL ADD DUP2 SWAP1 MSTORE POP PUSH1 0xD DUP1 SLOAD PUSH2 0x1535 SWAP1 PUSH2 0x41B3 JUMP JUMPDEST DUP1 PUSH1 0x1F ADD PUSH1 0x20 DUP1 SWAP2 DIV MUL PUSH1 0x20 ADD PUSH1 0x40 MLOAD SWAP1 DUP2 ADD PUSH1 0x40 MSTORE DUP1 SWAP3 SWAP2 SWAP1 DUP2 DUP2 MSTORE PUSH1 0x20 ADD DUP3 DUP1 SLOAD PUSH2 0x1561 SWAP1 PUSH2 0x41B3 JUMP JUMPDEST DUP1 ISZERO PUSH2 0x15AE JUMPI DUP1 PUSH1 0x1F LT PUSH2 0x1583 JUMPI PUSH2 0x100 DUP1 DUP4 SLOAD DIV MUL DUP4 MSTORE SWAP2 PUSH1 0x20 ADD SWAP2 PUSH2 0x15AE JUMP JUMPDEST DUP3 ADD SWAP2 SWAP1 PUSH1 0x0 MSTORE PUSH1 0x20 PUSH1 0x0 KECCAK256 SWAP1 JUMPDEST DUP2 SLOAD DUP2 MSTORE SWAP1 PUSH1 0x1 ADD SWAP1 PUSH1 0x20 ADD DUP1 DUP4 GT PUSH2 0x1591 JUMPI DUP3 SWAP1 SUB PUSH1 0x1F AND DUP3 ADD SWAP2 JUMPDEST POP POP POP POP POP DUP2 PUSH1 0xB PUSH1 0x13 DUP2 LT PUSH2 0x15C7 JUMPI PUSH2 0x15C6 PUSH2 0x434C JUMP JUMPDEST JUMPDEST PUSH1 0x20 MUL ADD DUP2 SWAP1 MSTORE POP PUSH1 0x40 MLOAD DUP1 PUSH1 0x40 ADD PUSH1 0x40 MSTORE DUP1 PUSH1 0xA DUP2 MSTORE PUSH1 0x20 ADD PUSH32 0x26616D703B745F69643D00000000000000000000000000000000000000000000 DUP2 MSTORE POP DUP2 PUSH1 0xC PUSH1 0x13 DUP2 LT PUSH2 0x1619 JUMPI PUSH2 0x1618 PUSH2 0x434C JUMP JUMPDEST JUMPDEST PUSH1 0x20 MUL ADD DUP2 SWAP1 MSTORE POP PUSH2 0x162A DUP4 PUSH2 0x246D JUMP JUMPDEST DUP2 PUSH1 0xD PUSH1 0x13 DUP2 LT PUSH2 0x163E JUMPI PUSH2 0x163D PUSH2 0x434C JUMP JUMPDEST JUMPDEST PUSH1 0x20 MUL ADD DUP2 SWAP1 MSTORE POP PUSH1 0x40 MLOAD DUP1 PUSH1 0x60 ADD PUSH1 0x40 MSTORE DUP1 PUSH1 0x29 DUP2 MSTORE PUSH1 0x20 ADD PUSH2 0x4ABB PUSH1 0x29 SWAP2 CODECOPY DUP2 PUSH1 0xE PUSH1 0x13 DUP2 LT PUSH2 0x1673 JUMPI PUSH2 0x1672 PUSH2 0x434C JUMP JUMPDEST JUMPDEST PUSH1 0x20 MUL ADD DUP2 SWAP1 MSTORE POP PUSH1 0x40 MLOAD DUP1 PUSH1 0x40 ADD PUSH1 0x40 MSTORE DUP1 PUSH1 0xD DUP2 MSTORE PUSH1 0x20 ADD PUSH32 0x6465736372697074696F6E3A2000000000000000000000000000000000000000 DUP2 MSTORE POP DUP2 PUSH1 0xF PUSH1 0x13 DUP2 LT PUSH2 0x16C5 JUMPI PUSH2 0x16C4 PUSH2 0x434C JUMP JUMPDEST JUMPDEST PUSH1 0x20 MUL ADD DUP2 SWAP1 MSTORE POP PUSH1 0x40 MLOAD DUP1 PUSH1 0x60 ADD PUSH1 0x40 MSTORE DUP1 PUSH1 0x29 DUP2 MSTORE PUSH1 0x20 ADD PUSH2 0x4C32 PUSH1 0x29 SWAP2 CODECOPY DUP2 PUSH1 0x10 PUSH1 0x13 DUP2 LT PUSH2 0x16FA JUMPI PUSH2 0x16F9 PUSH2 0x434C JUMP JUMPDEST JUMPDEST PUSH1 0x20 MUL ADD DUP2 SWAP1 MSTORE POP PUSH1 0x11 PUSH1 0x0 DUP5 DUP2 MSTORE PUSH1 0x20 ADD SWAP1 DUP2 MSTORE PUSH1 0x20 ADD PUSH1 0x0 KECCAK256 DUP1 SLOAD PUSH2 0x1720 SWAP1 PUSH2 0x41B3 JUMP JUMPDEST DUP1 PUSH1 0x1F ADD PUSH1 0x20 DUP1 SWAP2 DIV MUL PUSH1 0x20 ADD PUSH1 0x40 MLOAD SWAP1 DUP2 ADD PUSH1 0x40 MSTORE DUP1 SWAP3 SWAP2 SWAP1 DUP2 DUP2 MSTORE PUSH1 0x20 ADD DUP3 DUP1 SLOAD PUSH2 0x174C SWAP1 PUSH2 0x41B3 JUMP JUMPDEST DUP1 ISZERO PUSH2 0x1799 JUMPI DUP1 PUSH1 0x1F LT PUSH2 0x176E JUMPI PUSH2 0x100 DUP1 DUP4 SLOAD DIV MUL DUP4 MSTORE SWAP2 PUSH1 0x20 ADD SWAP2 PUSH2 0x1799 JUMP JUMPDEST DUP3 ADD SWAP2 SWAP1 PUSH1 0x0 MSTORE PUSH1 0x20 PUSH1 0x0 KECCAK256 SWAP1 JUMPDEST DUP2 SLOAD DUP2 MSTORE SWAP1 PUSH1 0x1 ADD SWAP1 PUSH1 0x20 ADD DUP1 DUP4 GT PUSH2 0x177C JUMPI DUP3 SWAP1 SUB PUSH1 0x1F AND DUP3 ADD SWAP2 JUMPDEST POP POP POP POP POP DUP2 PUSH1 0x11 PUSH1 0x13 DUP2 LT PUSH2 0x17B2 JUMPI PUSH2 0x17B1 PUSH2 0x434C JUMP JUMPDEST JUMPDEST PUSH1 0x20 MUL ADD DUP2 SWAP1 MSTORE POP PUSH1 0x40 MLOAD DUP1 PUSH1 0x40 ADD PUSH1 0x40 MSTORE DUP1 PUSH1 0xD DUP2 MSTORE PUSH1 0x20 ADD PUSH32 0x3C2F746578743E3C2F7376673E00000000000000000000000000000000000000 DUP2 MSTORE POP DUP2 PUSH1 0x12 PUSH1 0x13 DUP2 LT PUSH2 0x1804 JUMPI PUSH2 0x1803 PUSH2 0x434C JUMP JUMPDEST JUMPDEST PUSH1 0x20 MUL ADD DUP2 SWAP1 MSTORE POP PUSH1 0x0 DUP2 PUSH1 0x0 PUSH1 0x13 DUP2 LT PUSH2 0x1822 JUMPI PUSH2 0x1821 PUSH2 0x434C JUMP JUMPDEST JUMPDEST PUSH1 0x20 MUL ADD MLOAD DUP3 PUSH1 0x1 PUSH1 0x13 DUP2 LT PUSH2 0x183B JUMPI PUSH2 0x183A PUSH2 0x434C JUMP JUMPDEST JUMPDEST PUSH1 0x20 MUL ADD MLOAD DUP4 PUSH1 0x2 PUSH1 0x13 DUP2 LT PUSH2 0x1854 JUMPI PUSH2 0x1853 PUSH2 0x434C JUMP JUMPDEST JUMPDEST PUSH1 0x20 MUL ADD MLOAD DUP5 PUSH1 0x3 PUSH1 0x13 DUP2 LT PUSH2 0x186D JUMPI PUSH2 0x186C PUSH2 0x434C JUMP JUMPDEST JUMPDEST PUSH1 0x20 MUL ADD MLOAD DUP6 PUSH1 0x4 PUSH1 0x13 DUP2 LT PUSH2 0x1886 JUMPI PUSH2 0x1885 PUSH2 0x434C JUMP JUMPDEST JUMPDEST PUSH1 0x20 MUL ADD MLOAD DUP7 PUSH1 0x5 PUSH1 0x13 DUP2 LT PUSH2 0x189F JUMPI PUSH2 0x189E PUSH2 0x434C JUMP JUMPDEST JUMPDEST PUSH1 0x20 MUL ADD MLOAD DUP8 PUSH1 0x6 PUSH1 0x13 DUP2 LT PUSH2 0x18B8 JUMPI PUSH2 0x18B7 PUSH2 0x434C JUMP JUMPDEST JUMPDEST PUSH1 0x20 MUL ADD MLOAD DUP9 PUSH1 0x7 PUSH1 0x13 DUP2 LT PUSH2 0x18D1 JUMPI PUSH2 0x18D0 PUSH2 0x434C JUMP JUMPDEST JUMPDEST PUSH1 0x20 MUL ADD MLOAD PUSH1 0x40 MLOAD PUSH1 0x20 ADD PUSH2 0x18ED SWAP9 SWAP8 SWAP7 SWAP6 SWAP5 SWAP4 SWAP3 SWAP2 SWAP1 PUSH2 0x3A32 JUMP JUMPDEST PUSH1 0x40 MLOAD PUSH1 0x20 DUP2 DUP4 SUB SUB DUP2 MSTORE SWAP1 PUSH1 0x40 MSTORE SWAP1 POP DUP1 DUP3 PUSH1 0x8 PUSH1 0x13 DUP2 LT PUSH2 0x1913 JUMPI PUSH2 0x1912 PUSH2 0x434C JUMP JUMPDEST JUMPDEST PUSH1 0x20 MUL ADD MLOAD DUP4 PUSH1 0x9 PUSH1 0x13 DUP2 LT PUSH2 0x192C JUMPI PUSH2 0x192B PUSH2 0x434C JUMP JUMPDEST JUMPDEST PUSH1 0x20 MUL ADD MLOAD DUP5 PUSH1 0xA PUSH1 0x13 DUP2 LT PUSH2 0x1945 JUMPI PUSH2 0x1944 PUSH2 0x434C JUMP JUMPDEST JUMPDEST PUSH1 0x20 MUL ADD MLOAD DUP6 PUSH1 0xB PUSH1 0x13 DUP2 LT PUSH2 0x195E JUMPI PUSH2 0x195D PUSH2 0x434C JUMP JUMPDEST JUMPDEST PUSH1 0x20 MUL ADD MLOAD DUP7 PUSH1 0xC PUSH1 0x13 DUP2 LT PUSH2 0x1977 JUMPI PUSH2 0x1976 PUSH2 0x434C JUMP JUMPDEST JUMPDEST PUSH1 0x20 MUL ADD MLOAD DUP8 PUSH1 0xD PUSH1 0x13 DUP2 LT PUSH2 0x1990 JUMPI PUSH2 0x198F PUSH2 0x434C JUMP JUMPDEST JUMPDEST PUSH1 0x20 MUL ADD MLOAD DUP9 PUSH1 0xE PUSH1 0x13 DUP2 LT PUSH2 0x19A9 JUMPI PUSH2 0x19A8 PUSH2 0x434C JUMP JUMPDEST JUMPDEST PUSH1 0x20 MUL ADD MLOAD DUP10 PUSH1 0xF PUSH1 0x13 DUP2 LT PUSH2 0x19C2 JUMPI PUSH2 0x19C1 PUSH2 0x434C JUMP JUMPDEST JUMPDEST PUSH1 0x20 MUL ADD MLOAD PUSH1 0x40 MLOAD PUSH1 0x20 ADD PUSH2 0x19DF SWAP10 SWAP9 SWAP8 SWAP7 SWAP6 SWAP5 SWAP4 SWAP3 SWAP2 SWAP1 PUSH2 0x3AA4 JUMP JUMPDEST PUSH1 0x40 MLOAD PUSH1 0x20 DUP2 DUP4 SUB SUB DUP2 MSTORE SWAP1 PUSH1 0x40 MSTORE SWAP1 POP DUP1 DUP3 PUSH1 0x10 PUSH1 0x13 DUP2 LT PUSH2 0x1A05 JUMPI PUSH2 0x1A04 PUSH2 0x434C JUMP JUMPDEST JUMPDEST PUSH1 0x20 MUL ADD MLOAD DUP4 PUSH1 0x11 PUSH1 0x13 DUP2 LT PUSH2 0x1A1E JUMPI PUSH2 0x1A1D PUSH2 0x434C JUMP JUMPDEST JUMPDEST PUSH1 0x20 MUL ADD MLOAD DUP5 PUSH1 0x12 PUSH1 0x13 DUP2 LT PUSH2 0x1A37 JUMPI PUSH2 0x1A36 PUSH2 0x434C JUMP JUMPDEST JUMPDEST PUSH1 0x20 MUL ADD MLOAD PUSH1 0x40 MLOAD PUSH1 0x20 ADD PUSH2 0x1A4F SWAP5 SWAP4 SWAP3 SWAP2 SWAP1 PUSH2 0x39F4 JUMP JUMPDEST PUSH1 0x40 MLOAD PUSH1 0x20 DUP2 DUP4 SUB SUB DUP2 MSTORE SWAP1 PUSH1 0x40 MSTORE SWAP1 POP PUSH1 0x0 PUSH2 0x1AD1 PUSH2 0x1A6E DUP7 PUSH2 0x246D JUMP JUMPDEST PUSH1 0xD PUSH2 0x1A79 DUP9 PUSH2 0x246D JUMP JUMPDEST PUSH1 0x12 PUSH1 0x0 DUP11 DUP2 MSTORE PUSH1 0x20 ADD SWAP1 DUP2 MSTORE PUSH1 0x20 ADD PUSH1 0x0 KECCAK256 PUSH1 0x11 PUSH1 0x0 DUP12 DUP2 MSTORE PUSH1 0x20 ADD SWAP1 DUP2 MSTORE PUSH1 0x20 ADD PUSH1 0x0 KECCAK256 PUSH2 0x1AA8 DUP9 PUSH2 0x25CE JUMP JUMPDEST PUSH1 0x40 MLOAD PUSH1 0x20 ADD PUSH2 0x1ABD SWAP7 SWAP6 SWAP5 SWAP4 SWAP3 SWAP2 SWAP1 PUSH2 0x3B23 JUMP JUMPDEST PUSH1 0x40 MLOAD PUSH1 0x20 DUP2 DUP4 SUB SUB DUP2 MSTORE SWAP1 PUSH1 0x40 MSTORE PUSH2 0x25CE JUMP JUMPDEST SWAP1 POP DUP1 PUSH1 0x40 MLOAD PUSH1 0x20 ADD PUSH2 0x1AE4 SWAP2 SWAP1 PUSH2 0x3BC8 JUMP JUMPDEST PUSH1 0x40 MLOAD PUSH1 0x20 DUP2 DUP4 SUB SUB DUP2 MSTORE SWAP1 PUSH1 0x40 MSTORE SWAP2 POP DUP2 SWAP4 POP POP POP POP SWAP2 SWAP1 POP JUMP JUMPDEST PUSH1 0x11 PUSH1 0x20 MSTORE DUP1 PUSH1 0x0 MSTORE PUSH1 0x40 PUSH1 0x0 KECCAK256 PUSH1 0x0 SWAP2 POP SWAP1 POP DUP1 SLOAD PUSH2 0x1B1F SWAP1 PUSH2 0x41B3 JUMP JUMPDEST DUP1 PUSH1 0x1F ADD PUSH1 0x20 DUP1 SWAP2 DIV MUL PUSH1 0x20 ADD PUSH1 0x40 MLOAD SWAP1 DUP2 ADD PUSH1 0x40 MSTORE DUP1 SWAP3 SWAP2 SWAP1 DUP2 DUP2 MSTORE PUSH1 0x20 ADD DUP3 DUP1 SLOAD PUSH2 0x1B4B SWAP1 PUSH2 0x41B3 JUMP JUMPDEST DUP1 ISZERO PUSH2 0x1B98 JUMPI DUP1 PUSH1 0x1F LT PUSH2 0x1B6D JUMPI PUSH2 0x100 DUP1 DUP4 SLOAD DIV MUL DUP4 MSTORE SWAP2 PUSH1 0x20 ADD SWAP2 PUSH2 0x1B98 JUMP JUMPDEST DUP3 ADD SWAP2 SWAP1 PUSH1 0x0 MSTORE PUSH1 0x20 PUSH1 0x0 KECCAK256 SWAP1 JUMPDEST DUP2 SLOAD DUP2 MSTORE SWAP1 PUSH1 0x1 ADD SWAP1 PUSH1 0x20 ADD DUP1 DUP4 GT PUSH2 0x1B7B JUMPI DUP3 SWAP1 SUB PUSH1 0x1F AND DUP3 ADD SWAP2 JUMPDEST POP POP POP POP POP DUP2 JUMP JUMPDEST PUSH1 0x12 PUSH1 0x20 MSTORE DUP1 PUSH1 0x0 MSTORE PUSH1 0x40 PUSH1 0x0 KECCAK256 PUSH1 0x0 SWAP2 POP SWAP1 POP DUP1 SLOAD PUSH2 0x1BBF SWAP1 PUSH2 0x41B3 JUMP JUMPDEST DUP1 PUSH1 0x1F ADD PUSH1 0x20 DUP1 SWAP2 DIV MUL PUSH1 0x20 ADD PUSH1 0x40 MLOAD SWAP1 DUP2 ADD PUSH1 0x40 MSTORE DUP1 SWAP3 SWAP2 SWAP1 DUP2 DUP2 MSTORE PUSH1 0x20 ADD DUP3 DUP1 SLOAD PUSH2 0x1BEB SWAP1 PUSH2 0x41B3 JUMP JUMPDEST DUP1 ISZERO PUSH2 0x1C38 JUMPI DUP1 PUSH1 0x1F LT PUSH2 0x1C0D JUMPI PUSH2 0x100 DUP1 DUP4 SLOAD DIV MUL DUP4 MSTORE SWAP2 PUSH1 0x20 ADD SWAP2 PUSH2 0x1C38 JUMP JUMPDEST DUP3 ADD SWAP2 SWAP1 PUSH1 0x0 MSTORE PUSH1 0x20 PUSH1 0x0 KECCAK256 SWAP1 JUMPDEST DUP2 SLOAD DUP2 MSTORE SWAP1 PUSH1 0x1 ADD SWAP1 PUSH1 0x20 ADD DUP1 DUP4 GT PUSH2 0x1C1B JUMPI DUP3 SWAP1 SUB PUSH1 0x1F AND DUP3 ADD SWAP2 JUMPDEST POP POP POP POP POP DUP2 JUMP JUMPDEST PUSH1 0x0 PUSH1 0x5 PUSH1 0x0 DUP5 PUSH20 0xFFFFFFFFFFFFFFFFFFFFFFFFFFFFFFFFFFFFFFFF AND PUSH20 0xFFFFFFFFFFFFFFFFFFFFFFFFFFFFFFFFFFFFFFFF AND DUP2 MSTORE PUSH1 0x20 ADD SWAP1 DUP2 MSTORE PUSH1 0x20 ADD PUSH1 0x0 KECCAK256 PUSH1 0x0 DUP4 PUSH20 0xFFFFFFFFFFFFFFFFFFFFFFFFFFFFFFFFFFFFFFFF AND PUSH20 0xFFFFFFFFFFFFFFFFFFFFFFFFFFFFFFFFFFFFFFFF AND DUP2 MSTORE PUSH1 0x20 ADD SWAP1 DUP2 MSTORE PUSH1 0x20 ADD PUSH1 0x0 KECCAK256 PUSH1 0x0 SWAP1 SLOAD SWAP1 PUSH2 0x100 EXP SWAP1 DIV PUSH1 0xFF AND SWAP1 POP SWAP3 SWAP2 POP POP JUMP JUMPDEST PUSH1 0x10 PUSH1 0x20 MSTORE DUP1 PUSH1 0x0 MSTORE PUSH1 0x40 PUSH1 0x0 KECCAK256 PUSH1 0x0 SWAP2 POP SWAP1 POP SLOAD DUP2 JUMP JUMPDEST PUSH2 0x1CF4 PUSH2 0x1F32 JUMP JUMPDEST PUSH20 0xFFFFFFFFFFFFFFFFFFFFFFFFFFFFFFFFFFFFFFFF AND PUSH2 0x1D12 PUSH2 0xF3D JUMP JUMPDEST PUSH20 0xFFFFFFFFFFFFFFFFFFFFFFFFFFFFFFFFFFFFFFFF AND EQ PUSH2 0x1D68 JUMPI PUSH1 0x40 MLOAD PUSH32 0x8C379A000000000000000000000000000000000000000000000000000000000 DUP2 MSTORE PUSH1 0x4 ADD PUSH2 0x1D5F SWAP1 PUSH2 0x3E2E JUMP JUMPDEST PUSH1 0x40 MLOAD DUP1 SWAP2 SUB SWAP1 REVERT JUMPDEST PUSH1 0x0 PUSH20 0xFFFFFFFFFFFFFFFFFFFFFFFFFFFFFFFFFFFFFFFF AND DUP2 PUSH20 0xFFFFFFFFFFFFFFFFFFFFFFFFFFFFFFFFFFFFFFFF AND EQ ISZERO PUSH2 0x1DD8 JUMPI PUSH1 0x40 MLOAD PUSH32 0x8C379A000000000000000000000000000000000000000000000000000000000 DUP2 MSTORE PUSH1 0x4 ADD PUSH2 0x1DCF SWAP1 PUSH2 0x3CCE JUMP JUMPDEST PUSH1 0x40 MLOAD DUP1 SWAP2 SUB SWAP1 REVERT JUMPDEST PUSH2 0x1DE1 DUP2 PUSH2 0x234B JUMP JUMPDEST POP JUMP JUMPDEST PUSH1 0x0 PUSH32 0x80AC58CD00000000000000000000000000000000000000000000000000000000 PUSH28 0xFFFFFFFFFFFFFFFFFFFFFFFFFFFFFFFFFFFFFFFFFFFFFFFFFFFFFFFF NOT AND DUP3 PUSH28 0xFFFFFFFFFFFFFFFFFFFFFFFFFFFFFFFFFFFFFFFFFFFFFFFFFFFFFFFF NOT AND EQ DUP1 PUSH2 0x1EAF JUMPI POP PUSH32 0x5B5E139F00000000000000000000000000000000000000000000000000000000 PUSH28 0xFFFFFFFFFFFFFFFFFFFFFFFFFFFFFFFFFFFFFFFFFFFFFFFFFFFFFFFF NOT AND DUP3 PUSH28 0xFFFFFFFFFFFFFFFFFFFFFFFFFFFFFFFFFFFFFFFFFFFFFFFFFFFFFFFF NOT AND EQ JUMPDEST DUP1 PUSH2 0x1EBF JUMPI POP PUSH2 0x1EBE DUP3 PUSH2 0x2766 JUMP JUMPDEST JUMPDEST SWAP1 POP SWAP2 SWAP1 POP JUMP JUMPDEST PUSH1 0x0 DUP1 PUSH20 0xFFFFFFFFFFFFFFFFFFFFFFFFFFFFFFFFFFFFFFFF AND PUSH1 0x2 PUSH1 0x0 DUP5 DUP2 MSTORE PUSH1 0x20 ADD SWAP1 DUP2 MSTORE PUSH1 0x20 ADD PUSH1 0x0 KECCAK256 PUSH1 0x0 SWAP1 SLOAD SWAP1 PUSH2 0x100 EXP SWAP1 DIV PUSH20 0xFFFFFFFFFFFFFFFFFFFFFFFFFFFFFFFFFFFFFFFF AND PUSH20 0xFFFFFFFFFFFFFFFFFFFFFFFFFFFFFFFFFFFFFFFF AND EQ ISZERO SWAP1 POP SWAP2 SWAP1 POP JUMP JUMPDEST PUSH1 0x0 CALLER SWAP1 POP SWAP1 JUMP JUMPDEST DUP2 PUSH1 0x4 PUSH1 0x0 DUP4 DUP2 MSTORE PUSH1 0x20 ADD SWAP1 DUP2 MSTORE PUSH1 0x20 ADD PUSH1 0x0 KECCAK256 PUSH1 0x0 PUSH2 0x100 EXP DUP2 SLOAD DUP2 PUSH20 0xFFFFFFFFFFFFFFFFFFFFFFFFFFFFFFFFFFFFFFFF MUL NOT AND SWAP1 DUP4 PUSH20 0xFFFFFFFFFFFFFFFFFFFFFFFFFFFFFFFFFFFFFFFF AND MUL OR SWAP1 SSTORE POP DUP1 DUP3 PUSH20 0xFFFFFFFFFFFFFFFFFFFFFFFFFFFFFFFFFFFFFFFF AND PUSH2 0x1FAD DUP4 PUSH2 0xD4B JUMP JUMPDEST PUSH20 0xFFFFFFFFFFFFFFFFFFFFFFFFFFFFFFFFFFFFFFFF AND PUSH32 0x8C5BE1E5EBEC7D5BD14F71427D1E84F3DD0314C0F7B2291E5B200AC8C7C3B925 PUSH1 0x40 MLOAD PUSH1 0x40 MLOAD DUP1 SWAP2 SUB SWAP1 LOG4 POP POP JUMP JUMPDEST PUSH1 0x0 PUSH2 0x1FFE DUP3 PUSH2 0x1EC6 JUMP JUMPDEST PUSH2 0x203D JUMPI PUSH1 0x40 MLOAD PUSH32 0x8C379A000000000000000000000000000000000000000000000000000000000 DUP2 MSTORE PUSH1 0x4 ADD PUSH2 0x2034 SWAP1 PUSH2 0x3D4E JUMP JUMPDEST PUSH1 0x40 MLOAD DUP1 SWAP2 SUB SWAP1 REVERT JUMPDEST PUSH1 0x0 PUSH2 0x2048 DUP4 PUSH2 0xD4B JUMP JUMPDEST SWAP1 POP DUP1 PUSH20 0xFFFFFFFFFFFFFFFFFFFFFFFFFFFFFFFFFFFFFFFF AND DUP5 PUSH20 0xFFFFFFFFFFFFFFFFFFFFFFFFFFFFFFFFFFFFFFFF AND EQ DUP1 PUSH2 0x20B7 JUMPI POP DUP4 PUSH20 0xFFFFFFFFFFFFFFFFFFFFFFFFFFFFFFFFFFFFFFFF AND PUSH2 0x209F DUP5 PUSH2 0x686 JUMP JUMPDEST PUSH20 0xFFFFFFFFFFFFFFFFFFFFFFFFFFFFFFFFFFFFFFFF AND EQ JUMPDEST DUP1 PUSH2 0x20C8 JUMPI POP PUSH2 0x20C7 DUP2 DUP6 PUSH2 0x1C40 JUMP JUMPDEST JUMPDEST SWAP2 POP POP SWAP3 SWAP2 POP POP JUMP JUMPDEST DUP3 PUSH20 0xFFFFFFFFFFFFFFFFFFFFFFFFFFFFFFFFFFFFFFFF AND PUSH2 0x20F1 DUP3 PUSH2 0xD4B JUMP JUMPDEST PUSH20 0xFFFFFFFFFFFFFFFFFFFFFFFFFFFFFFFFFFFFFFFF AND EQ PUSH2 0x2147 JUMPI PUSH1 0x40 MLOAD PUSH32 0x8C379A000000000000000000000000000000000000000000000000000000000 DUP2 MSTORE PUSH1 0x4 ADD PUSH2 0x213E SWAP1 PUSH2 0x3E4E JUMP JUMPDEST PUSH1 0x40 MLOAD DUP1 SWAP2 SUB SWAP1 REVERT JUMPDEST PUSH1 0x0 PUSH20 0xFFFFFFFFFFFFFFFFFFFFFFFFFFFFFFFFFFFFFFFF AND DUP3 PUSH20 0xFFFFFFFFFFFFFFFFFFFFFFFFFFFFFFFFFFFFFFFF AND EQ ISZERO PUSH2 0x21B7 JUMPI PUSH1 0x40 MLOAD PUSH32 0x8C379A000000000000000000000000000000000000000000000000000000000 DUP2 MSTORE PUSH1 0x4 ADD PUSH2 0x21AE SWAP1 PUSH2 0x3D0E JUMP JUMPDEST PUSH1 0x40 MLOAD DUP1 SWAP2 SUB SWAP1 REVERT JUMPDEST PUSH2 0x21C2 DUP4 DUP4 DUP4 PUSH2 0x27D0 JUMP JUMPDEST PUSH2 0x21CD PUSH1 0x0 DUP3 PUSH2 0x1F3A JUMP JUMPDEST PUSH1 0x1 PUSH1 0x3 PUSH1 0x0 DUP6 PUSH20 0xFFFFFFFFFFFFFFFFFFFFFFFFFFFFFFFFFFFFFFFF AND PUSH20 0xFFFFFFFFFFFFFFFFFFFFFFFFFFFFFFFFFFFFFFFF AND DUP2 MSTORE PUSH1 0x20 ADD SWAP1 DUP2 MSTORE PUSH1 0x20 ADD PUSH1 0x0 KECCAK256 PUSH1 0x0 DUP3 DUP3 SLOAD PUSH2 0x221D SWAP2 SWAP1 PUSH2 0x40C9 JUMP JUMPDEST SWAP3 POP POP DUP2 SWAP1 SSTORE POP PUSH1 0x1 PUSH1 0x3 PUSH1 0x0 DUP5 PUSH20 0xFFFFFFFFFFFFFFFFFFFFFFFFFFFFFFFFFFFFFFFF AND PUSH20 0xFFFFFFFFFFFFFFFFFFFFFFFFFFFFFFFFFFFFFFFF AND DUP2 MSTORE PUSH1 0x20 ADD SWAP1 DUP2 MSTORE PUSH1 0x20 ADD PUSH1 0x0 KECCAK256 PUSH1 0x0 DUP3 DUP3 SLOAD PUSH2 0x2274 SWAP2 SWAP1 PUSH2 0x3FE8 JUMP JUMPDEST SWAP3 POP POP DUP2 SWAP1 SSTORE POP DUP2 PUSH1 0x2 PUSH1 0x0 DUP4 DUP2 MSTORE PUSH1 0x20 ADD SWAP1 DUP2 MSTORE PUSH1 0x20 ADD PUSH1 0x0 KECCAK256 PUSH1 0x0 PUSH2 0x100 EXP DUP2 SLOAD DUP2 PUSH20 0xFFFFFFFFFFFFFFFFFFFFFFFFFFFFFFFFFFFFFFFF MUL NOT AND SWAP1 DUP4 PUSH20 0xFFFFFFFFFFFFFFFFFFFFFFFFFFFFFFFFFFFFFFFF AND MUL OR SWAP1 SSTORE POP DUP1 DUP3 PUSH20 0xFFFFFFFFFFFFFFFFFFFFFFFFFFFFFFFFFFFFFFFF AND DUP5 PUSH20 0xFFFFFFFFFFFFFFFFFFFFFFFFFFFFFFFFFFFFFFFF AND PUSH32 0xDDF252AD1BE2C89B69C2B068FC378DAA952BA7F163C4A11628F55A4DF523B3EF PUSH1 0x40 MLOAD PUSH1 0x40 MLOAD DUP1 SWAP2 SUB SWAP1 LOG4 POP POP POP JUMP JUMPDEST PUSH2 0x2347 DUP3 DUP3 PUSH1 0x40 MLOAD DUP1 PUSH1 0x20 ADD PUSH1 0x40 MSTORE DUP1 PUSH1 0x0 DUP2 MSTORE POP PUSH2 0x28E4 JUMP JUMPDEST POP POP JUMP JUMPDEST PUSH1 0x0 PUSH1 0xB PUSH1 0x0 SWAP1 SLOAD SWAP1 PUSH2 0x100 EXP SWAP1 DIV PUSH20 0xFFFFFFFFFFFFFFFFFFFFFFFFFFFFFFFFFFFFFFFF AND SWAP1 POP DUP2 PUSH1 0xB PUSH1 0x0 PUSH2 0x100 EXP DUP2 SLOAD DUP2 PUSH20 0xFFFFFFFFFFFFFFFFFFFFFFFFFFFFFFFFFFFFFFFF MUL NOT AND SWAP1 DUP4 PUSH20 0xFFFFFFFFFFFFFFFFFFFFFFFFFFFFFFFFFFFFFFFF AND MUL OR SWAP1 SSTORE POP DUP2 PUSH20 0xFFFFFFFFFFFFFFFFFFFFFFFFFFFFFFFFFFFFFFFF AND DUP2 PUSH20 0xFFFFFFFFFFFFFFFFFFFFFFFFFFFFFFFFFFFFFFFF AND PUSH32 0x8BE0079C531659141344CD1FD0A4F28419497F9722A3DAAFE3B4186F6B6457E0 PUSH1 0x40 MLOAD PUSH1 0x40 MLOAD DUP1 SWAP2 SUB SWAP1 LOG3 POP POP JUMP JUMPDEST PUSH2 0x241C DUP5 DUP5 DUP5 PUSH2 0x20D1 JUMP JUMPDEST PUSH2 0x2428 DUP5 DUP5 DUP5 DUP5 PUSH2 0x293F JUMP JUMPDEST PUSH2 0x2467 JUMPI PUSH1 0x40 MLOAD PUSH32 0x8C379A000000000000000000000000000000000000000000000000000000000 DUP2 MSTORE PUSH1 0x4 ADD PUSH2 0x245E SWAP1 PUSH2 0x3CAE JUMP JUMPDEST PUSH1 0x40 MLOAD DUP1 SWAP2 SUB SWAP1 REVERT JUMPDEST POP POP POP POP JUMP JUMPDEST PUSH1 0x60 PUSH1 0x0 DUP3 EQ ISZERO PUSH2 0x24B5 JUMPI PUSH1 0x40 MLOAD DUP1 PUSH1 0x40 ADD PUSH1 0x40 MSTORE DUP1 PUSH1 0x1 DUP2 MSTORE PUSH1 0x20 ADD PUSH32 0x3000000000000000000000000000000000000000000000000000000000000000 DUP2 MSTORE POP SWAP1 POP PUSH2 0x25C9 JUMP JUMPDEST PUSH1 0x0 DUP3 SWAP1 POP PUSH1 0x0 JUMPDEST PUSH1 0x0 DUP3 EQ PUSH2 0x24E7 JUMPI DUP1 DUP1 PUSH2 0x24D0 SWAP1 PUSH2 0x4216 JUMP JUMPDEST SWAP2 POP POP PUSH1 0xA DUP3 PUSH2 0x24E0 SWAP2 SWAP1 PUSH2 0x403E JUMP JUMPDEST SWAP2 POP PUSH2 0x24BD JUMP JUMPDEST PUSH1 0x0 DUP2 PUSH8 0xFFFFFFFFFFFFFFFF DUP2 GT ISZERO PUSH2 0x2503 JUMPI PUSH2 0x2502 PUSH2 0x437B JUMP JUMPDEST JUMPDEST PUSH1 0x40 MLOAD SWAP1 DUP1 DUP3 MSTORE DUP1 PUSH1 0x1F ADD PUSH1 0x1F NOT AND PUSH1 0x20 ADD DUP3 ADD PUSH1 0x40 MSTORE DUP1 ISZERO PUSH2 0x2535 JUMPI DUP2 PUSH1 0x20 ADD PUSH1 0x1 DUP3 MUL DUP1 CALLDATASIZE DUP4 CALLDATACOPY DUP1 DUP3 ADD SWAP2 POP POP SWAP1 POP JUMPDEST POP SWAP1 POP JUMPDEST PUSH1 0x0 DUP6 EQ PUSH2 0x25C2 JUMPI PUSH1 0x1 DUP3 PUSH2 0x254E SWAP2 SWAP1 PUSH2 0x40C9 JUMP JUMPDEST SWAP2 POP PUSH1 0xA DUP6 PUSH2 0x255D SWAP2 SWAP1 PUSH2 0x425F JUMP JUMPDEST PUSH1 0x30 PUSH2 0x2569 SWAP2 SWAP1 PUSH2 0x3FE8 JUMP JUMPDEST PUSH1 0xF8 SHL DUP2 DUP4 DUP2 MLOAD DUP2 LT PUSH2 0x257F JUMPI PUSH2 0x257E PUSH2 0x434C JUMP JUMPDEST JUMPDEST PUSH1 0x20 ADD ADD SWAP1 PUSH31 0xFFFFFFFFFFFFFFFFFFFFFFFFFFFFFFFFFFFFFFFFFFFFFFFFFFFFFFFFFFFFFF NOT AND SWAP1 DUP2 PUSH1 0x0 BYTE SWAP1 MSTORE8 POP PUSH1 0xA DUP6 PUSH2 0x25BB SWAP2 SWAP1 PUSH2 0x403E JUMP JUMPDEST SWAP5 POP PUSH2 0x2539 JUMP JUMPDEST DUP1 SWAP4 POP POP POP POP JUMPDEST SWAP2 SWAP1 POP JUMP JUMPDEST PUSH1 0x60 PUSH1 0x0 DUP3 MLOAD SWAP1 POP PUSH1 0x0 DUP2 EQ ISZERO PUSH2 0x25F7 JUMPI PUSH1 0x40 MLOAD DUP1 PUSH1 0x20 ADD PUSH1 0x40 MSTORE DUP1 PUSH1 0x0 DUP2 MSTORE POP SWAP2 POP POP PUSH2 0x2761 JUMP JUMPDEST PUSH1 0x0 PUSH1 0x3 PUSH1 0x2 DUP4 PUSH2 0x2608 SWAP2 SWAP1 PUSH2 0x3FE8 JUMP JUMPDEST PUSH2 0x2612 SWAP2 SWAP1 PUSH2 0x403E JUMP JUMPDEST PUSH1 0x4 PUSH2 0x261E SWAP2 SWAP1 PUSH2 0x406F JUMP JUMPDEST SWAP1 POP PUSH1 0x0 PUSH1 0x20 DUP3 PUSH2 0x262F SWAP2 SWAP1 PUSH2 0x3FE8 JUMP JUMPDEST PUSH8 0xFFFFFFFFFFFFFFFF DUP2 GT ISZERO PUSH2 0x2648 JUMPI PUSH2 0x2647 PUSH2 0x437B JUMP JUMPDEST JUMPDEST PUSH1 0x40 MLOAD SWAP1 DUP1 DUP3 MSTORE DUP1 PUSH1 0x1F ADD PUSH1 0x1F NOT AND PUSH1 0x20 ADD DUP3 ADD PUSH1 0x40 MSTORE DUP1 ISZERO PUSH2 0x267A JUMPI DUP2 PUSH1 0x20 ADD PUSH1 0x1 DUP3 MUL DUP1 CALLDATASIZE DUP4 CALLDATACOPY DUP1 DUP3 ADD SWAP2 POP POP SWAP1 POP JUMPDEST POP SWAP1 POP PUSH1 0x0 PUSH1 0x40 MLOAD DUP1 PUSH1 0x60 ADD PUSH1 0x40 MSTORE DUP1 PUSH1 0x40 DUP2 MSTORE PUSH1 0x20 ADD PUSH2 0x4C5B PUSH1 0x40 SWAP2 CODECOPY SWAP1 POP PUSH1 0x1 DUP2 ADD PUSH1 0x20 DUP4 ADD PUSH1 0x0 JUMPDEST DUP7 DUP2 LT ISZERO PUSH2 0x271E JUMPI PUSH1 0x3 DUP2 ADD SWAP1 POP PUSH3 0xFFFFFF DUP2 DUP11 ADD MLOAD AND PUSH1 0x3F DUP2 PUSH1 0x12 SHR AND DUP5 ADD MLOAD DUP1 PUSH1 0x8 SHL SWAP1 POP PUSH1 0xFF PUSH1 0x3F DUP4 PUSH1 0xC SHR AND DUP7 ADD MLOAD AND DUP2 ADD SWAP1 POP DUP1 PUSH1 0x8 SHL SWAP1 POP PUSH1 0xFF PUSH1 0x3F DUP4 PUSH1 0x6 SHR AND DUP7 ADD MLOAD AND DUP2 ADD SWAP1 POP DUP1 PUSH1 0x8 SHL SWAP1 POP PUSH1 0xFF PUSH1 0x3F DUP4 AND DUP7 ADD MLOAD AND DUP2 ADD SWAP1 POP DUP1 PUSH1 0xE0 SHL SWAP1 POP DUP1 DUP5 MSTORE PUSH1 0x4 DUP5 ADD SWAP4 POP POP POP PUSH2 0x26A5 JUMP JUMPDEST POP PUSH1 0x3 DUP7 MOD PUSH1 0x1 DUP2 EQ PUSH2 0x2738 JUMPI PUSH1 0x2 DUP2 EQ PUSH2 0x2748 JUMPI PUSH2 0x2753 JUMP JUMPDEST PUSH2 0x3D3D PUSH1 0xF0 SHL PUSH1 0x2 DUP4 SUB MSTORE PUSH2 0x2753 JUMP JUMPDEST PUSH1 0x3D PUSH1 0xF8 SHL PUSH1 0x1 DUP4 SUB MSTORE JUMPDEST POP DUP5 DUP5 MSTORE POP POP DUP2 SWAP5 POP POP POP POP POP JUMPDEST SWAP2 SWAP1 POP JUMP JUMPDEST PUSH1 0x0 PUSH32 0x1FFC9A700000000000000000000000000000000000000000000000000000000 PUSH28 0xFFFFFFFFFFFFFFFFFFFFFFFFFFFFFFFFFFFFFFFFFFFFFFFFFFFFFFFF NOT AND DUP3 PUSH28 0xFFFFFFFFFFFFFFFFFFFFFFFFFFFFFFFFFFFFFFFFFFFFFFFFFFFFFFFF NOT AND EQ SWAP1 POP SWAP2 SWAP1 POP JUMP JUMPDEST PUSH2 0x27DB DUP4 DUP4 DUP4 PUSH2 0x2AD6 JUMP JUMPDEST PUSH1 0x0 PUSH20 0xFFFFFFFFFFFFFFFFFFFFFFFFFFFFFFFFFFFFFFFF AND DUP4 PUSH20 0xFFFFFFFFFFFFFFFFFFFFFFFFFFFFFFFFFFFFFFFF AND EQ ISZERO PUSH2 0x281E JUMPI PUSH2 0x2819 DUP2 PUSH2 0x2ADB JUMP JUMPDEST PUSH2 0x285D JUMP JUMPDEST DUP2 PUSH20 0xFFFFFFFFFFFFFFFFFFFFFFFFFFFFFFFFFFFFFFFF AND DUP4 PUSH20 0xFFFFFFFFFFFFFFFFFFFFFFFFFFFFFFFFFFFFFFFF AND EQ PUSH2 0x285C JUMPI PUSH2 0x285B DUP4 DUP3 PUSH2 0x2B24 JUMP JUMPDEST JUMPDEST JUMPDEST PUSH1 0x0 PUSH20 0xFFFFFFFFFFFFFFFFFFFFFFFFFFFFFFFFFFFFFFFF AND DUP3 PUSH20 0xFFFFFFFFFFFFFFFFFFFFFFFFFFFFFFFFFFFFFFFF AND EQ ISZERO PUSH2 0x28A0 JUMPI PUSH2 0x289B DUP2 PUSH2 0x2C91 JUMP JUMPDEST PUSH2 0x28DF JUMP JUMPDEST DUP3 PUSH20 0xFFFFFFFFFFFFFFFFFFFFFFFFFFFFFFFFFFFFFFFF AND DUP3 PUSH20 0xFFFFFFFFFFFFFFFFFFFFFFFFFFFFFFFFFFFFFFFF AND EQ PUSH2 0x28DE JUMPI PUSH2 0x28DD DUP3 DUP3 PUSH2 0x2D62 JUMP JUMPDEST JUMPDEST JUMPDEST POP POP POP JUMP JUMPDEST PUSH2 0x28EE DUP4 DUP4 PUSH2 0x2DE1 JUMP JUMPDEST PUSH2 0x28FB PUSH1 0x0 DUP5 DUP5 DUP5 PUSH2 0x293F JUMP JUMPDEST PUSH2 0x293A JUMPI PUSH1 0x40 MLOAD PUSH32 0x8C379A000000000000000000000000000000000000000000000000000000000 DUP2 MSTORE PUSH1 0x4 ADD PUSH2 0x2931 SWAP1 PUSH2 0x3CAE JUMP JUMPDEST PUSH1 0x40 MLOAD DUP1 SWAP2 SUB SWAP1 REVERT JUMPDEST POP POP POP JUMP JUMPDEST PUSH1 0x0 PUSH2 0x2960 DUP5 PUSH20 0xFFFFFFFFFFFFFFFFFFFFFFFFFFFFFFFFFFFFFFFF AND PUSH2 0x2FAF JUMP JUMPDEST ISZERO PUSH2 0x2AC9 JUMPI DUP4 PUSH20 0xFFFFFFFFFFFFFFFFFFFFFFFFFFFFFFFFFFFFFFFF AND PUSH4 0x150B7A02 PUSH2 0x2989 PUSH2 0x1F32 JUMP JUMPDEST DUP8 DUP7 DUP7 PUSH1 0x40 MLOAD DUP6 PUSH4 0xFFFFFFFF AND PUSH1 0xE0 SHL DUP2 MSTORE PUSH1 0x4 ADD PUSH2 0x29AB SWAP5 SWAP4 SWAP3 SWAP2 SWAP1 PUSH2 0x3C05 JUMP JUMPDEST PUSH1 0x20 PUSH1 0x40 MLOAD DUP1 DUP4 SUB DUP2 PUSH1 0x0 DUP8 DUP1 EXTCODESIZE ISZERO DUP1 ISZERO PUSH2 0x29C5 JUMPI PUSH1 0x0 DUP1 REVERT JUMPDEST POP GAS CALL SWAP3 POP POP POP DUP1 ISZERO PUSH2 0x29F6 JUMPI POP PUSH1 0x40 MLOAD RETURNDATASIZE PUSH1 0x1F NOT PUSH1 0x1F DUP3 ADD AND DUP3 ADD DUP1 PUSH1 0x40 MSTORE POP DUP2 ADD SWAP1 PUSH2 0x29F3 SWAP2 SWAP1 PUSH2 0x33C6 JUMP JUMPDEST PUSH1 0x1 JUMPDEST PUSH2 0x2A79 JUMPI RETURNDATASIZE DUP1 PUSH1 0x0 DUP2 EQ PUSH2 0x2A26 JUMPI PUSH1 0x40 MLOAD SWAP2 POP PUSH1 0x1F NOT PUSH1 0x3F RETURNDATASIZE ADD AND DUP3 ADD PUSH1 0x40 MSTORE RETURNDATASIZE DUP3 MSTORE RETURNDATASIZE PUSH1 0x0 PUSH1 0x20 DUP5 ADD RETURNDATACOPY PUSH2 0x2A2B JUMP JUMPDEST PUSH1 0x60 SWAP2 POP JUMPDEST POP PUSH1 0x0 DUP2 MLOAD EQ ISZERO PUSH2 0x2A71 JUMPI PUSH1 0x40 MLOAD PUSH32 0x8C379A000000000000000000000000000000000000000000000000000000000 DUP2 MSTORE PUSH1 0x4 ADD PUSH2 0x2A68 SWAP1 PUSH2 0x3CAE JUMP JUMPDEST PUSH1 0x40 MLOAD DUP1 SWAP2 SUB SWAP1 REVERT JUMPDEST DUP1 MLOAD DUP2 PUSH1 0x20 ADD REVERT JUMPDEST PUSH4 0x150B7A02 PUSH1 0xE0 SHL PUSH28 0xFFFFFFFFFFFFFFFFFFFFFFFFFFFFFFFFFFFFFFFFFFFFFFFFFFFFFFFF NOT AND DUP2 PUSH28 0xFFFFFFFFFFFFFFFFFFFFFFFFFFFFFFFFFFFFFFFFFFFFFFFFFFFFFFFF NOT AND EQ SWAP2 POP POP PUSH2 0x2ACE JUMP JUMPDEST PUSH1 0x1 SWAP1 POP JUMPDEST SWAP5 SWAP4 POP POP POP POP JUMP JUMPDEST POP POP POP JUMP JUMPDEST PUSH1 0x8 DUP1 SLOAD SWAP1 POP PUSH1 0x9 PUSH1 0x0 DUP4 DUP2 MSTORE PUSH1 0x20 ADD SWAP1 DUP2 MSTORE PUSH1 0x20 ADD PUSH1 0x0 KECCAK256 DUP2 SWAP1 SSTORE POP PUSH1 0x8 DUP2 SWAP1 DUP1 PUSH1 0x1 DUP2 SLOAD ADD DUP1 DUP3 SSTORE DUP1 SWAP2 POP POP PUSH1 0x1 SWAP1 SUB SWAP1 PUSH1 0x0 MSTORE PUSH1 0x20 PUSH1 0x0 KECCAK256 ADD PUSH1 0x0 SWAP1 SWAP2 SWAP1 SWAP2 SWAP1 SWAP2 POP SSTORE POP JUMP JUMPDEST PUSH1 0x0 PUSH1 0x1 PUSH2 0x2B31 DUP5 PUSH2 0xDFD JUMP JUMPDEST PUSH2 0x2B3B SWAP2 SWAP1 PUSH2 0x40C9 JUMP JUMPDEST SWAP1 POP PUSH1 0x0 PUSH1 0x7 PUSH1 0x0 DUP5 DUP2 MSTORE PUSH1 0x20 ADD SWAP1 DUP2 MSTORE PUSH1 0x20 ADD PUSH1 0x0 KECCAK256 SLOAD SWAP1 POP DUP2 DUP2 EQ PUSH2 0x2C20 JUMPI PUSH1 0x0 PUSH1 0x6 PUSH1 0x0 DUP7 PUSH20 0xFFFFFFFFFFFFFFFFFFFFFFFFFFFFFFFFFFFFFFFF AND PUSH20 0xFFFFFFFFFFFFFFFFFFFFFFFFFFFFFFFFFFFFFFFF AND DUP2 MSTORE PUSH1 0x20 ADD SWAP1 DUP2 MSTORE PUSH1 0x20 ADD PUSH1 0x0 KECCAK256 PUSH1 0x0 DUP5 DUP2 MSTORE PUSH1 0x20 ADD SWAP1 DUP2 MSTORE PUSH1 0x20 ADD PUSH1 0x0 KECCAK256 SLOAD SWAP1 POP DUP1 PUSH1 0x6 PUSH1 0x0 DUP8 PUSH20 0xFFFFFFFFFFFFFFFFFFFFFFFFFFFFFFFFFFFFFFFF AND PUSH20 0xFFFFFFFFFFFFFFFFFFFFFFFFFFFFFFFFFFFFFFFF AND DUP2 MSTORE PUSH1 0x20 ADD SWAP1 DUP2 MSTORE PUSH1 0x20 ADD PUSH1 0x0 KECCAK256 PUSH1 0x0 DUP5 DUP2 MSTORE PUSH1 0x20 ADD SWAP1 DUP2 MSTORE PUSH1 0x20 ADD PUSH1 0x0 KECCAK256 DUP2 SWAP1 SSTORE POP DUP2 PUSH1 0x7 PUSH1 0x0 DUP4 DUP2 MSTORE PUSH1 0x20 ADD SWAP1 DUP2 MSTORE PUSH1 0x20 ADD PUSH1 0x0 KECCAK256 DUP2 SWAP1 SSTORE POP POP JUMPDEST PUSH1 0x7 PUSH1 0x0 DUP5 DUP2 MSTORE PUSH1 0x20 ADD SWAP1 DUP2 MSTORE PUSH1 0x20 ADD PUSH1 0x0 KECCAK256 PUSH1 0x0 SWAP1 SSTORE PUSH1 0x6 PUSH1 0x0 DUP6 PUSH20 0xFFFFFFFFFFFFFFFFFFFFFFFFFFFFFFFFFFFFFFFF AND PUSH20 0xFFFFFFFFFFFFFFFFFFFFFFFFFFFFFFFFFFFFFFFF AND DUP2 MSTORE PUSH1 0x20 ADD SWAP1 DUP2 MSTORE PUSH1 0x20 ADD PUSH1 0x0 KECCAK256 PUSH1 0x0 DUP4 DUP2 MSTORE PUSH1 0x20 ADD SWAP1 DUP2 MSTORE PUSH1 0x20 ADD PUSH1 0x0 KECCAK256 PUSH1 0x0 SWAP1 SSTORE POP POP POP POP JUMP JUMPDEST PUSH1 0x0 PUSH1 0x1 PUSH1 0x8 DUP1 SLOAD SWAP1 POP PUSH2 0x2CA5 SWAP2 SWAP1 PUSH2 0x40C9 JUMP JUMPDEST SWAP1 POP PUSH1 0x0 PUSH1 0x9 PUSH1 0x0 DUP5 DUP2 MSTORE PUSH1 0x20 ADD SWAP1 DUP2 MSTORE PUSH1 0x20 ADD PUSH1 0x0 KECCAK256 SLOAD SWAP1 POP PUSH1 0x0 PUSH1 0x8 DUP4 DUP2 SLOAD DUP2 LT PUSH2 0x2CD5 JUMPI PUSH2 0x2CD4 PUSH2 0x434C JUMP JUMPDEST JUMPDEST SWAP1 PUSH1 0x0 MSTORE PUSH1 0x20 PUSH1 0x0 KECCAK256 ADD SLOAD SWAP1 POP DUP1 PUSH1 0x8 DUP4 DUP2 SLOAD DUP2 LT PUSH2 0x2CF7 JUMPI PUSH2 0x2CF6 PUSH2 0x434C JUMP JUMPDEST JUMPDEST SWAP1 PUSH1 0x0 MSTORE PUSH1 0x20 PUSH1 0x0 KECCAK256 ADD DUP2 SWAP1 SSTORE POP DUP2 PUSH1 0x9 PUSH1 0x0 DUP4 DUP2 MSTORE PUSH1 0x20 ADD SWAP1 DUP2 MSTORE PUSH1 0x20 ADD PUSH1 0x0 KECCAK256 DUP2 SWAP1 SSTORE POP PUSH1 0x9 PUSH1 0x0 DUP6 DUP2 MSTORE PUSH1 0x20 ADD SWAP1 DUP2 MSTORE PUSH1 0x20 ADD PUSH1 0x0 KECCAK256 PUSH1 0x0 SWAP1 SSTORE PUSH1 0x8 DUP1 SLOAD DUP1 PUSH2 0x2D46 JUMPI PUSH2 0x2D45 PUSH2 0x431D JUMP JUMPDEST JUMPDEST PUSH1 0x1 SWAP1 SUB DUP2 DUP2 SWAP1 PUSH1 0x0 MSTORE PUSH1 0x20 PUSH1 0x0 KECCAK256 ADD PUSH1 0x0 SWAP1 SSTORE SWAP1 SSTORE POP POP POP POP JUMP JUMPDEST PUSH1 0x0 PUSH2 0x2D6D DUP4 PUSH2 0xDFD JUMP JUMPDEST SWAP1 POP DUP2 PUSH1 0x6 PUSH1 0x0 DUP6 PUSH20 0xFFFFFFFFFFFFFFFFFFFFFFFFFFFFFFFFFFFFFFFF AND PUSH20 0xFFFFFFFFFFFFFFFFFFFFFFFFFFFFFFFFFFFFFFFF AND DUP2 MSTORE PUSH1 0x20 ADD SWAP1 DUP2 MSTORE PUSH1 0x20 ADD PUSH1 0x0 KECCAK256 PUSH1 0x0 DUP4 DUP2 MSTORE PUSH1 0x20 ADD SWAP1 DUP2 MSTORE PUSH1 0x20 ADD PUSH1 0x0 KECCAK256 DUP2 SWAP1 SSTORE POP DUP1 PUSH1 0x7 PUSH1 0x0 DUP5 DUP2 MSTORE PUSH1 0x20 ADD SWAP1 DUP2 MSTORE PUSH1 0x20 ADD PUSH1 0x0 KECCAK256 DUP2 SWAP1 SSTORE POP POP POP POP JUMP JUMPDEST PUSH1 0x0 PUSH20 0xFFFFFFFFFFFFFFFFFFFFFFFFFFFFFFFFFFFFFFFF AND DUP3 PUSH20 0xFFFFFFFFFFFFFFFFFFFFFFFFFFFFFFFFFFFFFFFF AND EQ ISZERO PUSH2 0x2E51 JUMPI PUSH1 0x40 MLOAD PUSH32 0x8C379A000000000000000000000000000000000000000000000000000000000 DUP2 MSTORE PUSH1 0x4 ADD PUSH2 0x2E48 SWAP1 PUSH2 0x3DCE JUMP JUMPDEST PUSH1 0x40 MLOAD DUP1 SWAP2 SUB SWAP1 REVERT JUMPDEST PUSH2 0x2E5A DUP2 PUSH2 0x1EC6 JUMP JUMPDEST ISZERO PUSH2 0x2E9A JUMPI PUSH1 0x40 MLOAD PUSH32 0x8C379A000000000000000000000000000000000000000000000000000000000 DUP2 MSTORE PUSH1 0x4 ADD PUSH2 0x2E91 SWAP1 PUSH2 0x3CEE JUMP JUMPDEST PUSH1 0x40 MLOAD DUP1 SWAP2 SUB SWAP1 REVERT JUMPDEST PUSH2 0x2EA6 PUSH1 0x0 DUP4 DUP4 PUSH2 0x27D0 JUMP JUMPDEST PUSH1 0x1 PUSH1 0x3 PUSH1 0x0 DUP5 PUSH20 0xFFFFFFFFFFFFFFFFFFFFFFFFFFFFFFFFFFFFFFFF AND PUSH20 0xFFFFFFFFFFFFFFFFFFFFFFFFFFFFFFFFFFFFFFFF AND DUP2 MSTORE PUSH1 0x20 ADD SWAP1 DUP2 MSTORE PUSH1 0x20 ADD PUSH1 0x0 KECCAK256 PUSH1 0x0 DUP3 DUP3 SLOAD PUSH2 0x2EF6 SWAP2 SWAP1 PUSH2 0x3FE8 JUMP JUMPDEST SWAP3 POP POP DUP2 SWAP1 SSTORE POP DUP2 PUSH1 0x2 PUSH1 0x0 DUP4 DUP2 MSTORE PUSH1 0x20 ADD SWAP1 DUP2 MSTORE PUSH1 0x20 ADD PUSH1 0x0 KECCAK256 PUSH1 0x0 PUSH2 0x100 EXP DUP2 SLOAD DUP2 PUSH20 0xFFFFFFFFFFFFFFFFFFFFFFFFFFFFFFFFFFFFFFFF MUL NOT AND SWAP1 DUP4 PUSH20 0xFFFFFFFFFFFFFFFFFFFFFFFFFFFFFFFFFFFFFFFF AND MUL OR SWAP1 SSTORE POP DUP1 DUP3 PUSH20 0xFFFFFFFFFFFFFFFFFFFFFFFFFFFFFFFFFFFFFFFF AND PUSH1 0x0 PUSH20 0xFFFFFFFFFFFFFFFFFFFFFFFFFFFFFFFFFFFFFFFF AND PUSH32 0xDDF252AD1BE2C89B69C2B068FC378DAA952BA7F163C4A11628F55A4DF523B3EF PUSH1 0x40 MLOAD PUSH1 0x40 MLOAD DUP1 SWAP2 SUB SWAP1 LOG4 POP POP JUMP JUMPDEST PUSH1 0x0 DUP1 DUP3 EXTCODESIZE SWAP1 POP PUSH1 0x0 DUP2 GT SWAP2 POP POP SWAP2 SWAP1 POP JUMP JUMPDEST DUP3 DUP1 SLOAD PUSH2 0x2FCE SWAP1 PUSH2 0x41B3 JUMP JUMPDEST SWAP1 PUSH1 0x0 MSTORE PUSH1 0x20 PUSH1 0x0 KECCAK256 SWAP1 PUSH1 0x1F ADD PUSH1 0x20 SWAP1 DIV DUP2 ADD SWAP3 DUP3 PUSH2 0x2FF0 JUMPI PUSH1 0x0 DUP6 SSTORE PUSH2 0x3037 JUMP JUMPDEST DUP3 PUSH1 0x1F LT PUSH2 0x3009 JUMPI DUP1 MLOAD PUSH1 0xFF NOT AND DUP4 DUP1 ADD OR DUP6 SSTORE PUSH2 0x3037 JUMP JUMPDEST DUP3 DUP1 ADD PUSH1 0x1 ADD DUP6 SSTORE DUP3 ISZERO PUSH2 0x3037 JUMPI SWAP2 DUP3 ADD JUMPDEST DUP3 DUP2 GT ISZERO PUSH2 0x3036 JUMPI DUP3 MLOAD DUP3 SSTORE SWAP2 PUSH1 0x20 ADD SWAP2 SWAP1 PUSH1 0x1 ADD SWAP1 PUSH2 0x301B JUMP JUMPDEST JUMPDEST POP SWAP1 POP PUSH2 0x3044 SWAP2 SWAP1 PUSH2 0x3070 JUMP JUMPDEST POP SWAP1 JUMP JUMPDEST PUSH1 0x40 MLOAD DUP1 PUSH2 0x260 ADD PUSH1 0x40 MSTORE DUP1 PUSH1 0x13 SWAP1 JUMPDEST PUSH1 0x60 DUP2 MSTORE PUSH1 0x20 ADD SWAP1 PUSH1 0x1 SWAP1 SUB SWAP1 DUP2 PUSH2 0x3058 JUMPI SWAP1 POP POP SWAP1 JUMP JUMPDEST JUMPDEST DUP1 DUP3 GT ISZERO PUSH2 0x3089 JUMPI PUSH1 0x0 DUP2 PUSH1 0x0 SWAP1 SSTORE POP PUSH1 0x1 ADD PUSH2 0x3071 JUMP JUMPDEST POP SWAP1 JUMP JUMPDEST PUSH1 0x0 PUSH2 0x30A0 PUSH2 0x309B DUP5 PUSH2 0x3F2E JUMP JUMPDEST PUSH2 0x3F09 JUMP JUMPDEST SWAP1 POP DUP3 DUP2 MSTORE PUSH1 0x20 DUP2 ADD DUP5 DUP5 DUP5 ADD GT ISZERO PUSH2 0x30BC JUMPI PUSH2 0x30BB PUSH2 0x43AF JUMP JUMPDEST JUMPDEST PUSH2 0x30C7 DUP5 DUP3 DUP6 PUSH2 0x4171 JUMP JUMPDEST POP SWAP4 SWAP3 POP POP POP JUMP JUMPDEST PUSH1 0x0 PUSH2 0x30E2 PUSH2 0x30DD DUP5 PUSH2 0x3F5F JUMP JUMPDEST PUSH2 0x3F09 JUMP JUMPDEST SWAP1 POP DUP3 DUP2 MSTORE PUSH1 0x20 DUP2 ADD DUP5 DUP5 DUP5 ADD GT ISZERO PUSH2 0x30FE JUMPI PUSH2 0x30FD PUSH2 0x43AF JUMP JUMPDEST JUMPDEST PUSH2 0x3109 DUP5 DUP3 DUP6 PUSH2 0x4171 JUMP JUMPDEST POP SWAP4 SWAP3 POP POP POP JUMP JUMPDEST PUSH1 0x0 DUP2 CALLDATALOAD SWAP1 POP PUSH2 0x3120 DUP2 PUSH2 0x4A36 JUMP JUMPDEST SWAP3 SWAP2 POP POP JUMP JUMPDEST PUSH1 0x0 DUP2 CALLDATALOAD SWAP1 POP PUSH2 0x3135 DUP2 PUSH2 0x4A4D JUMP JUMPDEST SWAP3 SWAP2 POP POP JUMP JUMPDEST PUSH1 0x0 DUP2 CALLDATALOAD SWAP1 POP PUSH2 0x314A DUP2 PUSH2 0x4A64 JUMP JUMPDEST SWAP3 SWAP2 POP POP JUMP JUMPDEST PUSH1 0x0 DUP2 MLOAD SWAP1 POP PUSH2 0x315F DUP2 PUSH2 0x4A64 JUMP JUMPDEST SWAP3 SWAP2 POP POP JUMP JUMPDEST PUSH1 0x0 DUP3 PUSH1 0x1F DUP4 ADD SLT PUSH2 0x317A JUMPI PUSH2 0x3179 PUSH2 0x43AA JUMP JUMPDEST JUMPDEST DUP2 CALLDATALOAD PUSH2 0x318A DUP5 DUP3 PUSH1 0x20 DUP7 ADD PUSH2 0x308D JUMP JUMPDEST SWAP2 POP POP SWAP3 SWAP2 POP POP JUMP JUMPDEST PUSH1 0x0 DUP3 PUSH1 0x1F DUP4 ADD SLT PUSH2 0x31A8 JUMPI PUSH2 0x31A7 PUSH2 0x43AA JUMP JUMPDEST JUMPDEST DUP2 CALLDATALOAD PUSH2 0x31B8 DUP5 DUP3 PUSH1 0x20 DUP7 ADD PUSH2 0x30CF JUMP JUMPDEST SWAP2 POP POP SWAP3 SWAP2 POP POP JUMP JUMPDEST PUSH1 0x0 DUP2 CALLDATALOAD SWAP1 POP PUSH2 0x31D0 DUP2 PUSH2 0x4A7B JUMP JUMPDEST SWAP3 SWAP2 POP POP JUMP JUMPDEST PUSH1 0x0 PUSH1 0x20 DUP3 DUP5 SUB SLT ISZERO PUSH2 0x31EC JUMPI PUSH2 0x31EB PUSH2 0x43B9 JUMP JUMPDEST JUMPDEST PUSH1 0x0 PUSH2 0x31FA DUP5 DUP3 DUP6 ADD PUSH2 0x3111 JUMP JUMPDEST SWAP2 POP POP SWAP3 SWAP2 POP POP JUMP JUMPDEST PUSH1 0x0 DUP1 PUSH1 0x40 DUP4 DUP6 SUB SLT ISZERO PUSH2 0x321A JUMPI PUSH2 0x3219 PUSH2 0x43B9 JUMP JUMPDEST JUMPDEST PUSH1 0x0 PUSH2 0x3228 DUP6 DUP3 DUP7 ADD PUSH2 0x3111 JUMP JUMPDEST SWAP3 POP POP PUSH1 0x20 PUSH2 0x3239 DUP6 DUP3 DUP7 ADD PUSH2 0x3111 JUMP JUMPDEST SWAP2 POP POP SWAP3 POP SWAP3 SWAP1 POP JUMP JUMPDEST PUSH1 0x0 DUP1 PUSH1 0x0 PUSH1 0x60 DUP5 DUP7 SUB SLT ISZERO PUSH2 0x325C JUMPI PUSH2 0x325B PUSH2 0x43B9 JUMP JUMPDEST JUMPDEST PUSH1 0x0 PUSH2 0x326A DUP7 DUP3 DUP8 ADD PUSH2 0x3111 JUMP JUMPDEST SWAP4 POP POP PUSH1 0x20 PUSH2 0x327B DUP7 DUP3 DUP8 ADD PUSH2 0x3111 JUMP JUMPDEST SWAP3 POP POP PUSH1 0x40 PUSH2 0x328C DUP7 DUP3 DUP8 ADD PUSH2 0x31C1 JUMP JUMPDEST SWAP2 POP POP SWAP3 POP SWAP3 POP SWAP3 JUMP JUMPDEST PUSH1 0x0 DUP1 PUSH1 0x0 DUP1 PUSH1 0x80 DUP6 DUP8 SUB SLT ISZERO PUSH2 0x32B0 JUMPI PUSH2 0x32AF PUSH2 0x43B9 JUMP JUMPDEST JUMPDEST PUSH1 0x0 PUSH2 0x32BE DUP8 DUP3 DUP9 ADD PUSH2 0x3111 JUMP JUMPDEST SWAP5 POP POP PUSH1 0x20 PUSH2 0x32CF DUP8 DUP3 DUP9 ADD PUSH2 0x3111 JUMP JUMPDEST SWAP4 POP POP PUSH1 0x40 PUSH2 0x32E0 DUP8 DUP3 DUP9 ADD PUSH2 0x31C1 JUMP JUMPDEST SWAP3 POP POP PUSH1 0x60 DUP6 ADD CALLDATALOAD PUSH8 0xFFFFFFFFFFFFFFFF DUP2 GT ISZERO PUSH2 0x3301 JUMPI PUSH2 0x3300 PUSH2 0x43B4 JUMP JUMPDEST JUMPDEST PUSH2 0x330D DUP8 DUP3 DUP9 ADD PUSH2 0x3165 JUMP JUMPDEST SWAP2 POP POP SWAP3 SWAP6 SWAP2 SWAP5 POP SWAP3 POP JUMP JUMPDEST PUSH1 0x0 DUP1 PUSH1 0x40 DUP4 DUP6 SUB SLT ISZERO PUSH2 0x3330 JUMPI PUSH2 0x332F PUSH2 0x43B9 JUMP JUMPDEST JUMPDEST PUSH1 0x0 PUSH2 0x333E DUP6 DUP3 DUP7 ADD PUSH2 0x3111 JUMP JUMPDEST SWAP3 POP POP PUSH1 0x20 PUSH2 0x334F DUP6 DUP3 DUP7 ADD PUSH2 0x3126 JUMP JUMPDEST SWAP2 POP POP SWAP3 POP SWAP3 SWAP1 POP JUMP JUMPDEST PUSH1 0x0 DUP1 PUSH1 0x40 DUP4 DUP6 SUB SLT ISZERO PUSH2 0x3370 JUMPI PUSH2 0x336F PUSH2 0x43B9 JUMP JUMPDEST JUMPDEST PUSH1 0x0 PUSH2 0x337E DUP6 DUP3 DUP7 ADD PUSH2 0x3111 JUMP JUMPDEST SWAP3 POP POP PUSH1 0x20 PUSH2 0x338F DUP6 DUP3 DUP7 ADD PUSH2 0x31C1 JUMP JUMPDEST SWAP2 POP POP SWAP3 POP SWAP3 SWAP1 POP JUMP JUMPDEST PUSH1 0x0 PUSH1 0x20 DUP3 DUP5 SUB SLT ISZERO PUSH2 0x33AF JUMPI PUSH2 0x33AE PUSH2 0x43B9 JUMP JUMPDEST JUMPDEST PUSH1 0x0 PUSH2 0x33BD DUP5 DUP3 DUP6 ADD PUSH2 0x313B JUMP JUMPDEST SWAP2 POP POP SWAP3 SWAP2 POP POP JUMP JUMPDEST PUSH1 0x0 PUSH1 0x20 DUP3 DUP5 SUB SLT ISZERO PUSH2 0x33DC JUMPI PUSH2 0x33DB PUSH2 0x43B9 JUMP JUMPDEST JUMPDEST PUSH1 0x0 PUSH2 0x33EA DUP5 DUP3 DUP6 ADD PUSH2 0x3150 JUMP JUMPDEST SWAP2 POP POP SWAP3 SWAP2 POP POP JUMP JUMPDEST PUSH1 0x0 PUSH1 0x20 DUP3 DUP5 SUB SLT ISZERO PUSH2 0x3409 JUMPI PUSH2 0x3408 PUSH2 0x43B9 JUMP JUMPDEST JUMPDEST PUSH1 0x0 DUP3 ADD CALLDATALOAD PUSH8 0xFFFFFFFFFFFFFFFF DUP2 GT ISZERO PUSH2 0x3427 JUMPI PUSH2 0x3426 PUSH2 0x43B4 JUMP JUMPDEST JUMPDEST PUSH2 0x3433 DUP5 DUP3 DUP6 ADD PUSH2 0x3193 JUMP JUMPDEST SWAP2 POP POP SWAP3 SWAP2 POP POP JUMP JUMPDEST PUSH1 0x0 PUSH1 0x20 DUP3 DUP5 SUB SLT ISZERO PUSH2 0x3452 JUMPI PUSH2 0x3451 PUSH2 0x43B9 JUMP JUMPDEST JUMPDEST PUSH1 0x0 PUSH2 0x3460 DUP5 DUP3 DUP6 ADD PUSH2 0x31C1 JUMP JUMPDEST SWAP2 POP POP SWAP3 SWAP2 POP POP JUMP JUMPDEST PUSH1 0x0 DUP1 PUSH1 0x0 PUSH1 0x60 DUP5 DUP7 SUB SLT ISZERO PUSH2 0x3482 JUMPI PUSH2 0x3481 PUSH2 0x43B9 JUMP JUMPDEST JUMPDEST PUSH1 0x0 PUSH2 0x3490 DUP7 DUP3 DUP8 ADD PUSH2 0x31C1 JUMP JUMPDEST SWAP4 POP POP PUSH1 0x20 DUP5 ADD CALLDATALOAD PUSH8 0xFFFFFFFFFFFFFFFF DUP2 GT ISZERO PUSH2 0x34B1 JUMPI PUSH2 0x34B0 PUSH2 0x43B4 JUMP JUMPDEST JUMPDEST PUSH2 0x34BD DUP7 DUP3 DUP8 ADD PUSH2 0x3193 JUMP JUMPDEST SWAP3 POP POP PUSH1 0x40 DUP5 ADD CALLDATALOAD PUSH8 0xFFFFFFFFFFFFFFFF DUP2 GT ISZERO PUSH2 0x34DE JUMPI PUSH2 0x34DD PUSH2 0x43B4 JUMP JUMPDEST JUMPDEST PUSH2 0x34EA DUP7 DUP3 DUP8 ADD PUSH2 0x3193 JUMP JUMPDEST SWAP2 POP POP SWAP3 POP SWAP3 POP SWAP3 JUMP JUMPDEST PUSH2 0x34FD DUP2 PUSH2 0x40FD JUMP JUMPDEST DUP3 MSTORE POP POP JUMP JUMPDEST PUSH2 0x350C DUP2 PUSH2 0x410F JUMP JUMPDEST DUP3 MSTORE POP POP JUMP JUMPDEST PUSH1 0x0 PUSH2 0x351D DUP3 PUSH2 0x3FA5 JUMP JUMPDEST PUSH2 0x3527 DUP2 DUP6 PUSH2 0x3FBB JUMP JUMPDEST SWAP4 POP PUSH2 0x3537 DUP2 DUP6 PUSH1 0x20 DUP7 ADD PUSH2 0x4180 JUMP JUMPDEST PUSH2 0x3540 DUP2 PUSH2 0x43BE JUMP JUMPDEST DUP5 ADD SWAP2 POP POP SWAP3 SWAP2 POP POP JUMP JUMPDEST PUSH1 0x0 PUSH2 0x3556 DUP3 PUSH2 0x3FB0 JUMP JUMPDEST PUSH2 0x3560 DUP2 DUP6 PUSH2 0x3FCC JUMP JUMPDEST SWAP4 POP PUSH2 0x3570 DUP2 DUP6 PUSH1 0x20 DUP7 ADD PUSH2 0x4180 JUMP JUMPDEST PUSH2 0x3579 DUP2 PUSH2 0x43BE JUMP JUMPDEST DUP5 ADD SWAP2 POP POP SWAP3 SWAP2 POP POP JUMP JUMPDEST PUSH1 0x0 PUSH2 0x358F DUP3 PUSH2 0x3FB0 JUMP JUMPDEST PUSH2 0x3599 DUP2 DUP6 PUSH2 0x3FDD JUMP JUMPDEST SWAP4 POP PUSH2 0x35A9 DUP2 DUP6 PUSH1 0x20 DUP7 ADD PUSH2 0x4180 JUMP JUMPDEST DUP1 DUP5 ADD SWAP2 POP POP SWAP3 SWAP2 POP POP JUMP JUMPDEST PUSH1 0x0 DUP2 SLOAD PUSH2 0x35C2 DUP2 PUSH2 0x41B3 JUMP JUMPDEST PUSH2 0x35CC DUP2 DUP7 PUSH2 0x3FDD JUMP JUMPDEST SWAP5 POP PUSH1 0x1 DUP3 AND PUSH1 0x0 DUP2 EQ PUSH2 0x35E7 JUMPI PUSH1 0x1 DUP2 EQ PUSH2 0x35F8 JUMPI PUSH2 0x362B JUMP JUMPDEST PUSH1 0xFF NOT DUP4 AND DUP7 MSTORE DUP2 DUP7 ADD SWAP4 POP PUSH2 0x362B JUMP JUMPDEST PUSH2 0x3601 DUP6 PUSH2 0x3F90 JUMP JUMPDEST PUSH1 0x0 JUMPDEST DUP4 DUP2 LT ISZERO PUSH2 0x3623 JUMPI DUP2 SLOAD DUP2 DUP10 ADD MSTORE PUSH1 0x1 DUP3 ADD SWAP2 POP PUSH1 0x20 DUP2 ADD SWAP1 POP PUSH2 0x3604 JUMP JUMPDEST DUP4 DUP9 ADD SWAP6 POP POP POP JUMPDEST POP POP POP SWAP3 SWAP2 POP POP JUMP JUMPDEST PUSH1 0x0 PUSH2 0x3641 PUSH1 0x6 DUP4 PUSH2 0x3FDD JUMP JUMPDEST SWAP2 POP PUSH2 0x364C DUP3 PUSH2 0x43CF JUMP JUMPDEST PUSH1 0x6 DUP3 ADD SWAP1 POP SWAP2 SWAP1 POP JUMP JUMPDEST PUSH1 0x0 PUSH2 0x3664 PUSH1 0x13 DUP4 PUSH2 0x3FDD JUMP JUMPDEST SWAP2 POP PUSH2 0x366F DUP3 PUSH2 0x43F8 JUMP JUMPDEST PUSH1 0x13 DUP3 ADD SWAP1 POP SWAP2 SWAP1 POP JUMP JUMPDEST PUSH1 0x0 PUSH2 0x3687 PUSH1 0x2B DUP4 PUSH2 0x3FCC JUMP JUMPDEST SWAP2 POP PUSH2 0x3692 DUP3 PUSH2 0x4421 JUMP JUMPDEST PUSH1 0x40 DUP3 ADD SWAP1 POP SWAP2 SWAP1 POP JUMP JUMPDEST PUSH1 0x0 PUSH2 0x36AA PUSH1 0x32 DUP4 PUSH2 0x3FCC JUMP JUMPDEST SWAP2 POP PUSH2 0x36B5 DUP3 PUSH2 0x4470 JUMP JUMPDEST PUSH1 0x40 DUP3 ADD SWAP1 POP SWAP2 SWAP1 POP JUMP JUMPDEST PUSH1 0x0 PUSH2 0x36CD PUSH1 0xC DUP4 PUSH2 0x3FDD JUMP JUMPDEST SWAP2 POP PUSH2 0x36D8 DUP3 PUSH2 0x44BF JUMP JUMPDEST PUSH1 0xC DUP3 ADD SWAP1 POP SWAP2 SWAP1 POP JUMP JUMPDEST PUSH1 0x0 PUSH2 0x36F0 PUSH1 0x26 DUP4 PUSH2 0x3FCC JUMP JUMPDEST SWAP2 POP PUSH2 0x36FB DUP3 PUSH2 0x44E8 JUMP JUMPDEST PUSH1 0x40 DUP3 ADD SWAP1 POP SWAP2 SWAP1 POP JUMP JUMPDEST PUSH1 0x0 PUSH2 0x3713 PUSH1 0x1C DUP4 PUSH2 0x3FCC JUMP JUMPDEST SWAP2 POP PUSH2 0x371E DUP3 PUSH2 0x4537 JUMP JUMPDEST PUSH1 0x20 DUP3 ADD SWAP1 POP SWAP2 SWAP1 POP JUMP JUMPDEST PUSH1 0x0 PUSH2 0x3736 PUSH1 0x11 DUP4 PUSH2 0x3FDD JUMP JUMPDEST SWAP2 POP PUSH2 0x3741 DUP3 PUSH2 0x4560 JUMP JUMPDEST PUSH1 0x11 DUP3 ADD SWAP1 POP SWAP2 SWAP1 POP JUMP JUMPDEST PUSH1 0x0 PUSH2 0x3759 PUSH1 0x24 DUP4 PUSH2 0x3FCC JUMP JUMPDEST SWAP2 POP PUSH2 0x3764 DUP3 PUSH2 0x4589 JUMP JUMPDEST PUSH1 0x40 DUP3 ADD SWAP1 POP SWAP2 SWAP1 POP JUMP JUMPDEST PUSH1 0x0 PUSH2 0x377C PUSH1 0x19 DUP4 PUSH2 0x3FCC JUMP JUMPDEST SWAP2 POP PUSH2 0x3787 DUP3 PUSH2 0x45D8 JUMP JUMPDEST PUSH1 0x20 DUP3 ADD SWAP1 POP SWAP2 SWAP1 POP JUMP JUMPDEST PUSH1 0x0 PUSH2 0x379F PUSH1 0x18 DUP4 PUSH2 0x3FDD JUMP JUMPDEST SWAP2 POP PUSH2 0x37AA DUP3 PUSH2 0x4601 JUMP JUMPDEST PUSH1 0x18 DUP3 ADD SWAP1 POP SWAP2 SWAP1 POP JUMP JUMPDEST PUSH1 0x0 PUSH2 0x37C2 PUSH1 0x26 DUP4 PUSH2 0x3FDD JUMP JUMPDEST SWAP2 POP PUSH2 0x37CD DUP3 PUSH2 0x462A JUMP JUMPDEST PUSH1 0x26 DUP3 ADD SWAP1 POP SWAP2 SWAP1 POP JUMP JUMPDEST PUSH1 0x0 PUSH2 0x37E5 PUSH1 0x2C DUP4 PUSH2 0x3FCC JUMP JUMPDEST SWAP2 POP PUSH2 0x37F0 DUP3 PUSH2 0x4679 JUMP JUMPDEST PUSH1 0x40 DUP3 ADD SWAP1 POP SWAP2 SWAP1 POP JUMP JUMPDEST PUSH1 0x0 PUSH2 0x3808 PUSH1 0x38 DUP4 PUSH2 0x3FCC JUMP JUMPDEST SWAP2 POP PUSH2 0x3813 DUP3 PUSH2 0x46C8 JUMP JUMPDEST PUSH1 0x40 DUP3 ADD SWAP1 POP SWAP2 SWAP1 POP JUMP JUMPDEST PUSH1 0x0 PUSH2 0x382B PUSH1 0x2A DUP4 PUSH2 0x3FCC JUMP JUMPDEST SWAP2 POP PUSH2 0x3836 DUP3 PUSH2 0x4717 JUMP JUMPDEST PUSH1 0x40 DUP3 ADD SWAP1 POP SWAP2 SWAP1 POP JUMP JUMPDEST PUSH1 0x0 PUSH2 0x384E PUSH1 0x29 DUP4 PUSH2 0x3FCC JUMP JUMPDEST SWAP2 POP PUSH2 0x3859 DUP3 PUSH2 0x4766 JUMP JUMPDEST PUSH1 0x40 DUP3 ADD SWAP1 POP SWAP2 SWAP1 POP JUMP JUMPDEST PUSH1 0x0 PUSH2 0x3871 PUSH1 0x2 DUP4 PUSH2 0x3FDD JUMP JUMPDEST SWAP2 POP PUSH2 0x387C DUP3 PUSH2 0x47B5 JUMP JUMPDEST PUSH1 0x2 DUP3 ADD SWAP1 POP SWAP2 SWAP1 POP JUMP JUMPDEST PUSH1 0x0 PUSH2 0x3894 PUSH1 0x20 DUP4 PUSH2 0x3FCC JUMP JUMPDEST SWAP2 POP PUSH2 0x389F DUP3 PUSH2 0x47DE JUMP JUMPDEST PUSH1 0x20 DUP3 ADD SWAP1 POP SWAP2 SWAP1 POP JUMP JUMPDEST PUSH1 0x0 PUSH2 0x38B7 PUSH1 0x17 DUP4 PUSH2 0x3FCC JUMP JUMPDEST SWAP2 POP PUSH2 0x38C2 DUP3 PUSH2 0x4807 JUMP JUMPDEST PUSH1 0x20 DUP3 ADD SWAP1 POP SWAP2 SWAP1 POP JUMP JUMPDEST PUSH1 0x0 PUSH2 0x38DA PUSH1 0x2C DUP4 PUSH2 0x3FCC JUMP JUMPDEST SWAP2 POP PUSH2 0x38E5 DUP3 PUSH2 0x4830 JUMP JUMPDEST PUSH1 0x40 DUP3 ADD SWAP1 POP SWAP2 SWAP1 POP JUMP JUMPDEST PUSH1 0x0 PUSH2 0x38FD PUSH1 0x20 DUP4 PUSH2 0x3FCC JUMP JUMPDEST SWAP2 POP PUSH2 0x3908 DUP3 PUSH2 0x487F JUMP JUMPDEST PUSH1 0x20 DUP3 ADD SWAP1 POP SWAP2 SWAP1 POP JUMP JUMPDEST PUSH1 0x0 PUSH2 0x3920 PUSH1 0x29 DUP4 PUSH2 0x3FCC JUMP JUMPDEST SWAP2 POP PUSH2 0x392B DUP3 PUSH2 0x48A8 JUMP JUMPDEST PUSH1 0x40 DUP3 ADD SWAP1 POP SWAP2 SWAP1 POP JUMP JUMPDEST PUSH1 0x0 PUSH2 0x3943 PUSH1 0x21 DUP4 PUSH2 0x3FCC JUMP JUMPDEST SWAP2 POP PUSH2 0x394E DUP3 PUSH2 0x48F7 JUMP JUMPDEST PUSH1 0x40 DUP3 ADD SWAP1 POP SWAP2 SWAP1 POP JUMP JUMPDEST PUSH1 0x0 PUSH2 0x3966 PUSH1 0x1D DUP4 PUSH2 0x3FDD JUMP JUMPDEST SWAP2 POP PUSH2 0x3971 DUP3 PUSH2 0x4946 JUMP JUMPDEST PUSH1 0x1D DUP3 ADD SWAP1 POP SWAP2 SWAP1 POP JUMP JUMPDEST PUSH1 0x0 PUSH2 0x3989 PUSH1 0x31 DUP4 PUSH2 0x3FCC JUMP JUMPDEST SWAP2 POP PUSH2 0x3994 DUP3 PUSH2 0x496F JUMP JUMPDEST PUSH1 0x40 DUP3 ADD SWAP1 POP SWAP2 SWAP1 POP JUMP JUMPDEST PUSH1 0x0 PUSH2 0x39AC PUSH1 0x2C DUP4 PUSH2 0x3FCC JUMP JUMPDEST SWAP2 POP PUSH2 0x39B7 DUP3 PUSH2 0x49BE JUMP JUMPDEST PUSH1 0x40 DUP3 ADD SWAP1 POP SWAP2 SWAP1 POP JUMP JUMPDEST PUSH1 0x0 PUSH2 0x39CF PUSH1 0x1F DUP4 PUSH2 0x3FCC JUMP JUMPDEST SWAP2 POP PUSH2 0x39DA DUP3 PUSH2 0x4A0D JUMP JUMPDEST PUSH1 0x20 DUP3 ADD SWAP1 POP SWAP2 SWAP1 POP JUMP JUMPDEST PUSH2 0x39EE DUP2 PUSH2 0x4167 JUMP JUMPDEST DUP3 MSTORE POP POP JUMP JUMPDEST PUSH1 0x0 PUSH2 0x3A00 DUP3 DUP8 PUSH2 0x3584 JUMP JUMPDEST SWAP2 POP PUSH2 0x3A0C DUP3 DUP7 PUSH2 0x3584 JUMP JUMPDEST SWAP2 POP PUSH2 0x3A18 DUP3 DUP6 PUSH2 0x3584 JUMP JUMPDEST SWAP2 POP PUSH2 0x3A24 DUP3 DUP5 PUSH2 0x3584 JUMP JUMPDEST SWAP2 POP DUP2 SWAP1 POP SWAP6 SWAP5 POP POP POP POP POP JUMP JUMPDEST PUSH1 0x0 PUSH2 0x3A3E DUP3 DUP12 PUSH2 0x3584 JUMP JUMPDEST SWAP2 POP PUSH2 0x3A4A DUP3 DUP11 PUSH2 0x3584 JUMP JUMPDEST SWAP2 POP PUSH2 0x3A56 DUP3 DUP10 PUSH2 0x3584 JUMP JUMPDEST SWAP2 POP PUSH2 0x3A62 DUP3 DUP9 PUSH2 0x3584 JUMP JUMPDEST SWAP2 POP PUSH2 0x3A6E DUP3 DUP8 PUSH2 0x3584 JUMP JUMPDEST SWAP2 POP PUSH2 0x3A7A DUP3 DUP7 PUSH2 0x3584 JUMP JUMPDEST SWAP2 POP PUSH2 0x3A86 DUP3 DUP6 PUSH2 0x3584 JUMP JUMPDEST SWAP2 POP PUSH2 0x3A92 DUP3 DUP5 PUSH2 0x3584 JUMP JUMPDEST SWAP2 POP DUP2 SWAP1 POP SWAP10 SWAP9 POP POP POP POP POP POP POP POP POP JUMP JUMPDEST PUSH1 0x0 PUSH2 0x3AB0 DUP3 DUP13 PUSH2 0x3584 JUMP JUMPDEST SWAP2 POP PUSH2 0x3ABC DUP3 DUP12 PUSH2 0x3584 JUMP JUMPDEST SWAP2 POP PUSH2 0x3AC8 DUP3 DUP11 PUSH2 0x3584 JUMP JUMPDEST SWAP2 POP PUSH2 0x3AD4 DUP3 DUP10 PUSH2 0x3584 JUMP JUMPDEST SWAP2 POP PUSH2 0x3AE0 DUP3 DUP9 PUSH2 0x3584 JUMP JUMPDEST SWAP2 POP PUSH2 0x3AEC DUP3 DUP8 PUSH2 0x3584 JUMP JUMPDEST SWAP2 POP PUSH2 0x3AF8 DUP3 DUP7 PUSH2 0x3584 JUMP JUMPDEST SWAP2 POP PUSH2 0x3B04 DUP3 DUP6 PUSH2 0x3584 JUMP JUMPDEST SWAP2 POP PUSH2 0x3B10 DUP3 DUP5 PUSH2 0x3584 JUMP JUMPDEST SWAP2 POP DUP2 SWAP1 POP SWAP11 SWAP10 POP POP POP POP POP POP POP POP POP POP JUMP JUMPDEST PUSH1 0x0 PUSH2 0x3B2E DUP3 PUSH2 0x3792 JUMP JUMPDEST SWAP2 POP PUSH2 0x3B3A DUP3 DUP10 PUSH2 0x3584 JUMP JUMPDEST SWAP2 POP PUSH2 0x3B45 DUP3 PUSH2 0x3657 JUMP JUMPDEST SWAP2 POP PUSH2 0x3B51 DUP3 DUP9 PUSH2 0x35B5 JUMP JUMPDEST SWAP2 POP PUSH2 0x3B5C DUP3 PUSH2 0x3634 JUMP JUMPDEST SWAP2 POP PUSH2 0x3B68 DUP3 DUP8 PUSH2 0x3584 JUMP JUMPDEST SWAP2 POP PUSH2 0x3B73 DUP3 PUSH2 0x36C0 JUMP JUMPDEST SWAP2 POP PUSH2 0x3B7F DUP3 DUP7 PUSH2 0x35B5 JUMP JUMPDEST SWAP2 POP PUSH2 0x3B8A DUP3 PUSH2 0x3729 JUMP JUMPDEST SWAP2 POP PUSH2 0x3B96 DUP3 DUP6 PUSH2 0x35B5 JUMP JUMPDEST SWAP2 POP PUSH2 0x3BA1 DUP3 PUSH2 0x37B5 JUMP JUMPDEST SWAP2 POP PUSH2 0x3BAD DUP3 DUP5 PUSH2 0x3584 JUMP JUMPDEST SWAP2 POP PUSH2 0x3BB8 DUP3 PUSH2 0x3864 JUMP JUMPDEST SWAP2 POP DUP2 SWAP1 POP SWAP8 SWAP7 POP POP POP POP POP POP POP JUMP JUMPDEST PUSH1 0x0 PUSH2 0x3BD3 DUP3 PUSH2 0x3959 JUMP JUMPDEST SWAP2 POP PUSH2 0x3BDF DUP3 DUP5 PUSH2 0x3584 JUMP JUMPDEST SWAP2 POP DUP2 SWAP1 POP SWAP3 SWAP2 POP POP JUMP JUMPDEST PUSH1 0x0 PUSH1 0x20 DUP3 ADD SWAP1 POP PUSH2 0x3BFF PUSH1 0x0 DUP4 ADD DUP5 PUSH2 0x34F4 JUMP JUMPDEST SWAP3 SWAP2 POP POP JUMP JUMPDEST PUSH1 0x0 PUSH1 0x80 DUP3 ADD SWAP1 POP PUSH2 0x3C1A PUSH1 0x0 DUP4 ADD DUP8 PUSH2 0x34F4 JUMP JUMPDEST PUSH2 0x3C27 PUSH1 0x20 DUP4 ADD DUP7 PUSH2 0x34F4 JUMP JUMPDEST PUSH2 0x3C34 PUSH1 0x40 DUP4 ADD DUP6 PUSH2 0x39E5 JUMP JUMPDEST DUP2 DUP2 SUB PUSH1 0x60 DUP4 ADD MSTORE PUSH2 0x3C46 DUP2 DUP5 PUSH2 0x3512 JUMP JUMPDEST SWAP1 POP SWAP6 SWAP5 POP POP POP POP POP JUMP JUMPDEST PUSH1 0x0 PUSH1 0x20 DUP3 ADD SWAP1 POP PUSH2 0x3C66 PUSH1 0x0 DUP4 ADD DUP5 PUSH2 0x3503 JUMP JUMPDEST SWAP3 SWAP2 POP POP JUMP JUMPDEST PUSH1 0x0 PUSH1 0x20 DUP3 ADD SWAP1 POP DUP2 DUP2 SUB PUSH1 0x0 DUP4 ADD MSTORE PUSH2 0x3C86 DUP2 DUP5 PUSH2 0x354B JUMP JUMPDEST SWAP1 POP SWAP3 SWAP2 POP POP JUMP JUMPDEST PUSH1 0x0 PUSH1 0x20 DUP3 ADD SWAP1 POP DUP2 DUP2 SUB PUSH1 0x0 DUP4 ADD MSTORE PUSH2 0x3CA7 DUP2 PUSH2 0x367A JUMP JUMPDEST SWAP1 POP SWAP2 SWAP1 POP JUMP JUMPDEST PUSH1 0x0 PUSH1 0x20 DUP3 ADD SWAP1 POP DUP2 DUP2 SUB PUSH1 0x0 DUP4 ADD MSTORE PUSH2 0x3CC7 DUP2 PUSH2 0x369D JUMP JUMPDEST SWAP1 POP SWAP2 SWAP1 POP JUMP JUMPDEST PUSH1 0x0 PUSH1 0x20 DUP3 ADD SWAP1 POP DUP2 DUP2 SUB PUSH1 0x0 DUP4 ADD MSTORE PUSH2 0x3CE7 DUP2 PUSH2 0x36E3 JUMP JUMPDEST SWAP1 POP SWAP2 SWAP1 POP JUMP JUMPDEST PUSH1 0x0 PUSH1 0x20 DUP3 ADD SWAP1 POP DUP2 DUP2 SUB PUSH1 0x0 DUP4 ADD MSTORE PUSH2 0x3D07 DUP2 PUSH2 0x3706 JUMP JUMPDEST SWAP1 POP SWAP2 SWAP1 POP JUMP JUMPDEST PUSH1 0x0 PUSH1 0x20 DUP3 ADD SWAP1 POP DUP2 DUP2 SUB PUSH1 0x0 DUP4 ADD MSTORE PUSH2 0x3D27 DUP2 PUSH2 0x374C JUMP JUMPDEST SWAP1 POP SWAP2 SWAP1 POP JUMP JUMPDEST PUSH1 0x0 PUSH1 0x20 DUP3 ADD SWAP1 POP DUP2 DUP2 SUB PUSH1 0x0 DUP4 ADD MSTORE PUSH2 0x3D47 DUP2 PUSH2 0x376F JUMP JUMPDEST SWAP1 POP SWAP2 SWAP1 POP JUMP JUMPDEST PUSH1 0x0 PUSH1 0x20 DUP3 ADD SWAP1 POP DUP2 DUP2 SUB PUSH1 0x0 DUP4 ADD MSTORE PUSH2 0x3D67 DUP2 PUSH2 0x37D8 JUMP JUMPDEST SWAP1 POP SWAP2 SWAP1 POP JUMP JUMPDEST PUSH1 0x0 PUSH1 0x20 DUP3 ADD SWAP1 POP DUP2 DUP2 SUB PUSH1 0x0 DUP4 ADD MSTORE PUSH2 0x3D87 DUP2 PUSH2 0x37FB JUMP JUMPDEST SWAP1 POP SWAP2 SWAP1 POP JUMP JUMPDEST PUSH1 0x0 PUSH1 0x20 DUP3 ADD SWAP1 POP DUP2 DUP2 SUB PUSH1 0x0 DUP4 ADD MSTORE PUSH2 0x3DA7 DUP2 PUSH2 0x381E JUMP JUMPDEST SWAP1 POP SWAP2 SWAP1 POP JUMP JUMPDEST PUSH1 0x0 PUSH1 0x20 DUP3 ADD SWAP1 POP DUP2 DUP2 SUB PUSH1 0x0 DUP4 ADD MSTORE PUSH2 0x3DC7 DUP2 PUSH2 0x3841 JUMP JUMPDEST SWAP1 POP SWAP2 SWAP1 POP JUMP JUMPDEST PUSH1 0x0 PUSH1 0x20 DUP3 ADD SWAP1 POP DUP2 DUP2 SUB PUSH1 0x0 DUP4 ADD MSTORE PUSH2 0x3DE7 DUP2 PUSH2 0x3887 JUMP JUMPDEST SWAP1 POP SWAP2 SWAP1 POP JUMP JUMPDEST PUSH1 0x0 PUSH1 0x20 DUP3 ADD SWAP1 POP DUP2 DUP2 SUB PUSH1 0x0 DUP4 ADD MSTORE PUSH2 0x3E07 DUP2 PUSH2 0x38AA JUMP JUMPDEST SWAP1 POP SWAP2 SWAP1 POP JUMP JUMPDEST PUSH1 0x0 PUSH1 0x20 DUP3 ADD SWAP1 POP DUP2 DUP2 SUB PUSH1 0x0 DUP4 ADD MSTORE PUSH2 0x3E27 DUP2 PUSH2 0x38CD JUMP JUMPDEST SWAP1 POP SWAP2 SWAP1 POP JUMP JUMPDEST PUSH1 0x0 PUSH1 0x20 DUP3 ADD SWAP1 POP DUP2 DUP2 SUB PUSH1 0x0 DUP4 ADD MSTORE PUSH2 0x3E47 DUP2 PUSH2 0x38F0 JUMP JUMPDEST SWAP1 POP SWAP2 SWAP1 POP JUMP JUMPDEST PUSH1 0x0 PUSH1 0x20 DUP3 ADD SWAP1 POP DUP2 DUP2 SUB PUSH1 0x0 DUP4 ADD MSTORE PUSH2 0x3E67 DUP2 PUSH2 0x3913 JUMP JUMPDEST SWAP1 POP SWAP2 SWAP1 POP JUMP JUMPDEST PUSH1 0x0 PUSH1 0x20 DUP3 ADD SWAP1 POP DUP2 DUP2 SUB PUSH1 0x0 DUP4 ADD MSTORE PUSH2 0x3E87 DUP2 PUSH2 0x3936 JUMP JUMPDEST SWAP1 POP SWAP2 SWAP1 POP JUMP JUMPDEST PUSH1 0x0 PUSH1 0x20 DUP3 ADD SWAP1 POP DUP2 DUP2 SUB PUSH1 0x0 DUP4 ADD MSTORE PUSH2 0x3EA7 DUP2 PUSH2 0x397C JUMP JUMPDEST SWAP1 POP SWAP2 SWAP1 POP JUMP JUMPDEST PUSH1 0x0 PUSH1 0x20 DUP3 ADD SWAP1 POP DUP2 DUP2 SUB PUSH1 0x0 DUP4 ADD MSTORE PUSH2 0x3EC7 DUP2 PUSH2 0x399F JUMP JUMPDEST SWAP1 POP SWAP2 SWAP1 POP JUMP JUMPDEST PUSH1 0x0 PUSH1 0x20 DUP3 ADD SWAP1 POP DUP2 DUP2 SUB PUSH1 0x0 DUP4 ADD MSTORE PUSH2 0x3EE7 DUP2 PUSH2 0x39C2 JUMP JUMPDEST SWAP1 POP SWAP2 SWAP1 POP JUMP JUMPDEST PUSH1 0x0 PUSH1 0x20 DUP3 ADD SWAP1 POP PUSH2 0x3F03 PUSH1 0x0 DUP4 ADD DUP5 PUSH2 0x39E5 JUMP JUMPDEST SWAP3 SWAP2 POP POP JUMP JUMPDEST PUSH1 0x0 PUSH2 0x3F13 PUSH2 0x3F24 JUMP JUMPDEST SWAP1 POP PUSH2 0x3F1F DUP3 DUP3 PUSH2 0x41E5 JUMP JUMPDEST SWAP2 SWAP1 POP JUMP JUMPDEST PUSH1 0x0 PUSH1 0x40 MLOAD SWAP1 POP SWAP1 JUMP JUMPDEST PUSH1 0x0 PUSH8 0xFFFFFFFFFFFFFFFF DUP3 GT ISZERO PUSH2 0x3F49 JUMPI PUSH2 0x3F48 PUSH2 0x437B JUMP JUMPDEST JUMPDEST PUSH2 0x3F52 DUP3 PUSH2 0x43BE JUMP JUMPDEST SWAP1 POP PUSH1 0x20 DUP2 ADD SWAP1 POP SWAP2 SWAP1 POP JUMP JUMPDEST PUSH1 0x0 PUSH8 0xFFFFFFFFFFFFFFFF DUP3 GT ISZERO PUSH2 0x3F7A JUMPI PUSH2 0x3F79 PUSH2 0x437B JUMP JUMPDEST JUMPDEST PUSH2 0x3F83 DUP3 PUSH2 0x43BE JUMP JUMPDEST SWAP1 POP PUSH1 0x20 DUP2 ADD SWAP1 POP SWAP2 SWAP1 POP JUMP JUMPDEST PUSH1 0x0 DUP2 SWAP1 POP DUP2 PUSH1 0x0 MSTORE PUSH1 0x20 PUSH1 0x0 KECCAK256 SWAP1 POP SWAP2 SWAP1 POP JUMP JUMPDEST PUSH1 0x0 DUP2 MLOAD SWAP1 POP SWAP2 SWAP1 POP JUMP JUMPDEST PUSH1 0x0 DUP2 MLOAD SWAP1 POP SWAP2 SWAP1 POP JUMP JUMPDEST PUSH1 0x0 DUP3 DUP3 MSTORE PUSH1 0x20 DUP3 ADD SWAP1 POP SWAP3 SWAP2 POP POP JUMP JUMPDEST PUSH1 0x0 DUP3 DUP3 MSTORE PUSH1 0x20 DUP3 ADD SWAP1 POP SWAP3 SWAP2 POP POP JUMP JUMPDEST PUSH1 0x0 DUP2 SWAP1 POP SWAP3 SWAP2 POP POP JUMP JUMPDEST PUSH1 0x0 PUSH2 0x3FF3 DUP3 PUSH2 0x4167 JUMP JUMPDEST SWAP2 POP PUSH2 0x3FFE DUP4 PUSH2 0x4167 JUMP JUMPDEST SWAP3 POP DUP3 PUSH32 0xFFFFFFFFFFFFFFFFFFFFFFFFFFFFFFFFFFFFFFFFFFFFFFFFFFFFFFFFFFFFFFFF SUB DUP3 GT ISZERO PUSH2 0x4033 JUMPI PUSH2 0x4032 PUSH2 0x4290 JUMP JUMPDEST JUMPDEST DUP3 DUP3 ADD SWAP1 POP SWAP3 SWAP2 POP POP JUMP JUMPDEST PUSH1 0x0 PUSH2 0x4049 DUP3 PUSH2 0x4167 JUMP JUMPDEST SWAP2 POP PUSH2 0x4054 DUP4 PUSH2 0x4167 JUMP JUMPDEST SWAP3 POP DUP3 PUSH2 0x4064 JUMPI PUSH2 0x4063 PUSH2 0x42BF JUMP JUMPDEST JUMPDEST DUP3 DUP3 DIV SWAP1 POP SWAP3 SWAP2 POP POP JUMP JUMPDEST PUSH1 0x0 PUSH2 0x407A DUP3 PUSH2 0x4167 JUMP JUMPDEST SWAP2 POP PUSH2 0x4085 DUP4 PUSH2 0x4167 JUMP JUMPDEST SWAP3 POP DUP2 PUSH32 0xFFFFFFFFFFFFFFFFFFFFFFFFFFFFFFFFFFFFFFFFFFFFFFFFFFFFFFFFFFFFFFFF DIV DUP4 GT DUP3 ISZERO ISZERO AND ISZERO PUSH2 0x40BE JUMPI PUSH2 0x40BD PUSH2 0x4290 JUMP JUMPDEST JUMPDEST DUP3 DUP3 MUL SWAP1 POP SWAP3 SWAP2 POP POP JUMP JUMPDEST PUSH1 0x0 PUSH2 0x40D4 DUP3 PUSH2 0x4167 JUMP JUMPDEST SWAP2 POP PUSH2 0x40DF DUP4 PUSH2 0x4167 JUMP JUMPDEST SWAP3 POP DUP3 DUP3 LT ISZERO PUSH2 0x40F2 JUMPI PUSH2 0x40F1 PUSH2 0x4290 JUMP JUMPDEST JUMPDEST DUP3 DUP3 SUB SWAP1 POP SWAP3 SWAP2 POP POP JUMP JUMPDEST PUSH1 0x0 PUSH2 0x4108 DUP3 PUSH2 0x4147 JUMP JUMPDEST SWAP1 POP SWAP2 SWAP1 POP JUMP JUMPDEST PUSH1 0x0 DUP2 ISZERO ISZERO SWAP1 POP SWAP2 SWAP1 POP JUMP JUMPDEST PUSH1 0x0 PUSH32 0xFFFFFFFF00000000000000000000000000000000000000000000000000000000 DUP3 AND SWAP1 POP SWAP2 SWAP1 POP JUMP JUMPDEST PUSH1 0x0 PUSH20 0xFFFFFFFFFFFFFFFFFFFFFFFFFFFFFFFFFFFFFFFF DUP3 AND SWAP1 POP SWAP2 SWAP1 POP JUMP JUMPDEST PUSH1 0x0 DUP2 SWAP1 POP SWAP2 SWAP1 POP JUMP JUMPDEST DUP3 DUP2 DUP4 CALLDATACOPY PUSH1 0x0 DUP4 DUP4 ADD MSTORE POP POP POP JUMP JUMPDEST PUSH1 0x0 JUMPDEST DUP4 DUP2 LT ISZERO PUSH2 0x419E JUMPI DUP1 DUP3 ADD MLOAD DUP2 DUP5 ADD MSTORE PUSH1 0x20 DUP2 ADD SWAP1 POP PUSH2 0x4183 JUMP JUMPDEST DUP4 DUP2 GT ISZERO PUSH2 0x41AD JUMPI PUSH1 0x0 DUP5 DUP5 ADD MSTORE JUMPDEST POP POP POP POP JUMP JUMPDEST PUSH1 0x0 PUSH1 0x2 DUP3 DIV SWAP1 POP PUSH1 0x1 DUP3 AND DUP1 PUSH2 0x41CB JUMPI PUSH1 0x7F DUP3 AND SWAP2 POP JUMPDEST PUSH1 0x20 DUP3 LT DUP2 EQ ISZERO PUSH2 0x41DF JUMPI PUSH2 0x41DE PUSH2 0x42EE JUMP JUMPDEST JUMPDEST POP SWAP2 SWAP1 POP JUMP JUMPDEST PUSH2 0x41EE DUP3 PUSH2 0x43BE JUMP JUMPDEST DUP2 ADD DUP2 DUP2 LT PUSH8 0xFFFFFFFFFFFFFFFF DUP3 GT OR ISZERO PUSH2 0x420D JUMPI PUSH2 0x420C PUSH2 0x437B JUMP JUMPDEST JUMPDEST DUP1 PUSH1 0x40 MSTORE POP POP POP JUMP JUMPDEST PUSH1 0x0 PUSH2 0x4221 DUP3 PUSH2 0x4167 JUMP JUMPDEST SWAP2 POP PUSH32 0xFFFFFFFFFFFFFFFFFFFFFFFFFFFFFFFFFFFFFFFFFFFFFFFFFFFFFFFFFFFFFFFF DUP3 EQ ISZERO PUSH2 0x4254 JUMPI PUSH2 0x4253 PUSH2 0x4290 JUMP JUMPDEST JUMPDEST PUSH1 0x1 DUP3 ADD SWAP1 POP SWAP2 SWAP1 POP JUMP JUMPDEST PUSH1 0x0 PUSH2 0x426A DUP3 PUSH2 0x4167 JUMP JUMPDEST SWAP2 POP PUSH2 0x4275 DUP4 PUSH2 0x4167 JUMP JUMPDEST SWAP3 POP DUP3 PUSH2 0x4285 JUMPI PUSH2 0x4284 PUSH2 0x42BF JUMP JUMPDEST JUMPDEST DUP3 DUP3 MOD SWAP1 POP SWAP3 SWAP2 POP POP JUMP JUMPDEST PUSH32 0x4E487B7100000000000000000000000000000000000000000000000000000000 PUSH1 0x0 MSTORE PUSH1 0x11 PUSH1 0x4 MSTORE PUSH1 0x24 PUSH1 0x0 REVERT JUMPDEST PUSH32 0x4E487B7100000000000000000000000000000000000000000000000000000000 PUSH1 0x0 MSTORE PUSH1 0x12 PUSH1 0x4 MSTORE PUSH1 0x24 PUSH1 0x0 REVERT JUMPDEST PUSH32 0x4E487B7100000000000000000000000000000000000000000000000000000000 PUSH1 0x0 MSTORE PUSH1 0x22 PUSH1 0x4 MSTORE PUSH1 0x24 PUSH1 0x0 REVERT JUMPDEST PUSH32 0x4E487B7100000000000000000000000000000000000000000000000000000000 PUSH1 0x0 MSTORE PUSH1 0x31 PUSH1 0x4 MSTORE PUSH1 0x24 PUSH1 0x0 REVERT JUMPDEST PUSH32 0x4E487B7100000000000000000000000000000000000000000000000000000000 PUSH1 0x0 MSTORE PUSH1 0x32 PUSH1 0x4 MSTORE PUSH1 0x24 PUSH1 0x0 REVERT JUMPDEST PUSH32 0x4E487B7100000000000000000000000000000000000000000000000000000000 PUSH1 0x0 MSTORE PUSH1 0x41 PUSH1 0x4 MSTORE PUSH1 0x24 PUSH1 0x0 REVERT JUMPDEST PUSH1 0x0 DUP1 REVERT JUMPDEST PUSH1 0x0 DUP1 REVERT JUMPDEST PUSH1 0x0 DUP1 REVERT JUMPDEST PUSH1 0x0 DUP1 REVERT JUMPDEST PUSH1 0x0 PUSH1 0x1F NOT PUSH1 0x1F DUP4 ADD AND SWAP1 POP SWAP2 SWAP1 POP JUMP JUMPDEST PUSH32 0x26745F69643D0000000000000000000000000000000000000000000000000000 PUSH1 0x0 DUP3 ADD MSTORE POP JUMP JUMPDEST PUSH32 0x222C20226465736372697074696F6E223A202200000000000000000000000000 PUSH1 0x0 DUP3 ADD MSTORE POP JUMP JUMPDEST PUSH32 0x455243373231456E756D657261626C653A206F776E657220696E646578206F75 PUSH1 0x0 DUP3 ADD MSTORE PUSH32 0x74206F6620626F756E6473000000000000000000000000000000000000000000 PUSH1 0x20 DUP3 ADD MSTORE POP JUMP JUMPDEST PUSH32 0x4552433732313A207472616E7366657220746F206E6F6E204552433732315265 PUSH1 0x0 DUP3 ADD MSTORE PUSH32 0x63656976657220696D706C656D656E7465720000000000000000000000000000 PUSH1 0x20 DUP3 ADD MSTORE POP JUMP JUMPDEST PUSH32 0x222C202274797065223A20220000000000000000000000000000000000000000 PUSH1 0x0 DUP3 ADD MSTORE POP JUMP JUMPDEST PUSH32 0x4F776E61626C653A206E6577206F776E657220697320746865207A65726F2061 PUSH1 0x0 DUP3 ADD MSTORE PUSH32 0x6464726573730000000000000000000000000000000000000000000000000000 PUSH1 0x20 DUP3 ADD MSTORE POP JUMP JUMPDEST PUSH32 0x4552433732313A20746F6B656E20616C7265616479206D696E74656400000000 PUSH1 0x0 DUP3 ADD MSTORE POP JUMP JUMPDEST PUSH32 0x222C2022746F6B656E496E666F223A2022000000000000000000000000000000 PUSH1 0x0 DUP3 ADD MSTORE POP JUMP JUMPDEST PUSH32 0x4552433732313A207472616E7366657220746F20746865207A65726F20616464 PUSH1 0x0 DUP3 ADD MSTORE PUSH32 0x7265737300000000000000000000000000000000000000000000000000000000 PUSH1 0x20 DUP3 ADD MSTORE POP JUMP JUMPDEST PUSH32 0x4552433732313A20617070726F766520746F2063616C6C657200000000000000 PUSH1 0x0 DUP3 ADD MSTORE POP JUMP JUMPDEST PUSH32 0x7B226E616D65223A20225461695368616E67204D617020230000000000000000 PUSH1 0x0 DUP3 ADD MSTORE POP JUMP JUMPDEST PUSH32 0x222C22696D616765223A2022646174613A696D6167652F7376672B786D6C3B62 PUSH1 0x0 DUP3 ADD MSTORE PUSH32 0x61736536342C0000000000000000000000000000000000000000000000000000 PUSH1 0x20 DUP3 ADD MSTORE POP JUMP JUMPDEST PUSH32 0x4552433732313A206F70657261746F7220717565727920666F72206E6F6E6578 PUSH1 0x0 DUP3 ADD MSTORE PUSH32 0x697374656E7420746F6B656E0000000000000000000000000000000000000000 PUSH1 0x20 DUP3 ADD MSTORE POP JUMP JUMPDEST PUSH32 0x4552433732313A20617070726F76652063616C6C6572206973206E6F74206F77 PUSH1 0x0 DUP3 ADD MSTORE PUSH32 0x6E6572206E6F7220617070726F76656420666F7220616C6C0000000000000000 PUSH1 0x20 DUP3 ADD MSTORE POP JUMP JUMPDEST PUSH32 0x4552433732313A2062616C616E636520717565727920666F7220746865207A65 PUSH1 0x0 DUP3 ADD MSTORE PUSH32 0x726F206164647265737300000000000000000000000000000000000000000000 PUSH1 0x20 DUP3 ADD MSTORE POP JUMP JUMPDEST PUSH32 0x4552433732313A206F776E657220717565727920666F72206E6F6E6578697374 PUSH1 0x0 DUP3 ADD MSTORE PUSH32 0x656E7420746F6B656E0000000000000000000000000000000000000000000000 PUSH1 0x20 DUP3 ADD MSTORE POP JUMP JUMPDEST PUSH32 0x227D000000000000000000000000000000000000000000000000000000000000 PUSH1 0x0 DUP3 ADD MSTORE POP JUMP JUMPDEST PUSH32 0x4552433732313A206D696E7420746F20746865207A65726F2061646472657373 PUSH1 0x0 DUP3 ADD MSTORE POP JUMP JUMPDEST PUSH32 0x6261736555524C20697320616C72656164792073657421000000000000000000 PUSH1 0x0 DUP3 ADD MSTORE POP JUMP JUMPDEST PUSH32 0x4552433732313A20617070726F76656420717565727920666F72206E6F6E6578 PUSH1 0x0 DUP3 ADD MSTORE PUSH32 0x697374656E7420746F6B656E0000000000000000000000000000000000000000 PUSH1 0x20 DUP3 ADD MSTORE POP JUMP JUMPDEST PUSH32 0x4F776E61626C653A2063616C6C6572206973206E6F7420746865206F776E6572 PUSH1 0x0 DUP3 ADD MSTORE POP JUMP JUMPDEST PUSH32 0x4552433732313A207472616E73666572206F6620746F6B656E20746861742069 PUSH1 0x0 DUP3 ADD MSTORE PUSH32 0x73206E6F74206F776E0000000000000000000000000000000000000000000000 PUSH1 0x20 DUP3 ADD MSTORE POP JUMP JUMPDEST PUSH32 0x4552433732313A20617070726F76616C20746F2063757272656E74206F776E65 PUSH1 0x0 DUP3 ADD MSTORE PUSH32 0x7200000000000000000000000000000000000000000000000000000000000000 PUSH1 0x20 DUP3 ADD MSTORE POP JUMP JUMPDEST PUSH32 0x646174613A6170706C69636174696F6E2F6A736F6E3B6261736536342C000000 PUSH1 0x0 DUP3 ADD MSTORE POP JUMP JUMPDEST PUSH32 0x4552433732313A207472616E736665722063616C6C6572206973206E6F74206F PUSH1 0x0 DUP3 ADD MSTORE PUSH32 0x776E6572206E6F7220617070726F766564000000000000000000000000000000 PUSH1 0x20 DUP3 ADD MSTORE POP JUMP JUMPDEST PUSH32 0x455243373231456E756D657261626C653A20676C6F62616C20696E646578206F PUSH1 0x0 DUP3 ADD MSTORE PUSH32 0x7574206F6620626F756E64730000000000000000000000000000000000000000 PUSH1 0x20 DUP3 ADD MSTORE POP JUMP JUMPDEST PUSH32 0x5265656E7472616E637947756172643A207265656E7472616E742063616C6C00 PUSH1 0x0 DUP3 ADD MSTORE POP JUMP JUMPDEST PUSH2 0x4A3F DUP2 PUSH2 0x40FD JUMP JUMPDEST DUP2 EQ PUSH2 0x4A4A JUMPI PUSH1 0x0 DUP1 REVERT JUMPDEST POP JUMP JUMPDEST PUSH2 0x4A56 DUP2 PUSH2 0x410F JUMP JUMPDEST DUP2 EQ PUSH2 0x4A61 JUMPI PUSH1 0x0 DUP1 REVERT JUMPDEST POP JUMP JUMPDEST PUSH2 0x4A6D DUP2 PUSH2 0x411B JUMP JUMPDEST DUP2 EQ PUSH2 0x4A78 JUMPI PUSH1 0x0 DUP1 REVERT JUMPDEST POP JUMP JUMPDEST PUSH2 0x4A84 DUP2 PUSH2 0x4167 JUMP JUMPDEST DUP2 EQ PUSH2 0x4A8F JUMPI PUSH1 0x0 DUP1 REVERT JUMPDEST POP JUMP INVALID EXTCODECOPY 0x2F PUSH21 0x6578743E3C7465787420783D2231302220793D2236 ADDRESS 0x22 KECCAK256 PUSH4 0x6C617373 RETURNDATASIZE 0x22 PUSH3 0x617365 0x22 RETURNDATACOPY EXTCODECOPY 0x2F PUSH21 0x6578743E3C7465787420783D2231302220793D2231 ORIGIN ADDRESS 0x22 KECCAK256 PUSH4 0x6C617373 RETURNDATASIZE 0x22 PUSH3 0x617365 0x22 RETURNDATACOPY EXTCODECOPY 0x2F PUSH21 0x6578743E3C7465787420783D2231302220793D2238 ADDRESS 0x22 KECCAK256 PUSH4 0x6C617373 RETURNDATASIZE 0x22 PUSH3 0x617365 0x22 RETURNDATACOPY EXTCODECOPY 0x2F PUSH21 0x6578743E3C7465787420783D2231302220793D2231 ADDRESS ADDRESS 0x22 KECCAK256 PUSH4 0x6C617373 RETURNDATASIZE 0x22 PUSH3 0x617365 0x22 RETURNDATACOPY EXTCODECOPY PUSH20 0x766720786D6C6E733D22687474703A2F2F777777 0x2E PUSH24 0x332E6F72672F323030302F73766722207072657365727665 COINBASE PUSH20 0x70656374526174696F3D22784D696E594D696E20 PUSH14 0x656574222076696577426F783D22 ADDRESS KECCAK256 ADDRESS KECCAK256 CALLER CALLDATALOAD ADDRESS KECCAK256 CALLER CALLDATALOAD ADDRESS 0x22 RETURNDATACOPY EXTCODECOPY PUSH20 0x74796C653E2E62617365207B2066696C6C3A2077 PUSH9 0x6974653B20666F6E74 0x2D PUSH7 0x616D696C793A20 PUSH20 0x657269663B20666F6E742D73697A653A20313470 PUSH25 0x3B207D3C2F7374796C653E3C726563742077696474683D2231 ADDRESS ADDRESS 0x25 0x22 KECCAK256 PUSH9 0x65696768743D223130 ADDRESS 0x25 0x22 KECCAK256 PUSH7 0x696C6C3D22626C PUSH2 0x636B 0x22 KECCAK256 0x2F RETURNDATACOPY EXTCODECOPY PUSH21 0x65787420783D2231302220793D2232302220636C61 PUSH20 0x733D2262617365223E3C2F746578743E3C746578 PUSH21 0x20783D2231302220793D223134302220636C617373 RETURNDATASIZE 0x22 PUSH3 0x617365 0x22 RETURNDATACOPY COINBASE TIMESTAMP NUMBER DIFFICULTY GASLIMIT CHAINID SELFBALANCE BASEFEE 0x49 0x4A 0x4B 0x4C 0x4D 0x4E 0x4F POP MLOAD MSTORE MSTORE8 SLOAD SSTORE JUMP JUMPI PC MSIZE GAS PUSH2 0x6263 PUSH5 0x6566676869 PUSH11 0x6B6C6D6E6F707172737475 PUSH23 0x7778797A303132333435363738392B2F3C2F746578743E EXTCODECOPY PUSH21 0x65787420783D2231302220793D2234302220636C61 PUSH20 0x733D2262617365223EA2646970667358221220F3 CHAINID 0xFB DUP12 SWAP16 XOR CALL SMOD PUSH28 0x9096BFB3F6A1F2A39F3121CDE643916F63AAB26EB0E42564736F6C63 NUMBER STOP ADDMOD SMOD STOP CALLER "
		},
		"gasEstimates": {
			"creation": {
				"codeDepositCost": "3940800",
				"executionCost": "infinite",
				"totalCost": "infinite"
			},
			"external": {
				"approve(address,uint256)": "infinite",
				"balanceOf(address)": "2969",
				"baseURL()": "infinite",
				"blockHeight(uint256)": "infinite",
				"claim(uint256,string,string)": "infinite",
				"getApproved(uint256)": "5228",
				"isApprovedForAll(address,address)": "infinite",
				"mapType(uint256)": "infinite",
				"name()": "infinite",
				"onlyGame()": "infinite",
				"owner()": "2589",
				"ownerOf(uint256)": "3045",
				"renounceOwnership()": "30419",
				"rule()": "infinite",
				"safeTransferFrom(address,address,uint256)": "infinite",
				"safeTransferFrom(address,address,uint256,bytes)": "infinite",
				"setApprovalForAll(address,bool)": "infinite",
				"setbaseURL(string)": "infinite",
				"supportsInterface(bytes4)": "886",
				"symbol()": "infinite",
				"tokenByIndex(uint256)": "infinite",
				"tokenInfo(uint256)": "infinite",
				"tokenOfOwnerByIndex(address,uint256)": "infinite",
				"tokenURI(uint256)": "infinite",
				"totalSupply()": "2557",
				"transferFrom(address,address,uint256)": "infinite",
				"transferOwnership(address)": "30833"
			},
			"internal": {
				"toString(uint256)": "infinite"
			}
		},
		"methodIdentifiers": {
			"approve(address,uint256)": "095ea7b3",
			"balanceOf(address)": "70a08231",
			"baseURL()": "40c84b0e",
			"blockHeight(uint256)": "e9b3c3e5",
			"claim(uint256,string,string)": "5f2a9e87",
			"getApproved(uint256)": "081812fc",
			"isApprovedForAll(address,address)": "e985e9c5",
			"mapType(uint256)": "d523c647",
			"name()": "06fdde03",
			"onlyGame()": "3f07d813",
			"owner()": "8da5cb5b",
			"ownerOf(uint256)": "6352211e",
			"renounceOwnership()": "715018a6",
			"rule()": "25e3d522",
			"safeTransferFrom(address,address,uint256)": "42842e0e",
			"safeTransferFrom(address,address,uint256,bytes)": "b88d4fde",
			"setApprovalForAll(address,bool)": "a22cb465",
			"setbaseURL(string)": "626ab3b8",
			"supportsInterface(bytes4)": "01ffc9a7",
			"symbol()": "95d89b41",
			"tokenByIndex(uint256)": "4f6ccce7",
			"tokenInfo(uint256)": "cc33c875",
			"tokenOfOwnerByIndex(address,uint256)": "2f745c59",
			"tokenURI(uint256)": "c87b56dd",
			"totalSupply()": "18160ddd",
			"transferFrom(address,address,uint256)": "23b872dd",
			"transferOwnership(address)": "f2fde38b"
		}
	},
	"abi": [
		{
			"inputs": [],
			"stateMutability": "nonpayable",
			"type": "constructor"
		},
		{
			"anonymous": false,
			"inputs": [
				{
					"indexed": true,
					"internalType": "address",
					"name": "owner",
					"type": "address"
				},
				{
					"indexed": true,
					"internalType": "address",
					"name": "approved",
					"type": "address"
				},
				{
					"indexed": true,
					"internalType": "uint256",
					"name": "tokenId",
					"type": "uint256"
				}
			],
			"name": "Approval",
			"type": "event"
		},
		{
			"anonymous": false,
			"inputs": [
				{
					"indexed": true,
					"internalType": "address",
					"name": "owner",
					"type": "address"
				},
				{
					"indexed": true,
					"internalType": "address",
					"name": "operator",
					"type": "address"
				},
				{
					"indexed": false,
					"internalType": "bool",
					"name": "approved",
					"type": "bool"
				}
			],
			"name": "ApprovalForAll",
			"type": "event"
		},
		{
			"anonymous": false,
			"inputs": [
				{
					"indexed": true,
					"internalType": "address",
					"name": "previousOwner",
					"type": "address"
				},
				{
					"indexed": true,
					"internalType": "address",
					"name": "newOwner",
					"type": "address"
				}
			],
			"name": "OwnershipTransferred",
			"type": "event"
		},
		{
			"anonymous": false,
			"inputs": [
				{
					"indexed": true,
					"internalType": "address",
					"name": "from",
					"type": "address"
				},
				{
					"indexed": true,
					"internalType": "address",
					"name": "to",
					"type": "address"
				},
				{
					"indexed": true,
					"internalType": "uint256",
					"name": "tokenId",
					"type": "uint256"
				}
			],
			"name": "Transfer",
			"type": "event"
		},
		{
			"inputs": [
				{
					"internalType": "address",
					"name": "to",
					"type": "address"
				},
				{
					"internalType": "uint256",
					"name": "tokenId",
					"type": "uint256"
				}
			],
			"name": "approve",
			"outputs": [],
			"stateMutability": "nonpayable",
			"type": "function"
		},
		{
			"inputs": [
				{
					"internalType": "address",
					"name": "owner",
					"type": "address"
				}
			],
			"name": "balanceOf",
			"outputs": [
				{
					"internalType": "uint256",
					"name": "",
					"type": "uint256"
				}
			],
			"stateMutability": "view",
			"type": "function"
		},
		{
			"inputs": [],
			"name": "baseURL",
			"outputs": [
				{
					"internalType": "string",
					"name": "",
					"type": "string"
				}
			],
			"stateMutability": "view",
			"type": "function"
		},
		{
			"inputs": [
				{
					"internalType": "uint256",
					"name": "",
					"type": "uint256"
				}
			],
			"name": "blockHeight",
			"outputs": [
				{
					"internalType": "uint256",
					"name": "",
					"type": "uint256"
				}
			],
			"stateMutability": "view",
			"type": "function"
		},
		{
			"inputs": [
				{
					"internalType": "uint256",
					"name": "_blockHeight",
					"type": "uint256"
				},
				{
					"internalType": "string",
					"name": "_tokenInfo",
					"type": "string"
				},
				{
					"internalType": "string",
					"name": "_mapType",
					"type": "string"
				}
			],
			"name": "claim",
			"outputs": [],
			"stateMutability": "nonpayable",
			"type": "function"
		},
		{
			"inputs": [
				{
					"internalType": "uint256",
					"name": "tokenId",
					"type": "uint256"
				}
			],
			"name": "getApproved",
			"outputs": [
				{
					"internalType": "address",
					"name": "",
					"type": "address"
				}
			],
			"stateMutability": "view",
			"type": "function"
		},
		{
			"inputs": [
				{
					"internalType": "address",
					"name": "owner",
					"type": "address"
				},
				{
					"internalType": "address",
					"name": "operator",
					"type": "address"
				}
			],
			"name": "isApprovedForAll",
			"outputs": [
				{
					"internalType": "bool",
					"name": "",
					"type": "bool"
				}
			],
			"stateMutability": "view",
			"type": "function"
		},
		{
			"inputs": [
				{
					"internalType": "uint256",
					"name": "",
					"type": "uint256"
				}
			],
			"name": "mapType",
			"outputs": [
				{
					"internalType": "string",
					"name": "",
					"type": "string"
				}
			],
			"stateMutability": "view",
			"type": "function"
		},
		{
			"inputs": [],
			"name": "name",
			"outputs": [
				{
					"internalType": "string",
					"name": "",
					"type": "string"
				}
			],
			"stateMutability": "view",
			"type": "function"
		},
		{
			"inputs": [],
			"name": "onlyGame",
			"outputs": [
				{
					"internalType": "string",
					"name": "",
					"type": "string"
				}
			],
			"stateMutability": "view",
			"type": "function"
		},
		{
			"inputs": [],
			"name": "owner",
			"outputs": [
				{
					"internalType": "address",
					"name": "",
					"type": "address"
				}
			],
			"stateMutability": "view",
			"type": "function"
		},
		{
			"inputs": [
				{
					"internalType": "uint256",
					"name": "tokenId",
					"type": "uint256"
				}
			],
			"name": "ownerOf",
			"outputs": [
				{
					"internalType": "address",
					"name": "",
					"type": "address"
				}
			],
			"stateMutability": "view",
			"type": "function"
		},
		{
			"inputs": [],
			"name": "renounceOwnership",
			"outputs": [],
			"stateMutability": "nonpayable",
			"type": "function"
		},
		{
			"inputs": [],
			"name": "rule",
			"outputs": [
				{
					"internalType": "string",
					"name": "",
					"type": "string"
				}
			],
			"stateMutability": "view",
			"type": "function"
		},
		{
			"inputs": [
				{
					"internalType": "address",
					"name": "from",
					"type": "address"
				},
				{
					"internalType": "address",
					"name": "to",
					"type": "address"
				},
				{
					"internalType": "uint256",
					"name": "tokenId",
					"type": "uint256"
				}
			],
			"name": "safeTransferFrom",
			"outputs": [],
			"stateMutability": "nonpayable",
			"type": "function"
		},
		{
			"inputs": [
				{
					"internalType": "address",
					"name": "from",
					"type": "address"
				},
				{
					"internalType": "address",
					"name": "to",
					"type": "address"
				},
				{
					"internalType": "uint256",
					"name": "tokenId",
					"type": "uint256"
				},
				{
					"internalType": "bytes",
					"name": "_data",
					"type": "bytes"
				}
			],
			"name": "safeTransferFrom",
			"outputs": [],
			"stateMutability": "nonpayable",
			"type": "function"
		},
		{
			"inputs": [
				{
					"internalType": "address",
					"name": "operator",
					"type": "address"
				},
				{
					"internalType": "bool",
					"name": "approved",
					"type": "bool"
				}
			],
			"name": "setApprovalForAll",
			"outputs": [],
			"stateMutability": "nonpayable",
			"type": "function"
		},
		{
			"inputs": [
				{
					"internalType": "string",
					"name": "_baseURL",
					"type": "string"
				}
			],
			"name": "setbaseURL",
			"outputs": [],
			"stateMutability": "nonpayable",
			"type": "function"
		},
		{
			"inputs": [
				{
					"internalType": "bytes4",
					"name": "interfaceId",
					"type": "bytes4"
				}
			],
			"name": "supportsInterface",
			"outputs": [
				{
					"internalType": "bool",
					"name": "",
					"type": "bool"
				}
			],
			"stateMutability": "view",
			"type": "function"
		},
		{
			"inputs": [],
			"name": "symbol",
			"outputs": [
				{
					"internalType": "string",
					"name": "",
					"type": "string"
				}
			],
			"stateMutability": "view",
			"type": "function"
		},
		{
			"inputs": [
				{
					"internalType": "uint256",
					"name": "index",
					"type": "uint256"
				}
			],
			"name": "tokenByIndex",
			"outputs": [
				{
					"internalType": "uint256",
					"name": "",
					"type": "uint256"
				}
			],
			"stateMutability": "view",
			"type": "function"
		},
		{
			"inputs": [
				{
					"internalType": "uint256",
					"name": "",
					"type": "uint256"
				}
			],
			"name": "tokenInfo",
			"outputs": [
				{
					"internalType": "string",
					"name": "",
					"type": "string"
				}
			],
			"stateMutability": "view",
			"type": "function"
		},
		{
			"inputs": [
				{
					"internalType": "address",
					"name": "owner",
					"type": "address"
				},
				{
					"internalType": "uint256",
					"name": "index",
					"type": "uint256"
				}
			],
			"name": "tokenOfOwnerByIndex",
			"outputs": [
				{
					"internalType": "uint256",
					"name": "",
					"type": "uint256"
				}
			],
			"stateMutability": "view",
			"type": "function"
		},
		{
			"inputs": [
				{
					"internalType": "uint256",
					"name": "tokenId",
					"type": "uint256"
				}
			],
			"name": "tokenURI",
			"outputs": [
				{
					"internalType": "string",
					"name": "",
					"type": "string"
				}
			],
			"stateMutability": "view",
			"type": "function"
		},
		{
			"inputs": [],
			"name": "totalSupply",
			"outputs": [
				{
					"internalType": "uint256",
					"name": "",
					"type": "uint256"
				}
			],
			"stateMutability": "view",
			"type": "function"
		},
		{
			"inputs": [
				{
					"internalType": "address",
					"name": "from",
					"type": "address"
				},
				{
					"internalType": "address",
					"name": "to",
					"type": "address"
				},
				{
					"internalType": "uint256",
					"name": "tokenId",
					"type": "uint256"
				}
			],
			"name": "transferFrom",
			"outputs": [],
			"stateMutability": "nonpayable",
			"type": "function"
		},
		{
			"inputs": [
				{
					"internalType": "address",
					"name": "newOwner",
					"type": "address"
				}
			],
			"name": "transferOwnership",
			"outputs": [],
			"stateMutability": "nonpayable",
			"type": "function"
		}
	]
}